{
  "_format": "hh-sol-artifact-1",
  "contractName": "CommunityPortal",
  "sourceName": "contracts/community-portal/CommunityPortal.sol",
  "abi": [
    {
      "inputs": [],
      "stateMutability": "nonpayable",
      "type": "constructor"
    },
    {
      "anonymous": false,
      "inputs": [
        {
          "indexed": false,
          "internalType": "address",
          "name": "previousAdmin",
          "type": "address"
        },
        {
          "indexed": false,
          "internalType": "address",
          "name": "newAdmin",
          "type": "address"
        }
      ],
      "name": "AdminChanged",
      "type": "event"
    },
    {
      "anonymous": false,
      "inputs": [
        {
          "indexed": true,
          "internalType": "address",
          "name": "beacon",
          "type": "address"
        }
      ],
      "name": "BeaconUpgraded",
      "type": "event"
    },
    {
      "anonymous": false,
      "inputs": [
        {
          "indexed": true,
          "internalType": "address",
          "name": "publisher",
          "type": "address"
        },
        {
          "indexed": false,
          "internalType": "uint32",
          "name": "communityId",
          "type": "uint32"
        },
        {
          "indexed": false,
          "internalType": "address",
          "name": "communityPassport",
          "type": "address"
        },
        {
          "indexed": false,
          "internalType": "string",
          "name": "communityURI",
          "type": "string"
        }
      ],
      "name": "CreatedCommunity",
      "type": "event"
    },
    {
      "anonymous": false,
      "inputs": [
        {
          "indexed": false,
          "internalType": "uint8",
          "name": "version",
          "type": "uint8"
        }
      ],
      "name": "Initialized",
      "type": "event"
    },
    {
      "anonymous": false,
      "inputs": [
        {
          "indexed": true,
          "internalType": "address",
          "name": "previousOwner",
          "type": "address"
        },
        {
          "indexed": true,
          "internalType": "address",
          "name": "newOwner",
          "type": "address"
        }
      ],
      "name": "OwnershipTransferred",
      "type": "event"
    },
    {
      "anonymous": false,
      "inputs": [
        {
          "indexed": true,
          "internalType": "uint32",
          "name": "communityId",
          "type": "uint32"
        },
        {
          "indexed": false,
          "internalType": "string",
          "name": "oldState",
          "type": "string"
        },
        {
          "indexed": false,
          "internalType": "string",
          "name": "newState",
          "type": "string"
        }
      ],
      "name": "SetCommunityURI",
      "type": "event"
    },
    {
      "anonymous": false,
      "inputs": [
        {
          "indexed": true,
          "internalType": "address",
          "name": "publisher",
          "type": "address"
        },
        {
          "indexed": false,
          "internalType": "address",
          "name": "oldState",
          "type": "address"
        },
        {
          "indexed": false,
          "internalType": "address",
          "name": "newState",
          "type": "address"
        }
      ],
      "name": "SetPassportCreater",
      "type": "event"
    },
    {
      "anonymous": false,
      "inputs": [
        {
          "indexed": true,
          "internalType": "address",
          "name": "implementation",
          "type": "address"
        }
      ],
      "name": "Upgraded",
      "type": "event"
    },
    {
      "inputs": [
        {
          "internalType": "uint32",
          "name": "communityId_",
          "type": "uint32"
        },
        {
          "internalType": "address",
          "name": "user_",
          "type": "address"
        },
        {
          "internalType": "uint32",
          "name": "exp_",
          "type": "uint32"
        }
      ],
      "name": "addExp",
      "outputs": [],
      "stateMutability": "nonpayable",
      "type": "function"
    },
    {
      "inputs": [],
      "name": "communitySupply",
      "outputs": [
        {
          "internalType": "uint256",
          "name": "length",
          "type": "uint256"
        }
      ],
      "stateMutability": "view",
      "type": "function"
    },
    {
      "inputs": [
        {
          "internalType": "string",
          "name": "name_",
          "type": "string"
        },
        {
          "internalType": "string",
          "name": "baseURI_",
          "type": "string"
        },
        {
          "internalType": "string",
          "name": "firstURI_",
          "type": "string"
        },
        {
          "internalType": "string",
          "name": "contractURI_",
          "type": "string"
        },
        {
          "internalType": "address[]",
          "name": "adminList_",
          "type": "address[]"
        },
        {
          "internalType": "string",
          "name": "communityURI_",
          "type": "string"
        }
      ],
      "name": "createCommunity",
      "outputs": [],
      "stateMutability": "nonpayable",
      "type": "function"
    },
    {
      "inputs": [
        {
          "internalType": "uint32",
          "name": "communityId_",
          "type": "uint32"
        }
      ],
      "name": "getCommunity",
      "outputs": [
        {
          "components": [
            {
              "internalType": "string",
              "name": "communityURI",
              "type": "string"
            },
            {
              "internalType": "address",
              "name": "passport",
              "type": "address"
            },
            {
              "internalType": "bool",
              "name": "closed",
              "type": "bool"
            }
          ],
          "internalType": "struct ICommunityPortal.Community",
          "name": "community",
          "type": "tuple"
        }
      ],
      "stateMutability": "view",
      "type": "function"
    },
    {
      "inputs": [
        {
          "internalType": "uint256",
          "name": "page_",
          "type": "uint256"
        },
        {
          "internalType": "uint256",
          "name": "pageSize_",
          "type": "uint256"
        }
      ],
      "name": "getCommunityList",
      "outputs": [
        {
          "components": [
            {
              "internalType": "string",
              "name": "communityURI",
              "type": "string"
            },
            {
              "internalType": "address",
              "name": "passport",
              "type": "address"
            },
            {
              "internalType": "bool",
              "name": "closed",
              "type": "bool"
            }
          ],
          "internalType": "struct ICommunityPortal.Community[]",
          "name": "list",
          "type": "tuple[]"
        }
      ],
      "stateMutability": "view",
      "type": "function"
    },
    {
      "inputs": [
        {
          "internalType": "address",
          "name": "passportCreater_",
          "type": "address"
        },
        {
          "internalType": "address",
          "name": "questBoard_",
          "type": "address"
        }
      ],
      "name": "initialize",
      "outputs": [],
      "stateMutability": "nonpayable",
      "type": "function"
    },
    {
      "inputs": [],
      "name": "owner",
      "outputs": [
        {
          "internalType": "address",
          "name": "",
          "type": "address"
        }
      ],
      "stateMutability": "view",
      "type": "function"
    },
    {
      "inputs": [],
      "name": "passportCreater",
      "outputs": [
        {
          "internalType": "contract ICommunityPassportCreater",
          "name": "",
          "type": "address"
        }
      ],
      "stateMutability": "view",
      "type": "function"
    },
    {
      "inputs": [],
      "name": "proxiableUUID",
      "outputs": [
        {
          "internalType": "bytes32",
          "name": "",
          "type": "bytes32"
        }
      ],
      "stateMutability": "view",
      "type": "function"
    },
    {
      "inputs": [],
      "name": "questBoard",
      "outputs": [
        {
          "internalType": "address",
          "name": "",
          "type": "address"
        }
      ],
      "stateMutability": "view",
      "type": "function"
    },
    {
      "inputs": [],
      "name": "renounceOwnership",
      "outputs": [],
      "stateMutability": "nonpayable",
      "type": "function"
    },
    {
      "inputs": [
        {
          "internalType": "uint32",
          "name": "communityId_",
          "type": "uint32"
        },
        {
          "internalType": "bool",
          "name": "newState_",
          "type": "bool"
        }
      ],
      "name": "setClosed",
      "outputs": [],
      "stateMutability": "nonpayable",
      "type": "function"
    },
    {
      "inputs": [
        {
          "internalType": "uint32",
          "name": "communityId_",
          "type": "uint32"
        },
        {
          "internalType": "string",
          "name": "newState_",
          "type": "string"
        }
      ],
      "name": "setCommunityURI",
      "outputs": [],
      "stateMutability": "nonpayable",
      "type": "function"
    },
    {
      "inputs": [
        {
          "internalType": "uint32",
          "name": "communityId_",
          "type": "uint32"
        },
        {
          "internalType": "address",
          "name": "newState_",
          "type": "address"
        }
      ],
      "name": "setPassport",
      "outputs": [],
      "stateMutability": "nonpayable",
      "type": "function"
    },
    {
      "inputs": [
        {
          "internalType": "address",
          "name": "newState_",
          "type": "address"
        }
      ],
      "name": "setPassportCreater",
      "outputs": [],
      "stateMutability": "nonpayable",
      "type": "function"
    },
    {
      "inputs": [
        {
          "internalType": "address",
          "name": "newState_",
          "type": "address"
        }
      ],
      "name": "setQuestBoard",
      "outputs": [],
      "stateMutability": "nonpayable",
      "type": "function"
    },
    {
      "inputs": [
        {
          "internalType": "address",
          "name": "newOwner",
          "type": "address"
        }
      ],
      "name": "transferOwnership",
      "outputs": [],
      "stateMutability": "nonpayable",
      "type": "function"
    },
    {
      "inputs": [
        {
          "internalType": "address",
          "name": "newImplementation",
          "type": "address"
        }
      ],
      "name": "upgradeTo",
      "outputs": [],
      "stateMutability": "nonpayable",
      "type": "function"
    },
    {
      "inputs": [
        {
          "internalType": "address",
          "name": "newImplementation",
          "type": "address"
        },
        {
          "internalType": "bytes",
          "name": "data",
          "type": "bytes"
        }
      ],
      "name": "upgradeToAndCall",
      "outputs": [],
      "stateMutability": "payable",
      "type": "function"
    }
  ],
  "bytecode": "0x60a06040523060805234801561001457600080fd5b5061001d610022565b6100e2565b600054610100900460ff161561008e5760405162461bcd60e51b815260206004820152602760248201527f496e697469616c697a61626c653a20636f6e747261637420697320696e697469604482015266616c697a696e6760c81b606482015260840160405180910390fd5b60005460ff90811610156100e0576000805460ff191660ff9081179091556040519081527f7f26b83ff96e1f2b6a682f133852f6798a09c465da95921460cefb38474024989060200160405180910390a15b565b608051611fc561011960003960008181610790015281816107d0015281816109c201528181610a020152610ae30152611fc56000f3fe6080604052600436106101145760003560e01c806352d1902d116100a0578063ca83747e11610064578063ca83747e146102f2578063dd942ef31461031f578063f2fde38b1461033f578063f77878501461035f578063fcceea261461037f57600080fd5b806352d1902d1461025c578063715018a61461027f578063759b02ba146102945780638da5cb5b146102b45780638fbbf966146102d257600080fd5b8063247b0add116100e7578063247b0add146101c95780633659cfe6146101e9578063485cc955146102095780634f1ef286146102295780634fca1d1c1461023c57600080fd5b8063022feb73146101195780630a956d601461013b578063105be0f91461015b5780631312279814610191575b600080fd5b34801561012557600080fd5b506101396101343660046115d9565b610394565b005b34801561014757600080fd5b506101396101563660046116ce565b6103be565b34801561016757600080fd5b5061017b61017636600461171c565b6104fa565b60405161018891906117cd565b60405180910390f35b34801561019d57600080fd5b5060fd546101b1906001600160a01b031681565b6040516001600160a01b039091168152602001610188565b3480156101d557600080fd5b506101396101e43660046115d9565b61071b565b3480156101f557600080fd5b506101396102043660046115d9565b610786565b34801561021557600080fd5b5061013961022436600461182f565b610865565b610139610237366004611868565b6109b8565b34801561024857600080fd5b506101396102573660046118c2565b610a88565b34801561026857600080fd5b50610271610ad6565b604051908152602001610188565b34801561028b57600080fd5b50610139610b89565b3480156102a057600080fd5b506101396102af3660046118f3565b610b9d565b3480156102c057600080fd5b506033546001600160a01b03166101b1565b3480156102de57600080fd5b506101396102ed36600461190f565b610bf8565b3480156102fe57600080fd5b5061031261030d366004611954565b610cea565b604051610188919061196f565b34801561032b57600080fd5b5061013961033a366004611a0b565b610e3d565b34801561034b57600080fd5b5061013961035a3660046115d9565b611005565b34801561036b57600080fd5b5060fc546101b1906001600160a01b031681565b34801561038b57600080fd5b5060fb54610271565b61039c61107b565b60fd80546001600160a01b0319166001600160a01b0392909216919091179055565b6103c661107b565b600060fb8363ffffffff16815481106103e1576103e1611b00565b906000526020600020906002020160000180546103fd90611b16565b80601f016020809104026020016040519081016040528092919081815260200182805461042990611b16565b80156104765780601f1061044b57610100808354040283529160200191610476565b820191906000526020600020905b81548152906001019060200180831161045957829003601f168201915b505050505090508160fb8463ffffffff168154811061049757610497611b00565b906000526020600020906002020160000190816104b49190611b9e565b508263ffffffff167fba454265ac410ca3a5ebb529c67f635d8ab783aea3c89f3e2e2c4fe0bf9f08e582846040516104ed929190611c5e565b60405180910390a2505050565b6060600082116105515760405162461bcd60e51b815260206004820152601a60248201527f706167652073697a65206d75737420626520706f73697469766500000000000060448201526064015b60405180910390fd5b60fb54828181610562876001611ca2565b61056c9190611cb5565b11156105755750805b8067ffffffffffffffff81111561058e5761058e61160f565b6040519080825280602002602001820160405280156105d957816020015b60408051606080820183528152600060208083018290529282015282526000199092019101816105ac5790505b50925060005b818110156107125760fb816105f48789611cb5565b6105fe9190611ca2565b8154811061060e5761060e611b00565b906000526020600020906002020160405180606001604052908160008201805461063790611b16565b80601f016020809104026020016040519081016040528092919081815260200182805461066390611b16565b80156106b05780601f10610685576101008083540402835291602001916106b0565b820191906000526020600020905b81548152906001019060200180831161069357829003601f168201915b5050509183525050600191909101546001600160a01b0381166020830152600160a01b900460ff16151560409091015284518590839081106106f4576106f4611b00565b6020026020010181905250808061070a90611ccc565b9150506105df565b50505092915050565b61072361107b565b60fc80546001600160a01b038381166001600160a01b0319831681179093556040805191909216808252602082019390935233917f1049f3ca51cead05d02e33e3b7ecb8ca35c26b71da78c35114e45ba6399ce20a910160405180910390a25050565b6001600160a01b037f00000000000000000000000000000000000000000000000000000000000000001630036107ce5760405162461bcd60e51b815260040161054890611ce5565b7f00000000000000000000000000000000000000000000000000000000000000006001600160a01b0316610817600080516020611f49833981519152546001600160a01b031690565b6001600160a01b03161461083d5760405162461bcd60e51b815260040161054890611d31565b610846816110d5565b60408051600080825260208201909252610862918391906110dd565b50565b600054610100900460ff16158080156108855750600054600160ff909116105b8061089f5750303b15801561089f575060005460ff166001145b6109025760405162461bcd60e51b815260206004820152602e60248201527f496e697469616c697a61626c653a20636f6e747261637420697320616c72656160448201526d191e481a5b9a5d1a585b1a5e995960921b6064820152608401610548565b6000805460ff191660011790558015610925576000805461ff0019166101001790555b61092d611248565b610935611277565b61093d61129e565b60fc80546001600160a01b038086166001600160a01b03199283161790925560fd80549285169290911691909117905580156109b3576000805461ff0019169055604051600181527f7f26b83ff96e1f2b6a682f133852f6798a09c465da95921460cefb38474024989060200160405180910390a15b505050565b6001600160a01b037f0000000000000000000000000000000000000000000000000000000000000000163003610a005760405162461bcd60e51b815260040161054890611ce5565b7f00000000000000000000000000000000000000000000000000000000000000006001600160a01b0316610a49600080516020611f49833981519152546001600160a01b031690565b6001600160a01b031614610a6f5760405162461bcd60e51b815260040161054890611d31565b610a78826110d5565b610a84828260016110dd565b5050565b610a9061107b565b8060fb8363ffffffff1681548110610aaa57610aaa611b00565b906000526020600020906002020160010160146101000a81548160ff0219169083151502179055505050565b6000306001600160a01b037f00000000000000000000000000000000000000000000000000000000000000001614610b765760405162461bcd60e51b815260206004820152603860248201527f555550535570677261646561626c653a206d757374206e6f742062652063616c60448201527f6c6564207468726f7567682064656c656761746563616c6c00000000000000006064820152608401610548565b50600080516020611f4983398151915290565b610b9161107b565b610b9b60006112cd565b565b610ba561107b565b8060fb8363ffffffff1681548110610bbf57610bbf611b00565b906000526020600020906002020160010160006101000a8154816001600160a01b0302191690836001600160a01b031602179055505050565b60fd546001600160a01b03163314610c4a5760405162461bcd60e51b81526020600482015260156024820152740596f752063616e6e6f742072756e2061646445787605c1b6044820152606401610548565b600060fb8463ffffffff1681548110610c6557610c65611b00565b60009182526020909120600290910201600101546040516328e794b560e11b81526001600160a01b03858116600483015263ffffffff85166024830152909116915081906351cf296a90604401600060405180830381600087803b158015610ccc57600080fd5b505af1158015610ce0573d6000803e3d6000fd5b5050505050505050565b604080516060808201835281526000602082018190529181019190915260fb8263ffffffff1681548110610d2057610d20611b00565b90600052602060002090600202016000018054610d3c90611b16565b80601f0160208091040260200160405190810160405280929190818152602001828054610d6890611b16565b8015610db55780601f10610d8a57610100808354040283529160200191610db5565b820191906000526020600020905b815481529060010190602001808311610d9857829003601f168201915b505050918352505060fb805463ffffffff8416908110610dd757610dd7611b00565b6000918252602091829020600160029092020101546001600160a01b03169082015260fb805463ffffffff8416908110610e1357610e13611b00565b6000918252602090912060029091020160010154600160a01b900460ff1615156040820152919050565b610e4561107b565b600086604051602001610e589190611d7d565b60408051601f198184030181528282019091526005825264435041535360d81b602083015260fb54909250610ea6604080516060808201835281526000602082018190529181019190915290565b60fc546040516301bc1fdd60e51b81526001600160a01b0390911690633783fba090610ee290879087908e908e908e908a908f90600401611daa565b6020604051808303816000875af1158015610f01573d6000803e3d6000fd5b505050506040513d601f19601f82011682018060405250810190610f259190611e68565b6001600160a01b0316602082015284815260fb8054600181018255600091909152815182916002027f3e7257b7272bb46d49cd6019b04ddee20da7c0cb13f7c1ec3391291b2ccebabc01908190610f7c9082611b9e565b50602082810151600190920180546040948501511515600160a01b026001600160a81b03199091166001600160a01b0390941693909317929092179091558201518251915130927fb481a421d80ce16dbf9274c29104b74441391758c83e544d687d9a600b653ad092610ff192879290611e85565b60405180910390a250505050505050505050565b61100d61107b565b6001600160a01b0381166110725760405162461bcd60e51b815260206004820152602660248201527f4f776e61626c653a206e6577206f776e657220697320746865207a65726f206160448201526564647265737360d01b6064820152608401610548565b610862816112cd565b6033546001600160a01b03163314610b9b5760405162461bcd60e51b815260206004820181905260248201527f4f776e61626c653a2063616c6c6572206973206e6f7420746865206f776e65726044820152606401610548565b61086261107b565b7f4910fdfa16fed3260ed0e7147f7cc6da11a60208b5b9406d12a635614ffd91435460ff1615611110576109b38361131f565b826001600160a01b03166352d1902d6040518163ffffffff1660e01b8152600401602060405180830381865afa92505050801561116a575060408051601f3d908101601f1916820190925261116791810190611eb5565b60015b6111cd5760405162461bcd60e51b815260206004820152602e60248201527f45524331393637557067726164653a206e657720696d706c656d656e7461746960448201526d6f6e206973206e6f74205555505360901b6064820152608401610548565b600080516020611f49833981519152811461123c5760405162461bcd60e51b815260206004820152602960248201527f45524331393637557067726164653a20756e737570706f727465642070726f786044820152681a58589b195555525160ba1b6064820152608401610548565b506109b38383836113bb565b600054610100900460ff1661126f5760405162461bcd60e51b815260040161054890611ece565b610b9b6113e6565b600054610100900460ff16610b9b5760405162461bcd60e51b815260040161054890611ece565b600054610100900460ff166112c55760405162461bcd60e51b815260040161054890611ece565b610b9b611416565b603380546001600160a01b038381166001600160a01b0319831681179093556040519116919082907f8be0079c531659141344cd1fd0a4f28419497f9722a3daafe3b4186f6b6457e090600090a35050565b6001600160a01b0381163b61138c5760405162461bcd60e51b815260206004820152602d60248201527f455243313936373a206e657720696d706c656d656e746174696f6e206973206e60448201526c1bdd08184818dbdb9d1c9858dd609a1b6064820152608401610548565b600080516020611f4983398151915280546001600160a01b0319166001600160a01b0392909216919091179055565b6113c483611444565b6000825111806113d15750805b156109b3576113e08383611484565b50505050565b600054610100900460ff1661140d5760405162461bcd60e51b815260040161054890611ece565b610b9b336112cd565b600054610100900460ff1661143d5760405162461bcd60e51b815260040161054890611ece565b600160c955565b61144d8161131f565b6040516001600160a01b038216907fbc7cd75a20ee27fd9adebab32041f755214dbc6bffa90cc0225b39da2e5c2d3b90600090a250565b60606001600160a01b0383163b6114ec5760405162461bcd60e51b815260206004820152602660248201527f416464726573733a2064656c65676174652063616c6c20746f206e6f6e2d636f6044820152651b9d1c9858dd60d21b6064820152608401610548565b600080846001600160a01b0316846040516115079190611f19565b600060405180830381855af49150503d8060008114611542576040519150601f19603f3d011682016040523d82523d6000602084013e611547565b606091505b509150915061156f8282604051806060016040528060278152602001611f696027913961157a565b925050505b92915050565b60608315611589575081611593565b611593838361159a565b9392505050565b8151156115aa5781518083602001fd5b8060405162461bcd60e51b81526004016105489190611f35565b6001600160a01b038116811461086257600080fd5b6000602082840312156115eb57600080fd5b8135611593816115c4565b803563ffffffff8116811461160a57600080fd5b919050565b634e487b7160e01b600052604160045260246000fd5b604051601f8201601f1916810167ffffffffffffffff8111828210171561164e5761164e61160f565b604052919050565b600067ffffffffffffffff8311156116705761167061160f565b611683601f8401601f1916602001611625565b905082815283838301111561169757600080fd5b828260208301376000602084830101529392505050565b600082601f8301126116bf57600080fd5b61159383833560208501611656565b600080604083850312156116e157600080fd5b6116ea836115f6565b9150602083013567ffffffffffffffff81111561170657600080fd5b611712858286016116ae565b9150509250929050565b6000806040838503121561172f57600080fd5b50508035926020909101359150565b60005b83811015611759578181015183820152602001611741565b50506000910152565b6000815180845261177a81602086016020860161173e565b601f01601f19169290920160200192915050565b60008151606084526117a36060850182611762565b6020848101516001600160a01b031690860152604093840151151593909401929092525090919050565b6000602080830181845280855180835260408601915060408160051b870101925083870160005b8281101561182257603f1988860301845261181085835161178e565b945092850192908501906001016117f4565b5092979650505050505050565b6000806040838503121561184257600080fd5b823561184d816115c4565b9150602083013561185d816115c4565b809150509250929050565b6000806040838503121561187b57600080fd5b8235611886816115c4565b9150602083013567ffffffffffffffff8111156118a257600080fd5b8301601f810185136118b357600080fd5b61171285823560208401611656565b600080604083850312156118d557600080fd5b6118de836115f6565b91506020830135801515811461185d57600080fd5b6000806040838503121561190657600080fd5b61184d836115f6565b60008060006060848603121561192457600080fd5b61192d846115f6565b9250602084013561193d816115c4565b915061194b604085016115f6565b90509250925092565b60006020828403121561196657600080fd5b611593826115f6565b602081526000611593602083018461178e565b600082601f83011261199357600080fd5b8135602067ffffffffffffffff8211156119af576119af61160f565b8160051b6119be828201611625565b92835284810182019282810190878511156119d857600080fd5b83870192505b84831015611a005782356119f1816115c4565b825291830191908301906119de565b979650505050505050565b60008060008060008060c08789031215611a2457600080fd5b863567ffffffffffffffff80821115611a3c57600080fd5b611a488a838b016116ae565b97506020890135915080821115611a5e57600080fd5b611a6a8a838b016116ae565b96506040890135915080821115611a8057600080fd5b611a8c8a838b016116ae565b95506060890135915080821115611aa257600080fd5b611aae8a838b016116ae565b94506080890135915080821115611ac457600080fd5b611ad08a838b01611982565b935060a0890135915080821115611ae657600080fd5b50611af389828a016116ae565b9150509295509295509295565b634e487b7160e01b600052603260045260246000fd5b600181811c90821680611b2a57607f821691505b602082108103611b4a57634e487b7160e01b600052602260045260246000fd5b50919050565b601f8211156109b357600081815260208120601f850160051c81016020861015611b775750805b601f850160051c820191505b81811015611b9657828155600101611b83565b505050505050565b815167ffffffffffffffff811115611bb857611bb861160f565b611bcc81611bc68454611b16565b84611b50565b602080601f831160018114611c015760008415611be95750858301515b600019600386901b1c1916600185901b178555611b96565b600085815260208120601f198616915b82811015611c3057888601518255948401946001909101908401611c11565b5085821015611c4e5787850151600019600388901b60f8161c191681555b5050505050600190811b01905550565b604081526000611c716040830185611762565b8281036020840152611c838185611762565b95945050505050565b634e487b7160e01b600052601160045260246000fd5b8082018082111561157457611574611c8c565b808202811582820484141761157457611574611c8c565b600060018201611cde57611cde611c8c565b5060010190565b6020808252602c908201527f46756e6374696f6e206d7573742062652063616c6c6564207468726f7567682060408201526b19195b1959d85d1958d85b1b60a21b606082015260800190565b6020808252602c908201527f46756e6374696f6e206d7573742062652063616c6c6564207468726f7567682060408201526b6163746976652070726f787960a01b606082015260800190565b60008251611d8f81846020870161173e565b680814185cdcdc1bdc9d60ba1b920191825250600901919050565b60e081526000611dbd60e083018a611762565b602083820381850152611dd0828b611762565b91508382036040850152611de4828a611762565b91508382036060850152611df88289611762565b91508382036080850152611e0c8288611762565b63ffffffff871660a086015284810360c0860152855180825282870193509082019060005b81811015611e565784516001600160a01b031683529383019391830191600101611e31565b50909c9b505050505050505050505050565b600060208284031215611e7a57600080fd5b8151611593816115c4565b63ffffffff841681526001600160a01b0383166020820152606060408201819052600090611c8390830184611762565b600060208284031215611ec757600080fd5b5051919050565b6020808252602b908201527f496e697469616c697a61626c653a20636f6e7472616374206973206e6f74206960408201526a6e697469616c697a696e6760a81b606082015260800190565b60008251611f2b81846020870161173e565b9190910192915050565b602081526000611593602083018461176256fe360894a13ba1a3210667c828492db98dca3e2076cc3735a920a3ca505d382bbc416464726573733a206c6f772d6c6576656c2064656c65676174652063616c6c206661696c6564a26469706673582212207719300964188de9675a107d81ba426c64d8c0e585b91d5ca70ff1bac23e374a64736f6c63430008120033",
  "linkReferences": {},
  "deployedLinkReferences": {}
}