{
  "_format": "hh-sol-artifact-1",
  "contractName": "CommunityPortal",
  "sourceName": "contracts/CommunityPortal.sol",
  "abi": [
    {
      "inputs": [
        {
          "internalType": "address",
          "name": "_passportCreater",
          "type": "address"
        },
        {
          "internalType": "address",
          "name": "_questBoard",
          "type": "address"
        }
      ],
      "stateMutability": "nonpayable",
      "type": "constructor"
    },
    {
      "anonymous": false,
      "inputs": [
        {
          "indexed": true,
          "internalType": "address",
          "name": "publisher",
          "type": "address"
        },
        {
          "indexed": false,
          "internalType": "uint32",
          "name": "communityId",
          "type": "uint32"
        },
        {
          "indexed": false,
          "internalType": "address",
          "name": "communityPassport",
          "type": "address"
        },
        {
          "indexed": false,
          "internalType": "string",
          "name": "communityURI",
          "type": "string"
        }
      ],
      "name": "Create",
      "type": "event"
    },
    {
      "anonymous": false,
      "inputs": [
        {
          "indexed": true,
          "internalType": "address",
          "name": "previousOwner",
          "type": "address"
        },
        {
          "indexed": true,
          "internalType": "address",
          "name": "newOwner",
          "type": "address"
        }
      ],
      "name": "OwnershipTransferred",
      "type": "event"
    },
    {
      "anonymous": false,
      "inputs": [
        {
          "indexed": true,
          "internalType": "uint32",
          "name": "communityId",
          "type": "uint32"
        },
        {
          "indexed": false,
          "internalType": "string",
          "name": "oldState",
          "type": "string"
        },
        {
          "indexed": false,
          "internalType": "string",
          "name": "newState",
          "type": "string"
        }
      ],
      "name": "SetCommunityURI",
      "type": "event"
    },
    {
      "anonymous": false,
      "inputs": [
        {
          "indexed": true,
          "internalType": "address",
          "name": "publisher",
          "type": "address"
        },
        {
          "indexed": false,
          "internalType": "address",
          "name": "oldState",
          "type": "address"
        },
        {
          "indexed": false,
          "internalType": "address",
          "name": "newState",
          "type": "address"
        }
      ],
      "name": "SetPassportCreater",
      "type": "event"
    },
    {
      "inputs": [
        {
          "internalType": "uint32",
          "name": "communityId",
          "type": "uint32"
        },
        {
          "internalType": "address",
          "name": "fan",
          "type": "address"
        },
        {
          "internalType": "uint32",
          "name": "exp",
          "type": "uint32"
        }
      ],
      "name": "addExp",
      "outputs": [],
      "stateMutability": "nonpayable",
      "type": "function"
    },
    {
      "inputs": [],
      "name": "communitySupply",
      "outputs": [
        {
          "internalType": "uint256",
          "name": "",
          "type": "uint256"
        }
      ],
      "stateMutability": "view",
      "type": "function"
    },
    {
      "inputs": [
        {
          "internalType": "string",
          "name": "_communityURI",
          "type": "string"
        },
        {
          "internalType": "string",
          "name": "_name",
          "type": "string"
        },
        {
          "internalType": "string",
          "name": "_contructURI",
          "type": "string"
        }
      ],
      "name": "createCommunity",
      "outputs": [],
      "stateMutability": "nonpayable",
      "type": "function"
    },
    {
      "inputs": [
        {
          "internalType": "uint32",
          "name": "communityId",
          "type": "uint32"
        }
      ],
      "name": "getCommunity",
      "outputs": [
        {
          "internalType": "string",
          "name": "communityURI",
          "type": "string"
        },
        {
          "internalType": "address",
          "name": "passport",
          "type": "address"
        },
        {
          "internalType": "bool",
          "name": "closed",
          "type": "bool"
        }
      ],
      "stateMutability": "view",
      "type": "function"
    },
    {
      "inputs": [
        {
          "internalType": "uint256",
          "name": "page",
          "type": "uint256"
        },
        {
          "internalType": "uint256",
          "name": "pageSize",
          "type": "uint256"
        }
      ],
      "name": "getCommunityList",
      "outputs": [
        {
          "components": [
            {
              "internalType": "string",
              "name": "communityURI",
              "type": "string"
            },
            {
              "internalType": "address",
              "name": "passport",
              "type": "address"
            },
            {
              "internalType": "bool",
              "name": "closed",
              "type": "bool"
            }
          ],
          "internalType": "struct ICommunityPortal.Community[]",
          "name": "",
          "type": "tuple[]"
        },
        {
          "internalType": "uint256",
          "name": "",
          "type": "uint256"
        }
      ],
      "stateMutability": "view",
      "type": "function"
    },
    {
      "inputs": [],
      "name": "owner",
      "outputs": [
        {
          "internalType": "address",
          "name": "",
          "type": "address"
        }
      ],
      "stateMutability": "view",
      "type": "function"
    },
    {
      "inputs": [],
      "name": "passportCreater",
      "outputs": [
        {
          "internalType": "contract ICommunityPassportCreater",
          "name": "",
          "type": "address"
        }
      ],
      "stateMutability": "view",
      "type": "function"
    },
    {
      "inputs": [],
      "name": "questBoard",
      "outputs": [
        {
          "internalType": "address",
          "name": "",
          "type": "address"
        }
      ],
      "stateMutability": "view",
      "type": "function"
    },
    {
      "inputs": [],
      "name": "renounceOwnership",
      "outputs": [],
      "stateMutability": "nonpayable",
      "type": "function"
    },
    {
      "inputs": [
        {
          "internalType": "uint32",
          "name": "communityId",
          "type": "uint32"
        },
        {
          "internalType": "string",
          "name": "newCommunityURI",
          "type": "string"
        }
      ],
      "name": "setCommunityURI",
      "outputs": [],
      "stateMutability": "nonpayable",
      "type": "function"
    },
    {
      "inputs": [
        {
          "internalType": "address",
          "name": "_passportCreater",
          "type": "address"
        }
      ],
      "name": "setPassportCreater",
      "outputs": [],
      "stateMutability": "nonpayable",
      "type": "function"
    },
    {
      "inputs": [
        {
          "internalType": "address",
          "name": "_questBoard",
          "type": "address"
        }
      ],
      "name": "setQuestBoard",
      "outputs": [],
      "stateMutability": "nonpayable",
      "type": "function"
    },
    {
      "inputs": [
        {
          "internalType": "address",
          "name": "newOwner",
          "type": "address"
        }
      ],
      "name": "transferOwnership",
      "outputs": [],
      "stateMutability": "nonpayable",
      "type": "function"
    }
  ],
  "bytecode": "0x60806040523480156200001157600080fd5b5060405162001fde38038062001fde833981810160405281019062000037919062000217565b620000576200004b620000e160201b60201c565b620000e960201b60201c565b81600260006101000a81548173ffffffffffffffffffffffffffffffffffffffff021916908373ffffffffffffffffffffffffffffffffffffffff16021790555080600360006101000a81548173ffffffffffffffffffffffffffffffffffffffff021916908373ffffffffffffffffffffffffffffffffffffffff16021790555050506200025e565b600033905090565b60008060009054906101000a900473ffffffffffffffffffffffffffffffffffffffff169050816000806101000a81548173ffffffffffffffffffffffffffffffffffffffff021916908373ffffffffffffffffffffffffffffffffffffffff1602179055508173ffffffffffffffffffffffffffffffffffffffff168173ffffffffffffffffffffffffffffffffffffffff167f8be0079c531659141344cd1fd0a4f28419497f9722a3daafe3b4186f6b6457e060405160405180910390a35050565b600080fd5b600073ffffffffffffffffffffffffffffffffffffffff82169050919050565b6000620001df82620001b2565b9050919050565b620001f181620001d2565b8114620001fd57600080fd5b50565b6000815190506200021181620001e6565b92915050565b60008060408385031215620002315762000230620001ad565b5b6000620002418582860162000200565b9250506020620002548582860162000200565b9150509250929050565b611d70806200026e6000396000f3fe608060405234801561001057600080fd5b50600436106100cf5760003560e01c806375586d4a1161008c578063ca83747e11610066578063ca83747e146101d7578063f2fde38b14610209578063f778785014610225578063fcceea2614610243576100cf565b806375586d4a146101815780638da5cb5b1461019d5780638fbbf966146101bb576100cf565b8063022feb73146100d45780630a956d60146100f0578063105be0f91461010c578063131227981461013d578063247b0add1461015b578063715018a614610177575b600080fd5b6100ee60048036038101906100e99190610ed6565b610261565b005b61010a60048036038101906101059190611085565b6102ad565b005b61012660048036038101906101219190611117565b6103eb565b604051610134929190611321565b60405180910390f35b610145610652565b6040516101529190611360565b60405180910390f35b61017560048036038101906101709190610ed6565b610678565b005b61017f61073c565b005b61019b6004803603810190610196919061137b565b610750565b005b6101a5610964565b6040516101b29190611360565b60405180910390f35b6101d560048036038101906101d09190611422565b61098d565b005b6101f160048036038101906101ec9190611475565b610ae0565b604051610200939291906114fb565b60405180910390f35b610223600480360381019061021e9190610ed6565b610c2b565b005b61022d610cae565b60405161023a9190611598565b60405180910390f35b61024b610cd4565b60405161025891906115b3565b60405180910390f35b610269610ce1565b80600360006101000a81548173ffffffffffffffffffffffffffffffffffffffff021916908373ffffffffffffffffffffffffffffffffffffffff16021790555050565b6102b5610ce1565b600060018363ffffffff16815481106102d1576102d06115ce565b5b906000526020600020906002020160000180546102ed9061162c565b80601f01602080910402602001604051908101604052809291908181526020018280546103199061162c565b80156103665780601f1061033b57610100808354040283529160200191610366565b820191906000526020600020905b81548152906001019060200180831161034957829003601f168201915b505050505090508160018463ffffffff1681548110610388576103876115ce565b5b906000526020600020906002020160000190816103a591906117ff565b508263ffffffff167fba454265ac410ca3a5ebb529c67f635d8ab783aea3c89f3e2e2c4fe0bf9f08e582846040516103de9291906118d1565b60405180910390a2505050565b60606000808311610431576040517f08c379a000000000000000000000000000000000000000000000000000000000815260040161042890611954565b60405180910390fd5b60008390506001805490508460018761044a91906119a3565b61045491906119d7565b11156104635760018054905090505b60008167ffffffffffffffff81111561047f5761047e610f5a565b5b6040519080825280602002602001820160405280156104b857816020015b6104a5610e2b565b81526020019060019003908161049d5790505b50905060005b8281101561063d5760018187896104d591906119d7565b6104df91906119a3565b815481106104f0576104ef6115ce565b5b90600052602060002090600202016040518060600160405290816000820180546105199061162c565b80601f01602080910402602001604051908101604052809291908181526020018280546105459061162c565b80156105925780601f1061056757610100808354040283529160200191610592565b820191906000526020600020905b81548152906001019060200180831161057557829003601f168201915b505050505081526020016001820160009054906101000a900473ffffffffffffffffffffffffffffffffffffffff1673ffffffffffffffffffffffffffffffffffffffff1673ffffffffffffffffffffffffffffffffffffffff1681526020016001820160149054906101000a900460ff16151515158152505082828151811061061f5761061e6115ce565b5b6020026020010181905250808061063590611a19565b9150506104be565b50806001805490509350935050509250929050565b600360009054906101000a900473ffffffffffffffffffffffffffffffffffffffff1681565b610680610ce1565b6000600260009054906101000a900473ffffffffffffffffffffffffffffffffffffffff16905081600260006101000a81548173ffffffffffffffffffffffffffffffffffffffff021916908373ffffffffffffffffffffffffffffffffffffffff1602179055503373ffffffffffffffffffffffffffffffffffffffff167f1049f3ca51cead05d02e33e3b7ecb8ca35c26b71da78c35114e45ba6399ce20a8284604051610730929190611a61565b60405180910390a25050565b610744610ce1565b61074e6000610d5f565b565b610758610ce1565b610760610e2b565b600260009054906101000a900473ffffffffffffffffffffffffffffffffffffffff1673ffffffffffffffffffffffffffffffffffffffff166360f8a1598486856001805490506040518563ffffffff1660e01b81526004016107c69493929190611a99565b6020604051808303816000875af11580156107e5573d6000803e3d6000fd5b505050506040513d601f19601f820116820180604052508101906108099190611b08565b816020019073ffffffffffffffffffffffffffffffffffffffff16908173ffffffffffffffffffffffffffffffffffffffff16815250508381600001819052506001819080600181540180825580915050600190039060005260206000209060020201600090919091909150600082015181600001908161088a91906117ff565b5060208201518160010160006101000a81548173ffffffffffffffffffffffffffffffffffffffff021916908373ffffffffffffffffffffffffffffffffffffffff16021790555060408201518160010160146101000a81548160ff02191690831515021790555050503073ffffffffffffffffffffffffffffffffffffffff167fd4cafb385cf0f01471104dc4b0f45ae3337e79f4dc4c0ad0518c7586d86102256001808054905061093d9190611b35565b8360200151846000015160405161095693929190611b69565b60405180910390a250505050565b60008060009054906101000a900473ffffffffffffffffffffffffffffffffffffffff16905090565b600360009054906101000a900473ffffffffffffffffffffffffffffffffffffffff1673ffffffffffffffffffffffffffffffffffffffff163373ffffffffffffffffffffffffffffffffffffffff1614610a1d576040517f08c379a0000000000000000000000000000000000000000000000000000000008152600401610a1490611bf3565b60405180910390fd5b600060018463ffffffff1681548110610a3957610a386115ce565b5b906000526020600020906002020160010160009054906101000a900473ffffffffffffffffffffffffffffffffffffffff1690508073ffffffffffffffffffffffffffffffffffffffff166351cf296a84846040518363ffffffff1660e01b8152600401610aa8929190611c13565b600060405180830381600087803b158015610ac257600080fd5b505af1158015610ad6573d6000803e3d6000fd5b5050505050505050565b606060008060018463ffffffff1681548110610aff57610afe6115ce565b5b90600052602060002090600202016000018054610b1b9061162c565b80601f0160208091040260200160405190810160405280929190818152602001828054610b479061162c565b8015610b945780601f10610b6957610100808354040283529160200191610b94565b820191906000526020600020905b815481529060010190602001808311610b7757829003601f168201915b5050505050925060018463ffffffff1681548110610bb557610bb46115ce565b5b906000526020600020906002020160010160009054906101000a900473ffffffffffffffffffffffffffffffffffffffff16915060018463ffffffff1681548110610c0357610c026115ce565b5b906000526020600020906002020160010160149054906101000a900460ff1690509193909250565b610c33610ce1565b600073ffffffffffffffffffffffffffffffffffffffff168173ffffffffffffffffffffffffffffffffffffffff1603610ca2576040517f08c379a0000000000000000000000000000000000000000000000000000000008152600401610c9990611cae565b60405180910390fd5b610cab81610d5f565b50565b600260009054906101000a900473ffffffffffffffffffffffffffffffffffffffff1681565b6000600180549050905090565b610ce9610e23565b73ffffffffffffffffffffffffffffffffffffffff16610d07610964565b73ffffffffffffffffffffffffffffffffffffffff1614610d5d576040517f08c379a0000000000000000000000000000000000000000000000000000000008152600401610d5490611d1a565b60405180910390fd5b565b60008060009054906101000a900473ffffffffffffffffffffffffffffffffffffffff169050816000806101000a81548173ffffffffffffffffffffffffffffffffffffffff021916908373ffffffffffffffffffffffffffffffffffffffff1602179055508173ffffffffffffffffffffffffffffffffffffffff168173ffffffffffffffffffffffffffffffffffffffff167f8be0079c531659141344cd1fd0a4f28419497f9722a3daafe3b4186f6b6457e060405160405180910390a35050565b600033905090565b604051806060016040528060608152602001600073ffffffffffffffffffffffffffffffffffffffff1681526020016000151581525090565b6000604051905090565b600080fd5b600080fd5b600073ffffffffffffffffffffffffffffffffffffffff82169050919050565b6000610ea382610e78565b9050919050565b610eb381610e98565b8114610ebe57600080fd5b50565b600081359050610ed081610eaa565b92915050565b600060208284031215610eec57610eeb610e6e565b5b6000610efa84828501610ec1565b91505092915050565b600063ffffffff82169050919050565b610f1c81610f03565b8114610f2757600080fd5b50565b600081359050610f3981610f13565b92915050565b600080fd5b600080fd5b6000601f19601f8301169050919050565b7f4e487b7100000000000000000000000000000000000000000000000000000000600052604160045260246000fd5b610f9282610f49565b810181811067ffffffffffffffff82111715610fb157610fb0610f5a565b5b80604052505050565b6000610fc4610e64565b9050610fd08282610f89565b919050565b600067ffffffffffffffff821115610ff057610fef610f5a565b5b610ff982610f49565b9050602081019050919050565b82818337600083830152505050565b600061102861102384610fd5565b610fba565b90508281526020810184848401111561104457611043610f44565b5b61104f848285611006565b509392505050565b600082601f83011261106c5761106b610f3f565b5b813561107c848260208601611015565b91505092915050565b6000806040838503121561109c5761109b610e6e565b5b60006110aa85828601610f2a565b925050602083013567ffffffffffffffff8111156110cb576110ca610e73565b5b6110d785828601611057565b9150509250929050565b6000819050919050565b6110f4816110e1565b81146110ff57600080fd5b50565b600081359050611111816110eb565b92915050565b6000806040838503121561112e5761112d610e6e565b5b600061113c85828601611102565b925050602061114d85828601611102565b9150509250929050565b600081519050919050565b600082825260208201905092915050565b6000819050602082019050919050565b600081519050919050565b600082825260208201905092915050565b60005b838110156111bd5780820151818401526020810190506111a2565b60008484015250505050565b60006111d482611183565b6111de818561118e565b93506111ee81856020860161119f565b6111f781610f49565b840191505092915050565b61120b81610e98565b82525050565b60008115159050919050565b61122681611211565b82525050565b6000606083016000830151848203600086015261124982826111c9565b915050602083015161125e6020860182611202565b506040830151611271604086018261121d565b508091505092915050565b6000611288838361122c565b905092915050565b6000602082019050919050565b60006112a882611157565b6112b28185611162565b9350836020820285016112c485611173565b8060005b8581101561130057848403895281516112e1858261127c565b94506112ec83611290565b925060208a019950506001810190506112c8565b50829750879550505050505092915050565b61131b816110e1565b82525050565b6000604082019050818103600083015261133b818561129d565b905061134a6020830184611312565b9392505050565b61135a81610e98565b82525050565b60006020820190506113756000830184611351565b92915050565b60008060006060848603121561139457611393610e6e565b5b600084013567ffffffffffffffff8111156113b2576113b1610e73565b5b6113be86828701611057565b935050602084013567ffffffffffffffff8111156113df576113de610e73565b5b6113eb86828701611057565b925050604084013567ffffffffffffffff81111561140c5761140b610e73565b5b61141886828701611057565b9150509250925092565b60008060006060848603121561143b5761143a610e6e565b5b600061144986828701610f2a565b935050602061145a86828701610ec1565b925050604061146b86828701610f2a565b9150509250925092565b60006020828403121561148b5761148a610e6e565b5b600061149984828501610f2a565b91505092915050565b600082825260208201905092915050565b60006114be82611183565b6114c881856114a2565b93506114d881856020860161119f565b6114e181610f49565b840191505092915050565b6114f581611211565b82525050565b6000606082019050818103600083015261151581866114b3565b90506115246020830185611351565b61153160408301846114ec565b949350505050565b6000819050919050565b600061155e61155961155484610e78565b611539565b610e78565b9050919050565b600061157082611543565b9050919050565b600061158282611565565b9050919050565b61159281611577565b82525050565b60006020820190506115ad6000830184611589565b92915050565b60006020820190506115c86000830184611312565b92915050565b7f4e487b7100000000000000000000000000000000000000000000000000000000600052603260045260246000fd5b7f4e487b7100000000000000000000000000000000000000000000000000000000600052602260045260246000fd5b6000600282049050600182168061164457607f821691505b602082108103611657576116566115fd565b5b50919050565b60008190508160005260206000209050919050565b60006020601f8301049050919050565b600082821b905092915050565b6000600883026116bf7fffffffffffffffffffffffffffffffffffffffffffffffffffffffffffffffff82611682565b6116c98683611682565b95508019841693508086168417925050509392505050565b60006116fc6116f76116f2846110e1565b611539565b6110e1565b9050919050565b6000819050919050565b611716836116e1565b61172a61172282611703565b84845461168f565b825550505050565b600090565b61173f611732565b61174a81848461170d565b505050565b5b8181101561176e57611763600082611737565b600181019050611750565b5050565b601f8211156117b3576117848161165d565b61178d84611672565b8101602085101561179c578190505b6117b06117a885611672565b83018261174f565b50505b505050565b600082821c905092915050565b60006117d6600019846008026117b8565b1980831691505092915050565b60006117ef83836117c5565b9150826002028217905092915050565b61180882611183565b67ffffffffffffffff81111561182157611820610f5a565b5b61182b825461162c565b611836828285611772565b600060209050601f8311600181146118695760008415611857578287015190505b61186185826117e3565b8655506118c9565b601f1984166118778661165d565b60005b8281101561189f5784890151825560018201915060208501945060208101905061187a565b868310156118bc57848901516118b8601f8916826117c5565b8355505b6001600288020188555050505b505050505050565b600060408201905081810360008301526118eb81856114b3565b905081810360208301526118ff81846114b3565b90509392505050565b7f706167652073697a65206d75737420626520706f736974697665000000000000600082015250565b600061193e601a836114a2565b915061194982611908565b602082019050919050565b6000602082019050818103600083015261196d81611931565b9050919050565b7f4e487b7100000000000000000000000000000000000000000000000000000000600052601160045260246000fd5b60006119ae826110e1565b91506119b9836110e1565b92508282019050808211156119d1576119d0611974565b5b92915050565b60006119e2826110e1565b91506119ed836110e1565b92508282026119fb816110e1565b91508282048414831517611a1257611a11611974565b5b5092915050565b6000611a24826110e1565b91507fffffffffffffffffffffffffffffffffffffffffffffffffffffffffffffffff8203611a5657611a55611974565b5b600182019050919050565b6000604082019050611a766000830185611351565b611a836020830184611351565b9392505050565b611a9381610f03565b82525050565b60006080820190508181036000830152611ab381876114b3565b90508181036020830152611ac781866114b3565b90508181036040830152611adb81856114b3565b9050611aea6060830184611a8a565b95945050505050565b600081519050611b0281610eaa565b92915050565b600060208284031215611b1e57611b1d610e6e565b5b6000611b2c84828501611af3565b91505092915050565b6000611b40826110e1565b9150611b4b836110e1565b9250828203905081811115611b6357611b62611974565b5b92915050565b6000606082019050611b7e6000830186611a8a565b611b8b6020830185611351565b8181036040830152611b9d81846114b3565b9050949350505050565b7f596f752063616e6e6f742072756e206164644578700000000000000000000000600082015250565b6000611bdd6015836114a2565b9150611be882611ba7565b602082019050919050565b60006020820190508181036000830152611c0c81611bd0565b9050919050565b6000604082019050611c286000830185611351565b611c356020830184611a8a565b9392505050565b7f4f776e61626c653a206e6577206f776e657220697320746865207a65726f206160008201527f6464726573730000000000000000000000000000000000000000000000000000602082015250565b6000611c986026836114a2565b9150611ca382611c3c565b604082019050919050565b60006020820190508181036000830152611cc781611c8b565b9050919050565b7f4f776e61626c653a2063616c6c6572206973206e6f7420746865206f776e6572600082015250565b6000611d046020836114a2565b9150611d0f82611cce565b602082019050919050565b60006020820190508181036000830152611d3381611cf7565b905091905056fea264697066735822122066f496513d65aaea356747f0496a88f950b5b23774404d3da9a4eff5b62e960564736f6c63430008110033",
  "linkReferences": {},
  "deployedLinkReferences": {}
}