{
  "_format": "hh-sol-artifact-1",
  "contractName": "CommunityPassportCreater",
  "sourceName": "contracts/CommunityPassportCreater.sol",
  "abi": [
    {
      "inputs": [
        {
          "internalType": "string",
          "name": "_name",
          "type": "string"
        },
        {
          "internalType": "string",
          "name": "_communityURI",
          "type": "string"
        },
        {
          "internalType": "string",
          "name": "_contructURI",
          "type": "string"
        },
        {
          "internalType": "uint32",
          "name": "communityId",
          "type": "uint32"
        }
      ],
      "name": "createCommunityPassport",
      "outputs": [
        {
          "internalType": "address",
          "name": "",
          "type": "address"
        }
      ],
      "stateMutability": "nonpayable",
      "type": "function"
    }
  ],
  "bytecode": "0x608060405234801561001057600080fd5b506159e0806100206000396000f3fe60806040523480156200001157600080fd5b50600436106200002e5760003560e01c806360f8a1591462000033575b600080fd5b6200005160048036038101906200004b91906200033d565b62000069565b60405162000060919062000451565b60405180910390f35b600080856040516020016200007f91906200050d565b6040516020818303038152906040529050600086604051602001620000a591906200055d565b604051602081830303815290604052905060008282888888604051620000cb9062000178565b620000db959493929190620005ea565b604051809103906000f080158015620000f8573d6000803e3d6000fd5b5090508073ffffffffffffffffffffffffffffffffffffffff1663f2fde38b336040518263ffffffff1660e01b815260040162000136919062000451565b600060405180830381600087803b1580156200015157600080fd5b505af115801562000166573d6000803e3d6000fd5b50505050809350505050949350505050565b615347806200066483390190565b6000604051905090565b600080fd5b600080fd5b600080fd5b600080fd5b6000601f19601f8301169050919050565b7f4e487b7100000000000000000000000000000000000000000000000000000000600052604160045260246000fd5b620001ef82620001a4565b810181811067ffffffffffffffff82111715620002115762000210620001b5565b5b80604052505050565b60006200022662000186565b9050620002348282620001e4565b919050565b600067ffffffffffffffff821115620002575762000256620001b5565b5b6200026282620001a4565b9050602081019050919050565b82818337600083830152505050565b6000620002956200028f8462000239565b6200021a565b905082815260208101848484011115620002b457620002b36200019f565b5b620002c18482856200026f565b509392505050565b600082601f830112620002e157620002e06200019a565b5b8135620002f38482602086016200027e565b91505092915050565b600063ffffffff82169050919050565b6200031781620002fc565b81146200032357600080fd5b50565b60008135905062000337816200030c565b92915050565b600080600080608085870312156200035a576200035962000190565b5b600085013567ffffffffffffffff8111156200037b576200037a62000195565b5b6200038987828801620002c9565b945050602085013567ffffffffffffffff811115620003ad57620003ac62000195565b5b620003bb87828801620002c9565b935050604085013567ffffffffffffffff811115620003df57620003de62000195565b5b620003ed87828801620002c9565b9250506060620004008782880162000326565b91505092959194509250565b600073ffffffffffffffffffffffffffffffffffffffff82169050919050565b600062000439826200040c565b9050919050565b6200044b816200042c565b82525050565b600060208201905062000468600083018462000440565b92915050565b600081519050919050565b600081905092915050565b60005b83811015620004a457808201518184015260208101905062000487565b60008484015250505050565b6000620004bd826200046e565b620004c9818562000479565b9350620004db81856020860162000484565b80840191505092915050565b7f2050617373706f72740000000000000000000000000000000000000000000000815250565b60006200051b8284620004b0565b91506200052882620004e7565b60098201915081905092915050565b7f2053425400000000000000000000000000000000000000000000000000000000815250565b60006200056b8284620004b0565b9150620005788262000537565b60048201915081905092915050565b600082825260208201905092915050565b6000620005a5826200046e565b620005b1818562000587565b9350620005c381856020860162000484565b620005ce81620001a4565b840191505092915050565b620005e481620002fc565b82525050565b600060a082019050818103600083015262000606818862000598565b905081810360208301526200061c818762000598565b9050818103604083015262000632818662000598565b9050818103606083015262000648818562000598565b9050620006596080830184620005d9565b969550505050505056fe60a06040523480156200001157600080fd5b506040516200534738038062005347833981810160405281019062000037919062000383565b8484600182826200005d62000051620000e360201b60201c565b620000eb60201b60201c565b81600190816200006e9190620006d2565b508060029081620000809190620006d2565b50505080600760006101000a81548160ff02191690831515021790555050505082600b9081620000b19190620006d2565b5081600c9081620000c39190620006d2565b508063ffffffff1660808163ffffffff16815250505050505050620007b9565b600033905090565b60008060009054906101000a900473ffffffffffffffffffffffffffffffffffffffff169050816000806101000a81548173ffffffffffffffffffffffffffffffffffffffff021916908373ffffffffffffffffffffffffffffffffffffffff1602179055508173ffffffffffffffffffffffffffffffffffffffff168173ffffffffffffffffffffffffffffffffffffffff167f8be0079c531659141344cd1fd0a4f28419497f9722a3daafe3b4186f6b6457e060405160405180910390a35050565b6000604051905090565b600080fd5b600080fd5b600080fd5b600080fd5b6000601f19601f8301169050919050565b7f4e487b7100000000000000000000000000000000000000000000000000000000600052604160045260246000fd5b6200021882620001cd565b810181811067ffffffffffffffff821117156200023a5762000239620001de565b5b80604052505050565b60006200024f620001af565b90506200025d82826200020d565b919050565b600067ffffffffffffffff82111562000280576200027f620001de565b5b6200028b82620001cd565b9050602081019050919050565b60005b83811015620002b85780820151818401526020810190506200029b565b60008484015250505050565b6000620002db620002d58462000262565b62000243565b905082815260208101848484011115620002fa57620002f9620001c8565b5b6200030784828562000298565b509392505050565b600082601f830112620003275762000326620001c3565b5b815162000339848260208601620002c4565b91505092915050565b600063ffffffff82169050919050565b6200035d8162000342565b81146200036957600080fd5b50565b6000815190506200037d8162000352565b92915050565b600080600080600060a08688031215620003a257620003a1620001b9565b5b600086015167ffffffffffffffff811115620003c357620003c2620001be565b5b620003d1888289016200030f565b955050602086015167ffffffffffffffff811115620003f557620003f4620001be565b5b62000403888289016200030f565b945050604086015167ffffffffffffffff811115620004275762000426620001be565b5b62000435888289016200030f565b935050606086015167ffffffffffffffff811115620004595762000458620001be565b5b62000467888289016200030f565b92505060806200047a888289016200036c565b9150509295509295909350565b600081519050919050565b7f4e487b7100000000000000000000000000000000000000000000000000000000600052602260045260246000fd5b60006002820490506001821680620004da57607f821691505b602082108103620004f057620004ef62000492565b5b50919050565b60008190508160005260206000209050919050565b60006020601f8301049050919050565b600082821b905092915050565b6000600883026200055a7fffffffffffffffffffffffffffffffffffffffffffffffffffffffffffffffff826200051b565b6200056686836200051b565b95508019841693508086168417925050509392505050565b6000819050919050565b6000819050919050565b6000620005b3620005ad620005a7846200057e565b62000588565b6200057e565b9050919050565b6000819050919050565b620005cf8362000592565b620005e7620005de82620005ba565b84845462000528565b825550505050565b600090565b620005fe620005ef565b6200060b818484620005c4565b505050565b5b81811015620006335762000627600082620005f4565b60018101905062000611565b5050565b601f82111562000682576200064c81620004f6565b62000657846200050b565b8101602085101562000667578190505b6200067f62000676856200050b565b83018262000610565b50505b505050565b600082821c905092915050565b6000620006a76000198460080262000687565b1980831691505092915050565b6000620006c2838362000694565b9150826002028217905092915050565b620006dd8262000487565b67ffffffffffffffff811115620006f957620006f8620001de565b5b620007058254620004c1565b6200071282828562000637565b600060209050601f8311600181146200074a576000841562000735578287015190505b620007418582620006b4565b865550620007b1565b601f1984166200075a86620004f6565b60005b8281101562000784578489015182556001820191506020850194506020810190506200075d565b86831015620007a45784890151620007a0601f89168262000694565b8355505b6001600288020188555050505b505050505050565b608051614b72620007d560003960006112df0152614b726000f3fe608060405234801561001057600080fd5b50600436106101f05760003560e01c806370a082311161010f578063a22cb465116100a2578063c87b56dd11610071578063c87b56dd146105b9578063e8a3d485146105e9578063e985e9c514610607578063f2fde38b14610637576101f0565b8063a22cb46514610521578063a47307251461053d578063b45a3c0e1461056d578063b88d4fde1461059d576101f0565b80638da5cb5b116100de5780638da5cb5b14610498578063938e3d7b146104b657806395d89b41146104d25780639a31b027146104f0576101f0565b806370a0823114610410578063715018a6146104405780637f50861a1461044a57806380f753fa14610468576101f0565b806351cf296a116101875780636352211e116101565780636352211e146103885780636871ee40146103b85780636c0360eb146103c25780636e4eb123146103e0576101f0565b806351cf296a146102ef57806355f804b31461030b57806357a5893c146103275780635c8dca3c14610357576101f0565b806318160ddd116101c357806318160ddd1461028f57806323b872dd146102ad57806342842e0e146102c957806344df8e70146102e5576101f0565b806301ffc9a7146101f557806306fdde0314610225578063081812fc14610243578063095ea7b314610273575b600080fd5b61020f600480360381019061020a91906130aa565b610653565b60405161021c91906130f2565b60405180910390f35b61022d6106cd565b60405161023a919061319d565b60405180910390f35b61025d600480360381019061025891906131f5565b61075f565b60405161026a9190613263565b60405180910390f35b61028d600480360381019061028891906132aa565b6107a5565b005b6102976107fa565b6040516102a491906132f9565b60405180910390f35b6102c760048036038101906102c29190613314565b610807565b005b6102e360048036038101906102de9190613314565b61085e565b005b6102ed6108b5565b005b610309600480360381019061030491906133a3565b6108d1565b005b61032560048036038101906103209190613518565b610a54565b005b610341600480360381019061033c9190613561565b610b50565b60405161034e9190613646565b60405180910390f35b610371600480360381019061036c9190613668565b610c99565b60405161037f929190613757565b60405180910390f35b6103a2600480360381019061039d91906131f5565b610e33565b6040516103af9190613263565b60405180910390f35b6103c0610eb9565b005b6103ca6110c0565b6040516103d7919061319d565b60405180910390f35b6103fa60048036038101906103f5919061384f565b61114e565b6040516104079190613956565b60405180910390f35b61042a60048036038101906104259190613561565b611212565b60405161043791906132f9565b60405180910390f35b6104486112c9565b005b6104526112dd565b60405161045f9190613987565b60405180910390f35b610482600480360381019061047d9190613561565b611301565b60405161048f91906132f9565b60405180910390f35b6104a0611334565b6040516104ad9190613263565b60405180910390f35b6104d060048036038101906104cb9190613518565b61135d565b005b6104da611458565b6040516104e7919061319d565b60405180910390f35b61050a60048036038101906105059190613668565b6114ea565b604051610518929190613ab4565b60405180910390f35b61053b60048036038101906105369190613b10565b611799565b005b61055760048036038101906105529190613561565b6117ee565b604051610564919061319d565b60405180910390f35b610587600480360381019061058291906131f5565b611808565b60405161059491906130f2565b60405180910390f35b6105b760048036038101906105b29190613bf1565b611860565b005b6105d360048036038101906105ce91906131f5565b6118b9565b6040516105e0919061319d565b60405180910390f35b6105f16119aa565b6040516105fe919061319d565b60405180910390f35b610621600480360381019061061c9190613c74565b611a3c565b60405161062e91906130f2565b60405180910390f35b610651600480360381019061064c9190613561565b611ad0565b005b60007fb45a3c0e000000000000000000000000000000000000000000000000000000007bffffffffffffffffffffffffffffffffffffffffffffffffffffffff1916827bffffffffffffffffffffffffffffffffffffffffffffffffffffffff191614806106c657506106c582611b53565b5b9050919050565b6060600180546106dc90613ce3565b80601f016020809104026020016040519081016040528092919081815260200182805461070890613ce3565b80156107555780601f1061072a57610100808354040283529160200191610755565b820191906000526020600020905b81548152906001019060200180831161073857829003601f168201915b5050505050905090565b600061076a82611c35565b6005600083815260200190815260200160002060009054906101000a900473ffffffffffffffffffffffffffffffffffffffff169050919050565b600760009054906101000a900460ff16156107ec576040517fbd291a9500000000000000000000000000000000000000000000000000000000815260040160405180910390fd5b6107f68282611c80565b5050565b6000600980549050905090565b600760009054906101000a900460ff161561084e576040517fbd291a9500000000000000000000000000000000000000000000000000000000815260040160405180910390fd5b610859838383611d97565b505050565b600760009054906101000a900460ff16156108a5576040517fbd291a9500000000000000000000000000000000000000000000000000000000815260040160405180910390fd5b6108b0838383611df7565b505050565b6108c66108c133611301565b611e17565b6108cf33611f65565b565b6108d961212d565b60006108e483611301565b90506108ef816121ab565b61092e576040517f08c379a000000000000000000000000000000000000000000000000000000000815260040161092590613d60565b60405180910390fd5b60006008600083815260200190815260200160002060010160149054906101000a900463ffffffff169050826008600084815260200190815260200160002060010160149054906101000a900463ffffffff1661098b9190613daf565b6008600084815260200190815260200160002060010160146101000a81548163ffffffff021916908363ffffffff1602179055508373ffffffffffffffffffffffffffffffffffffffff163373ffffffffffffffffffffffffffffffffffffffff167fc0d9509a5ec1a064cf962bd43cb5c96174ee6c9c7333d3a682e12bf6538d702984846008600088815260200190815260200160002060010160149054906101000a900463ffffffff16604051610a4693929190613de7565b60405180910390a350505050565b610a5c61212d565b6000600b8054610a6b90613ce3565b80601f0160208091040260200160405190810160405280929190818152602001828054610a9790613ce3565b8015610ae45780601f10610ab957610100808354040283529160200191610ae4565b820191906000526020600020905b815481529060010190602001808311610ac757829003601f168201915b5050505050905081600b9081610afa9190613fca565b503373ffffffffffffffffffffffffffffffffffffffff167f888a419ed9f083c91d256876ad4b9675c6c232a73698e8f808b596fbf873758782600b604051610b44929190614120565b60405180910390a25050565b610b58613001565b6000610b6383611301565b905060086000828152602001908152602001600020604051806060016040529081600082018054610b9390613ce3565b80601f0160208091040260200160405190810160405280929190818152602001828054610bbf90613ce3565b8015610c0c5780601f10610be157610100808354040283529160200191610c0c565b820191906000526020600020905b815481529060010190602001808311610bef57829003601f168201915b505050505081526020016001820160009054906101000a900473ffffffffffffffffffffffffffffffffffffffff1673ffffffffffffffffffffffffffffffffffffffff1673ffffffffffffffffffffffffffffffffffffffff1681526020016001820160149054906101000a900463ffffffff1663ffffffff1663ffffffff1681525050915050919050565b60606000808311610cdf576040517f08c379a0000000000000000000000000000000000000000000000000000000008152600401610cd6906141a3565b60405180910390fd5b600083905060098054905084600187610cf891906141c3565b610d0291906141f7565b1115610d115760098054905090505b60008167ffffffffffffffff811115610d2d57610d2c6133ed565b5b604051908082528060200260200182016040528015610d5b5781602001602082028036833780820191505090505b50905060005b82811015610e1e576009818789610d7891906141f7565b610d8291906141c3565b81548110610d9357610d92614239565b5b9060005260206000200160009054906101000a900473ffffffffffffffffffffffffffffffffffffffff16828281518110610dd157610dd0614239565b5b602002602001019073ffffffffffffffffffffffffffffffffffffffff16908173ffffffffffffffffffffffffffffffffffffffff16815250508080610e1690614268565b915050610d61565b50806009805490509350935050509250929050565b600080610e3f836121ec565b9050600073ffffffffffffffffffffffffffffffffffffffff168173ffffffffffffffffffffffffffffffffffffffff1603610eb0576040517f08c379a0000000000000000000000000000000000000000000000000000000008152600401610ea7906142fc565b60405180910390fd5b80915050919050565b600073ffffffffffffffffffffffffffffffffffffffff1660086000610ede33611301565b815260200190815260200160002060010160009054906101000a900473ffffffffffffffffffffffffffffffffffffffff1673ffffffffffffffffffffffffffffffffffffffff16036110a357610f33613001565b600b8054610f4090613ce3565b80601f0160208091040260200160405190810160405280929190818152602001828054610f6c90613ce3565b8015610fb95780601f10610f8e57610100808354040283529160200191610fb9565b820191906000526020600020905b815481529060010190602001808311610f9c57829003601f168201915b5050505050816000018190525033816020019073ffffffffffffffffffffffffffffffffffffffff16908173ffffffffffffffffffffffffffffffffffffffff1681525050806008600061100c33611301565b8152602001908152602001600020600082015181600001908161102f9190613fca565b5060208201518160010160006101000a81548173ffffffffffffffffffffffffffffffffffffffff021916908373ffffffffffffffffffffffffffffffffffffffff16021790555060408201518160010160146101000a81548163ffffffff021916908363ffffffff160217905550905050505b6110b5336110b033611301565b612229565b6110be33612247565b565b600b80546110cd90613ce3565b80601f01602080910402602001604051908101604052809291908181526020018280546110f990613ce3565b80156111465780601f1061111b57610100808354040283529160200191611146565b820191906000526020600020905b81548152906001019060200180831161112957829003601f168201915b505050505081565b60606000825167ffffffffffffffff81111561116d5761116c6133ed565b5b60405190808252806020026020018201604052801561119b5781602001602082028036833780820191505090505b50905060005b83518110156112085760006111cf8583815181106111c2576111c1614239565b5b6020026020010151611212565b118282815181106111e3576111e2614239565b5b602002602001019015159081151581525050808061120090614268565b9150506111a1565b5080915050919050565b60008073ffffffffffffffffffffffffffffffffffffffff168273ffffffffffffffffffffffffffffffffffffffff1603611282576040517f08c379a00000000000000000000000000000000000000000000000000000000081526004016112799061438e565b60405180910390fd5b600460008373ffffffffffffffffffffffffffffffffffffffff1673ffffffffffffffffffffffffffffffffffffffff168152602001908152602001600020549050919050565b6112d161212d565b6112db60006122f6565b565b7f000000000000000000000000000000000000000000000000000000000000000081565b60008160405160200161131491906143f6565b6040516020818303038152906040528051906020012060001c9050919050565b60008060009054906101000a900473ffffffffffffffffffffffffffffffffffffffff16905090565b61136561212d565b6000600c805461137490613ce3565b80601f01602080910402602001604051908101604052809291908181526020018280546113a090613ce3565b80156113ed5780601f106113c2576101008083540402835291602001916113ed565b820191906000526020600020905b8154815290600101906020018083116113d057829003601f168201915b5050505050905081600c90816114039190613fca565b503373ffffffffffffffffffffffffffffffffffffffff167fcffccbb0229517f0ef8bebda90df6035fa3050b63b8686e03f7c62622944b522828460405161144c929190614411565b60405180910390a25050565b60606002805461146790613ce3565b80601f016020809104026020016040519081016040528092919081815260200182805461149390613ce3565b80156114e05780601f106114b5576101008083540402835291602001916114e0565b820191906000526020600020905b8154815290600101906020018083116114c357829003601f168201915b5050505050905090565b60606000808311611530576040517f08c379a0000000000000000000000000000000000000000000000000000000008152600401611527906141a3565b60405180910390fd5b60008390506009805490508460018761154991906141c3565b61155391906141f7565b11156115625760098054905090505b60008167ffffffffffffffff81111561157e5761157d6133ed565b5b6040519080825280602002602001820160405280156115b757816020015b6115a4613001565b81526020019060019003908161159c5790505b50905060005b82811015611784576000611624600983898b6115d991906141f7565b6115e391906141c3565b815481106115f4576115f3614239565b5b9060005260206000200160009054906101000a900473ffffffffffffffffffffffffffffffffffffffff16611301565b90506008600082815260200190815260200160002060405180606001604052908160008201805461165490613ce3565b80601f016020809104026020016040519081016040528092919081815260200182805461168090613ce3565b80156116cd5780601f106116a2576101008083540402835291602001916116cd565b820191906000526020600020905b8154815290600101906020018083116116b057829003601f168201915b505050505081526020016001820160009054906101000a900473ffffffffffffffffffffffffffffffffffffffff1673ffffffffffffffffffffffffffffffffffffffff1673ffffffffffffffffffffffffffffffffffffffff1681526020016001820160149054906101000a900463ffffffff1663ffffffff1663ffffffff168152505083838151811061176557611764614239565b5b602002602001018190525050808061177c90614268565b9150506115bd565b50806009805490509350935050509250929050565b600760009054906101000a900460ff16156117e0576040517fbd291a9500000000000000000000000000000000000000000000000000000000815260040160405180910390fd5b6117ea82826123ba565b5050565b60606118016117fc83611301565b6118b9565b9050919050565b6000611813826121ab565b611849576040517fae9a63f500000000000000000000000000000000000000000000000000000000815260040160405180910390fd5b600760009054906101000a900460ff169050919050565b600760009054906101000a900460ff16156118a7576040517fbd291a9500000000000000000000000000000000000000000000000000000000815260040160405180910390fd5b6118b3848484846123d0565b50505050565b60606118c482611c35565b60006008600084815260200190815260200160002060000180546118e790613ce3565b90501161190357604051806020016040528060008152506119a3565b60086000838152602001908152602001600020600001805461192490613ce3565b80601f016020809104026020016040519081016040528092919081815260200182805461195090613ce3565b801561199d5780601f106119725761010080835404028352916020019161199d565b820191906000526020600020905b81548152906001019060200180831161198057829003601f168201915b50505050505b9050919050565b6060600c80546119b990613ce3565b80601f01602080910402602001604051908101604052809291908181526020018280546119e590613ce3565b8015611a325780601f10611a0757610100808354040283529160200191611a32565b820191906000526020600020905b815481529060010190602001808311611a1557829003601f168201915b5050505050905090565b6000600660008473ffffffffffffffffffffffffffffffffffffffff1673ffffffffffffffffffffffffffffffffffffffff16815260200190815260200160002060008373ffffffffffffffffffffffffffffffffffffffff1673ffffffffffffffffffffffffffffffffffffffff16815260200190815260200160002060009054906101000a900460ff16905092915050565b611ad861212d565b600073ffffffffffffffffffffffffffffffffffffffff168173ffffffffffffffffffffffffffffffffffffffff1603611b47576040517f08c379a0000000000000000000000000000000000000000000000000000000008152600401611b3e906144ba565b60405180910390fd5b611b50816122f6565b50565b60007f80ac58cd000000000000000000000000000000000000000000000000000000007bffffffffffffffffffffffffffffffffffffffffffffffffffffffff1916827bffffffffffffffffffffffffffffffffffffffffffffffffffffffff19161480611c1e57507f5b5e139f000000000000000000000000000000000000000000000000000000007bffffffffffffffffffffffffffffffffffffffffffffffffffffffff1916827bffffffffffffffffffffffffffffffffffffffffffffffffffffffff1916145b80611c2e5750611c2d82612432565b5b9050919050565b611c3e816121ab565b611c7d576040517f08c379a0000000000000000000000000000000000000000000000000000000008152600401611c74906142fc565b60405180910390fd5b50565b6000611c8b82610e33565b90508073ffffffffffffffffffffffffffffffffffffffff168373ffffffffffffffffffffffffffffffffffffffff1603611cfb576040517f08c379a0000000000000000000000000000000000000000000000000000000008152600401611cf29061454c565b60405180910390fd5b8073ffffffffffffffffffffffffffffffffffffffff16611d1a61249c565b73ffffffffffffffffffffffffffffffffffffffff161480611d495750611d4881611d4361249c565b611a3c565b5b611d88576040517f08c379a0000000000000000000000000000000000000000000000000000000008152600401611d7f906145de565b60405180910390fd5b611d9283836124a4565b505050565b611da8611da261249c565b8261255d565b611de7576040517f08c379a0000000000000000000000000000000000000000000000000000000008152600401611dde90614670565b60405180910390fd5b611df28383836125f2565b505050565b611e1283838360405180602001604052806000815250611860565b505050565b6000611e2282610e33565b9050611e328160008460016128eb565b611e3b82610e33565b90506005600083815260200190815260200160002060006101000a81549073ffffffffffffffffffffffffffffffffffffffff02191690556001600460008373ffffffffffffffffffffffffffffffffffffffff1673ffffffffffffffffffffffffffffffffffffffff168152602001908152602001600020600082825403925050819055506003600083815260200190815260200160002060006101000a81549073ffffffffffffffffffffffffffffffffffffffff021916905581600073ffffffffffffffffffffffffffffffffffffffff168273ffffffffffffffffffffffffffffffffffffffff167fddf252ad1be2c89b69c2b068fc378daa952ba7f163c4a11628f55a4df523b3ef60405160405180910390a4611f61816000846001612a11565b5050565b6000600a60008373ffffffffffffffffffffffffffffffffffffffff1673ffffffffffffffffffffffffffffffffffffffff168152602001908152602001600020549050600060096001600980549050611fbf9190614690565b81548110611fd057611fcf614239565b5b9060005260206000200160009054906101000a900473ffffffffffffffffffffffffffffffffffffffff169050806009838154811061201257612011614239565b5b9060005260206000200160006101000a81548173ffffffffffffffffffffffffffffffffffffffff021916908373ffffffffffffffffffffffffffffffffffffffff16021790555081600a60008373ffffffffffffffffffffffffffffffffffffffff1673ffffffffffffffffffffffffffffffffffffffff1681526020019081526020016000208190555060098054806120b0576120af6146c4565b5b6001900381819060005260206000200160006101000a81549073ffffffffffffffffffffffffffffffffffffffff02191690559055600a60008473ffffffffffffffffffffffffffffffffffffffff1673ffffffffffffffffffffffffffffffffffffffff16815260200190815260200160002060009055505050565b61213561249c565b73ffffffffffffffffffffffffffffffffffffffff16612153611334565b73ffffffffffffffffffffffffffffffffffffffff16146121a9576040517f08c379a00000000000000000000000000000000000000000000000000000000081526004016121a09061473f565b60405180910390fd5b565b60008073ffffffffffffffffffffffffffffffffffffffff166121cd836121ec565b73ffffffffffffffffffffffffffffffffffffffff1614159050919050565b60006003600083815260200190815260200160002060009054906101000a900473ffffffffffffffffffffffffffffffffffffffff169050919050565b612243828260405180602001604052806000815250612a17565b5050565b600980549050600a60008373ffffffffffffffffffffffffffffffffffffffff1673ffffffffffffffffffffffffffffffffffffffff168152602001908152602001600020819055506009339080600181540180825580915050600190039060005260206000200160009091909190916101000a81548173ffffffffffffffffffffffffffffffffffffffff021916908373ffffffffffffffffffffffffffffffffffffffff16021790555050565b60008060009054906101000a900473ffffffffffffffffffffffffffffffffffffffff169050816000806101000a81548173ffffffffffffffffffffffffffffffffffffffff021916908373ffffffffffffffffffffffffffffffffffffffff1602179055508173ffffffffffffffffffffffffffffffffffffffff168173ffffffffffffffffffffffffffffffffffffffff167f8be0079c531659141344cd1fd0a4f28419497f9722a3daafe3b4186f6b6457e060405160405180910390a35050565b6123cc6123c561249c565b8383612a72565b5050565b6123e16123db61249c565b8361255d565b612420576040517f08c379a000000000000000000000000000000000000000000000000000000000815260040161241790614670565b60405180910390fd5b61242c84848484612bde565b50505050565b60007f01ffc9a7000000000000000000000000000000000000000000000000000000007bffffffffffffffffffffffffffffffffffffffffffffffffffffffff1916827bffffffffffffffffffffffffffffffffffffffffffffffffffffffff1916149050919050565b600033905090565b816005600083815260200190815260200160002060006101000a81548173ffffffffffffffffffffffffffffffffffffffff021916908373ffffffffffffffffffffffffffffffffffffffff160217905550808273ffffffffffffffffffffffffffffffffffffffff1661251783610e33565b73ffffffffffffffffffffffffffffffffffffffff167f8c5be1e5ebec7d5bd14f71427d1e84f3dd0314c0f7b2291e5b200ac8c7c3b92560405160405180910390a45050565b60008061256983610e33565b90508073ffffffffffffffffffffffffffffffffffffffff168473ffffffffffffffffffffffffffffffffffffffff1614806125ab57506125aa8185611a3c565b5b806125e957508373ffffffffffffffffffffffffffffffffffffffff166125d18461075f565b73ffffffffffffffffffffffffffffffffffffffff16145b91505092915050565b8273ffffffffffffffffffffffffffffffffffffffff1661261282610e33565b73ffffffffffffffffffffffffffffffffffffffff1614612668576040517f08c379a000000000000000000000000000000000000000000000000000000000815260040161265f906147d1565b60405180910390fd5b600073ffffffffffffffffffffffffffffffffffffffff168273ffffffffffffffffffffffffffffffffffffffff16036126d7576040517f08c379a00000000000000000000000000000000000000000000000000000000081526004016126ce90614863565b60405180910390fd5b6126e483838360016128eb565b8273ffffffffffffffffffffffffffffffffffffffff1661270482610e33565b73ffffffffffffffffffffffffffffffffffffffff161461275a576040517f08c379a0000000000000000000000000000000000000000000000000000000008152600401612751906147d1565b60405180910390fd5b6005600082815260200190815260200160002060006101000a81549073ffffffffffffffffffffffffffffffffffffffff02191690556001600460008573ffffffffffffffffffffffffffffffffffffffff1673ffffffffffffffffffffffffffffffffffffffff168152602001908152602001600020600082825403925050819055506001600460008473ffffffffffffffffffffffffffffffffffffffff1673ffffffffffffffffffffffffffffffffffffffff16815260200190815260200160002060008282540192505081905550816003600083815260200190815260200160002060006101000a81548173ffffffffffffffffffffffffffffffffffffffff021916908373ffffffffffffffffffffffffffffffffffffffff160217905550808273ffffffffffffffffffffffffffffffffffffffff168473ffffffffffffffffffffffffffffffffffffffff167fddf252ad1be2c89b69c2b068fc378daa952ba7f163c4a11628f55a4df523b3ef60405160405180910390a46128e68383836001612a11565b505050565b6001811115612a0b57600073ffffffffffffffffffffffffffffffffffffffff168473ffffffffffffffffffffffffffffffffffffffff161461297f5780600460008673ffffffffffffffffffffffffffffffffffffffff1673ffffffffffffffffffffffffffffffffffffffff16815260200190815260200160002060008282546129779190614690565b925050819055505b600073ffffffffffffffffffffffffffffffffffffffff168373ffffffffffffffffffffffffffffffffffffffff1614612a0a5780600460008573ffffffffffffffffffffffffffffffffffffffff1673ffffffffffffffffffffffffffffffffffffffff1681526020019081526020016000206000828254612a0291906141c3565b925050819055505b5b50505050565b50505050565b612a218383612c3a565b612a2e6000848484612e57565b612a6d576040517f08c379a0000000000000000000000000000000000000000000000000000000008152600401612a64906148f5565b60405180910390fd5b505050565b8173ffffffffffffffffffffffffffffffffffffffff168373ffffffffffffffffffffffffffffffffffffffff1603612ae0576040517f08c379a0000000000000000000000000000000000000000000000000000000008152600401612ad790614961565b60405180910390fd5b80600660008573ffffffffffffffffffffffffffffffffffffffff1673ffffffffffffffffffffffffffffffffffffffff16815260200190815260200160002060008473ffffffffffffffffffffffffffffffffffffffff1673ffffffffffffffffffffffffffffffffffffffff16815260200190815260200160002060006101000a81548160ff0219169083151502179055508173ffffffffffffffffffffffffffffffffffffffff168373ffffffffffffffffffffffffffffffffffffffff167f17307eab39ab6107e8899845ad3d59bd9653f200f220920489ca2b5937696c3183604051612bd191906130f2565b60405180910390a3505050565b612be98484846125f2565b612bf584848484612e57565b612c34576040517f08c379a0000000000000000000000000000000000000000000000000000000008152600401612c2b906148f5565b60405180910390fd5b50505050565b600073ffffffffffffffffffffffffffffffffffffffff168273ffffffffffffffffffffffffffffffffffffffff1603612ca9576040517f08c379a0000000000000000000000000000000000000000000000000000000008152600401612ca0906149cd565b60405180910390fd5b612cb2816121ab565b15612cf2576040517f08c379a0000000000000000000000000000000000000000000000000000000008152600401612ce990614a39565b60405180910390fd5b612d006000838360016128eb565b612d09816121ab565b15612d49576040517f08c379a0000000000000000000000000000000000000000000000000000000008152600401612d4090614a39565b60405180910390fd5b6001600460008473ffffffffffffffffffffffffffffffffffffffff1673ffffffffffffffffffffffffffffffffffffffff16815260200190815260200160002060008282540192505081905550816003600083815260200190815260200160002060006101000a81548173ffffffffffffffffffffffffffffffffffffffff021916908373ffffffffffffffffffffffffffffffffffffffff160217905550808273ffffffffffffffffffffffffffffffffffffffff16600073ffffffffffffffffffffffffffffffffffffffff167fddf252ad1be2c89b69c2b068fc378daa952ba7f163c4a11628f55a4df523b3ef60405160405180910390a4612e53600083836001612a11565b5050565b6000612e788473ffffffffffffffffffffffffffffffffffffffff16612fde565b15612fd1578373ffffffffffffffffffffffffffffffffffffffff1663150b7a02612ea161249c565b8786866040518563ffffffff1660e01b8152600401612ec39493929190614aae565b6020604051808303816000875af1925050508015612eff57506040513d601f19601f82011682018060405250810190612efc9190614b0f565b60015b612f81573d8060008114612f2f576040519150601f19603f3d011682016040523d82523d6000602084013e612f34565b606091505b506000815103612f79576040517f08c379a0000000000000000000000000000000000000000000000000000000008152600401612f70906148f5565b60405180910390fd5b805181602001fd5b63150b7a0260e01b7bffffffffffffffffffffffffffffffffffffffffffffffffffffffff1916817bffffffffffffffffffffffffffffffffffffffffffffffffffffffff191614915050612fd6565b600190505b949350505050565b6000808273ffffffffffffffffffffffffffffffffffffffff163b119050919050565b604051806060016040528060608152602001600073ffffffffffffffffffffffffffffffffffffffff168152602001600063ffffffff1681525090565b6000604051905090565b600080fd5b600080fd5b60007fffffffff0000000000000000000000000000000000000000000000000000000082169050919050565b61308781613052565b811461309257600080fd5b50565b6000813590506130a48161307e565b92915050565b6000602082840312156130c0576130bf613048565b5b60006130ce84828501613095565b91505092915050565b60008115159050919050565b6130ec816130d7565b82525050565b600060208201905061310760008301846130e3565b92915050565b600081519050919050565b600082825260208201905092915050565b60005b8381101561314757808201518184015260208101905061312c565b60008484015250505050565b6000601f19601f8301169050919050565b600061316f8261310d565b6131798185613118565b9350613189818560208601613129565b61319281613153565b840191505092915050565b600060208201905081810360008301526131b78184613164565b905092915050565b6000819050919050565b6131d2816131bf565b81146131dd57600080fd5b50565b6000813590506131ef816131c9565b92915050565b60006020828403121561320b5761320a613048565b5b6000613219848285016131e0565b91505092915050565b600073ffffffffffffffffffffffffffffffffffffffff82169050919050565b600061324d82613222565b9050919050565b61325d81613242565b82525050565b60006020820190506132786000830184613254565b92915050565b61328781613242565b811461329257600080fd5b50565b6000813590506132a48161327e565b92915050565b600080604083850312156132c1576132c0613048565b5b60006132cf85828601613295565b92505060206132e0858286016131e0565b9150509250929050565b6132f3816131bf565b82525050565b600060208201905061330e60008301846132ea565b92915050565b60008060006060848603121561332d5761332c613048565b5b600061333b86828701613295565b935050602061334c86828701613295565b925050604061335d868287016131e0565b9150509250925092565b600063ffffffff82169050919050565b61338081613367565b811461338b57600080fd5b50565b60008135905061339d81613377565b92915050565b600080604083850312156133ba576133b9613048565b5b60006133c885828601613295565b92505060206133d98582860161338e565b9150509250929050565b600080fd5b600080fd5b7f4e487b7100000000000000000000000000000000000000000000000000000000600052604160045260246000fd5b61342582613153565b810181811067ffffffffffffffff82111715613444576134436133ed565b5b80604052505050565b600061345761303e565b9050613463828261341c565b919050565b600067ffffffffffffffff821115613483576134826133ed565b5b61348c82613153565b9050602081019050919050565b82818337600083830152505050565b60006134bb6134b684613468565b61344d565b9050828152602081018484840111156134d7576134d66133e8565b5b6134e2848285613499565b509392505050565b600082601f8301126134ff576134fe6133e3565b5b813561350f8482602086016134a8565b91505092915050565b60006020828403121561352e5761352d613048565b5b600082013567ffffffffffffffff81111561354c5761354b61304d565b5b613558848285016134ea565b91505092915050565b60006020828403121561357757613576613048565b5b600061358584828501613295565b91505092915050565b600082825260208201905092915050565b60006135aa8261310d565b6135b4818561358e565b93506135c4818560208601613129565b6135cd81613153565b840191505092915050565b6135e181613242565b82525050565b6135f081613367565b82525050565b60006060830160008301518482036000860152613613828261359f565b915050602083015161362860208601826135d8565b50604083015161363b60408601826135e7565b508091505092915050565b6000602082019050818103600083015261366081846135f6565b905092915050565b6000806040838503121561367f5761367e613048565b5b600061368d858286016131e0565b925050602061369e858286016131e0565b9150509250929050565b600081519050919050565b600082825260208201905092915050565b6000819050602082019050919050565b60006136e083836135d8565b60208301905092915050565b6000602082019050919050565b6000613704826136a8565b61370e81856136b3565b9350613719836136c4565b8060005b8381101561374a57815161373188826136d4565b975061373c836136ec565b92505060018101905061371d565b5085935050505092915050565b6000604082019050818103600083015261377181856136f9565b905061378060208301846132ea565b9392505050565b600067ffffffffffffffff8211156137a2576137a16133ed565b5b602082029050602081019050919050565b600080fd5b60006137cb6137c684613787565b61344d565b905080838252602082019050602084028301858111156137ee576137ed6137b3565b5b835b8181101561381757806138038882613295565b8452602084019350506020810190506137f0565b5050509392505050565b600082601f830112613836576138356133e3565b5b81356138468482602086016137b8565b91505092915050565b60006020828403121561386557613864613048565b5b600082013567ffffffffffffffff8111156138835761388261304d565b5b61388f84828501613821565b91505092915050565b600081519050919050565b600082825260208201905092915050565b6000819050602082019050919050565b6138cd816130d7565b82525050565b60006138df83836138c4565b60208301905092915050565b6000602082019050919050565b600061390382613898565b61390d81856138a3565b9350613918836138b4565b8060005b8381101561394957815161393088826138d3565b975061393b836138eb565b92505060018101905061391c565b5085935050505092915050565b6000602082019050818103600083015261397081846138f8565b905092915050565b61398181613367565b82525050565b600060208201905061399c6000830184613978565b92915050565b600081519050919050565b600082825260208201905092915050565b6000819050602082019050919050565b600060608301600083015184820360008601526139eb828261359f565b9150506020830151613a0060208601826135d8565b506040830151613a1360408601826135e7565b508091505092915050565b6000613a2a83836139ce565b905092915050565b6000602082019050919050565b6000613a4a826139a2565b613a5481856139ad565b935083602082028501613a66856139be565b8060005b85811015613aa25784840389528151613a838582613a1e565b9450613a8e83613a32565b925060208a01995050600181019050613a6a565b50829750879550505050505092915050565b60006040820190508181036000830152613ace8185613a3f565b9050613add60208301846132ea565b9392505050565b613aed816130d7565b8114613af857600080fd5b50565b600081359050613b0a81613ae4565b92915050565b60008060408385031215613b2757613b26613048565b5b6000613b3585828601613295565b9250506020613b4685828601613afb565b9150509250929050565b600067ffffffffffffffff821115613b6b57613b6a6133ed565b5b613b7482613153565b9050602081019050919050565b6000613b94613b8f84613b50565b61344d565b905082815260208101848484011115613bb057613baf6133e8565b5b613bbb848285613499565b509392505050565b600082601f830112613bd857613bd76133e3565b5b8135613be8848260208601613b81565b91505092915050565b60008060008060808587031215613c0b57613c0a613048565b5b6000613c1987828801613295565b9450506020613c2a87828801613295565b9350506040613c3b878288016131e0565b925050606085013567ffffffffffffffff811115613c5c57613c5b61304d565b5b613c6887828801613bc3565b91505092959194509250565b60008060408385031215613c8b57613c8a613048565b5b6000613c9985828601613295565b9250506020613caa85828601613295565b9150509250929050565b7f4e487b7100000000000000000000000000000000000000000000000000000000600052602260045260246000fd5b60006002820490506001821680613cfb57607f821691505b602082108103613d0e57613d0d613cb4565b5b50919050565b7f5468697320746f6b656e20646f65736e27742065786973740000000000000000600082015250565b6000613d4a601883613118565b9150613d5582613d14565b602082019050919050565b60006020820190508181036000830152613d7981613d3d565b9050919050565b7f4e487b7100000000000000000000000000000000000000000000000000000000600052601160045260246000fd5b6000613dba82613367565b9150613dc583613367565b9250828201905063ffffffff811115613de157613de0613d80565b5b92915050565b6000606082019050613dfc60008301866132ea565b613e096020830185613978565b613e166040830184613978565b949350505050565b60008190508160005260206000209050919050565b60006020601f8301049050919050565b600082821b905092915050565b600060088302613e807fffffffffffffffffffffffffffffffffffffffffffffffffffffffffffffffff82613e43565b613e8a8683613e43565b95508019841693508086168417925050509392505050565b6000819050919050565b6000613ec7613ec2613ebd846131bf565b613ea2565b6131bf565b9050919050565b6000819050919050565b613ee183613eac565b613ef5613eed82613ece565b848454613e50565b825550505050565b600090565b613f0a613efd565b613f15818484613ed8565b505050565b5b81811015613f3957613f2e600082613f02565b600181019050613f1b565b5050565b601f821115613f7e57613f4f81613e1e565b613f5884613e33565b81016020851015613f67578190505b613f7b613f7385613e33565b830182613f1a565b50505b505050565b600082821c905092915050565b6000613fa160001984600802613f83565b1980831691505092915050565b6000613fba8383613f90565b9150826002028217905092915050565b613fd38261310d565b67ffffffffffffffff811115613fec57613feb6133ed565b5b613ff68254613ce3565b614001828285613f3d565b600060209050601f8311600181146140345760008415614022578287015190505b61402c8582613fae565b865550614094565b601f19841661404286613e1e565b60005b8281101561406a57848901518255600182019150602085019450602081019050614045565b868310156140875784890151614083601f891682613f90565b8355505b6001600288020188555050505b505050505050565b600081546140a981613ce3565b6140b38186613118565b945060018216600081146140ce57600181146140e457614117565b60ff198316865281151560200286019350614117565b6140ed85613e1e565b60005b8381101561410f578154818901526001820191506020810190506140f0565b808801955050505b50505092915050565b6000604082019050818103600083015261413a8185613164565b9050818103602083015261414e818461409c565b90509392505050565b7f706167652073697a65206d75737420626520706f736974697665000000000000600082015250565b600061418d601a83613118565b915061419882614157565b602082019050919050565b600060208201905081810360008301526141bc81614180565b9050919050565b60006141ce826131bf565b91506141d9836131bf565b92508282019050808211156141f1576141f0613d80565b5b92915050565b6000614202826131bf565b915061420d836131bf565b925082820261421b816131bf565b9150828204841483151761423257614231613d80565b5b5092915050565b7f4e487b7100000000000000000000000000000000000000000000000000000000600052603260045260246000fd5b6000614273826131bf565b91507fffffffffffffffffffffffffffffffffffffffffffffffffffffffffffffffff82036142a5576142a4613d80565b5b600182019050919050565b7f4552433732313a20696e76616c696420746f6b656e2049440000000000000000600082015250565b60006142e6601883613118565b91506142f1826142b0565b602082019050919050565b60006020820190508181036000830152614315816142d9565b9050919050565b7f4552433732313a2061646472657373207a65726f206973206e6f74206120766160008201527f6c6964206f776e65720000000000000000000000000000000000000000000000602082015250565b6000614378602983613118565b91506143838261431c565b604082019050919050565b600060208201905081810360008301526143a78161436b565b9050919050565b60008160601b9050919050565b60006143c6826143ae565b9050919050565b60006143d8826143bb565b9050919050565b6143f06143eb82613242565b6143cd565b82525050565b600061440282846143df565b60148201915081905092915050565b6000604082019050818103600083015261442b8185613164565b9050818103602083015261443f8184613164565b90509392505050565b7f4f776e61626c653a206e6577206f776e657220697320746865207a65726f206160008201527f6464726573730000000000000000000000000000000000000000000000000000602082015250565b60006144a4602683613118565b91506144af82614448565b604082019050919050565b600060208201905081810360008301526144d381614497565b9050919050565b7f4552433732313a20617070726f76616c20746f2063757272656e74206f776e6560008201527f7200000000000000000000000000000000000000000000000000000000000000602082015250565b6000614536602183613118565b9150614541826144da565b604082019050919050565b6000602082019050818103600083015261456581614529565b9050919050565b7f4552433732313a20617070726f76652063616c6c6572206973206e6f7420746f60008201527f6b656e206f776e6572206f7220617070726f76656420666f7220616c6c000000602082015250565b60006145c8603d83613118565b91506145d38261456c565b604082019050919050565b600060208201905081810360008301526145f7816145bb565b9050919050565b7f4552433732313a2063616c6c6572206973206e6f7420746f6b656e206f776e6560008201527f72206f7220617070726f76656400000000000000000000000000000000000000602082015250565b600061465a602d83613118565b9150614665826145fe565b604082019050919050565b600060208201905081810360008301526146898161464d565b9050919050565b600061469b826131bf565b91506146a6836131bf565b92508282039050818111156146be576146bd613d80565b5b92915050565b7f4e487b7100000000000000000000000000000000000000000000000000000000600052603160045260246000fd5b7f4f776e61626c653a2063616c6c6572206973206e6f7420746865206f776e6572600082015250565b6000614729602083613118565b9150614734826146f3565b602082019050919050565b600060208201905081810360008301526147588161471c565b9050919050565b7f4552433732313a207472616e736665722066726f6d20696e636f72726563742060008201527f6f776e6572000000000000000000000000000000000000000000000000000000602082015250565b60006147bb602583613118565b91506147c68261475f565b604082019050919050565b600060208201905081810360008301526147ea816147ae565b9050919050565b7f4552433732313a207472616e7366657220746f20746865207a65726f2061646460008201527f7265737300000000000000000000000000000000000000000000000000000000602082015250565b600061484d602483613118565b9150614858826147f1565b604082019050919050565b6000602082019050818103600083015261487c81614840565b9050919050565b7f4552433732313a207472616e7366657220746f206e6f6e20455243373231526560008201527f63656976657220696d706c656d656e7465720000000000000000000000000000602082015250565b60006148df603283613118565b91506148ea82614883565b604082019050919050565b6000602082019050818103600083015261490e816148d2565b9050919050565b7f4552433732313a20617070726f766520746f2063616c6c657200000000000000600082015250565b600061494b601983613118565b915061495682614915565b602082019050919050565b6000602082019050818103600083015261497a8161493e565b9050919050565b7f4552433732313a206d696e7420746f20746865207a65726f2061646472657373600082015250565b60006149b7602083613118565b91506149c282614981565b602082019050919050565b600060208201905081810360008301526149e6816149aa565b9050919050565b7f4552433732313a20746f6b656e20616c7265616479206d696e74656400000000600082015250565b6000614a23601c83613118565b9150614a2e826149ed565b602082019050919050565b60006020820190508181036000830152614a5281614a16565b9050919050565b600081519050919050565b600082825260208201905092915050565b6000614a8082614a59565b614a8a8185614a64565b9350614a9a818560208601613129565b614aa381613153565b840191505092915050565b6000608082019050614ac36000830187613254565b614ad06020830186613254565b614add60408301856132ea565b8181036060830152614aef8184614a75565b905095945050505050565b600081519050614b098161307e565b92915050565b600060208284031215614b2557614b24613048565b5b6000614b3384828501614afa565b9150509291505056fea2646970667358221220776a9de759503668da360427c5da7616b2db82dd4c462660c82fa79d6916913164736f6c63430008110033a2646970667358221220a0792ba3d37b539e4d57a11f703977d241c861885c9ad89198892ddd6b6c56e364736f6c63430008110033",
  "linkReferences": {},
  "deployedLinkReferences": {}
}