{
  "_format": "hh-sol-artifact-1",
  "contractName": "QuestBoard",
  "sourceName": "contracts/quest-board/QuestBoard.sol",
  "abi": [
    {
      "inputs": [],
      "stateMutability": "nonpayable",
      "type": "constructor"
    },
    {
      "anonymous": false,
      "inputs": [
        {
          "indexed": false,
          "internalType": "address",
          "name": "previousAdmin",
          "type": "address"
        },
        {
          "indexed": false,
          "internalType": "address",
          "name": "newAdmin",
          "type": "address"
        }
      ],
      "name": "AdminChanged",
      "type": "event"
    },
    {
      "anonymous": false,
      "inputs": [
        {
          "indexed": true,
          "internalType": "address",
          "name": "account",
          "type": "address"
        },
        {
          "indexed": true,
          "internalType": "address",
          "name": "operator",
          "type": "address"
        },
        {
          "indexed": false,
          "internalType": "bool",
          "name": "approved",
          "type": "bool"
        }
      ],
      "name": "ApprovalForAll",
      "type": "event"
    },
    {
      "anonymous": false,
      "inputs": [
        {
          "indexed": true,
          "internalType": "address",
          "name": "beacon",
          "type": "address"
        }
      ],
      "name": "BeaconUpgraded",
      "type": "event"
    },
    {
      "anonymous": false,
      "inputs": [
        {
          "indexed": true,
          "internalType": "uint32",
          "name": "questId",
          "type": "uint32"
        },
        {
          "indexed": true,
          "internalType": "address",
          "name": "fan",
          "type": "address"
        }
      ],
      "name": "Burn",
      "type": "event"
    },
    {
      "anonymous": false,
      "inputs": [
        {
          "indexed": true,
          "internalType": "uint32",
          "name": "questId",
          "type": "uint32"
        },
        {
          "indexed": true,
          "internalType": "address",
          "name": "fan",
          "type": "address"
        }
      ],
      "name": "Claim",
      "type": "event"
    },
    {
      "anonymous": false,
      "inputs": [
        {
          "indexed": false,
          "internalType": "uint32",
          "name": "questId",
          "type": "uint32"
        },
        {
          "indexed": false,
          "internalType": "string",
          "name": "title",
          "type": "string"
        },
        {
          "indexed": false,
          "internalType": "string",
          "name": "questURI",
          "type": "string"
        },
        {
          "indexed": false,
          "internalType": "address",
          "name": "questCheckerAddress",
          "type": "address"
        },
        {
          "indexed": true,
          "internalType": "uint32",
          "name": "communityId",
          "type": "uint32"
        },
        {
          "indexed": false,
          "internalType": "uint32",
          "name": "obtainableExp",
          "type": "uint32"
        },
        {
          "indexed": false,
          "internalType": "uint32",
          "name": "obtainablePrizeId",
          "type": "uint32"
        },
        {
          "indexed": false,
          "internalType": "bool",
          "name": "prizeObtainable",
          "type": "bool"
        },
        {
          "indexed": true,
          "internalType": "address",
          "name": "target",
          "type": "address"
        }
      ],
      "name": "Create",
      "type": "event"
    },
    {
      "anonymous": false,
      "inputs": [
        {
          "indexed": false,
          "internalType": "uint8",
          "name": "version",
          "type": "uint8"
        }
      ],
      "name": "Initialized",
      "type": "event"
    },
    {
      "anonymous": false,
      "inputs": [
        {
          "indexed": true,
          "internalType": "address",
          "name": "previousOwner",
          "type": "address"
        },
        {
          "indexed": true,
          "internalType": "address",
          "name": "newOwner",
          "type": "address"
        }
      ],
      "name": "OwnershipTransferred",
      "type": "event"
    },
    {
      "anonymous": false,
      "inputs": [
        {
          "indexed": true,
          "internalType": "address",
          "name": "operator",
          "type": "address"
        },
        {
          "indexed": true,
          "internalType": "address",
          "name": "from",
          "type": "address"
        },
        {
          "indexed": true,
          "internalType": "address",
          "name": "to",
          "type": "address"
        },
        {
          "indexed": false,
          "internalType": "uint256[]",
          "name": "ids",
          "type": "uint256[]"
        },
        {
          "indexed": false,
          "internalType": "uint256[]",
          "name": "values",
          "type": "uint256[]"
        }
      ],
      "name": "TransferBatch",
      "type": "event"
    },
    {
      "anonymous": false,
      "inputs": [
        {
          "indexed": true,
          "internalType": "address",
          "name": "operator",
          "type": "address"
        },
        {
          "indexed": true,
          "internalType": "address",
          "name": "from",
          "type": "address"
        },
        {
          "indexed": true,
          "internalType": "address",
          "name": "to",
          "type": "address"
        },
        {
          "indexed": false,
          "internalType": "uint256",
          "name": "id",
          "type": "uint256"
        },
        {
          "indexed": false,
          "internalType": "uint256",
          "name": "value",
          "type": "uint256"
        }
      ],
      "name": "TransferSingle",
      "type": "event"
    },
    {
      "anonymous": false,
      "inputs": [
        {
          "indexed": false,
          "internalType": "string",
          "name": "value",
          "type": "string"
        },
        {
          "indexed": true,
          "internalType": "uint256",
          "name": "id",
          "type": "uint256"
        }
      ],
      "name": "URI",
      "type": "event"
    },
    {
      "anonymous": false,
      "inputs": [
        {
          "indexed": true,
          "internalType": "address",
          "name": "implementation",
          "type": "address"
        }
      ],
      "name": "Upgraded",
      "type": "event"
    },
    {
      "inputs": [
        {
          "internalType": "address",
          "name": "account",
          "type": "address"
        },
        {
          "internalType": "uint256",
          "name": "id",
          "type": "uint256"
        }
      ],
      "name": "balanceOf",
      "outputs": [
        {
          "internalType": "uint256",
          "name": "",
          "type": "uint256"
        }
      ],
      "stateMutability": "view",
      "type": "function"
    },
    {
      "inputs": [
        {
          "internalType": "address[]",
          "name": "accounts",
          "type": "address[]"
        },
        {
          "internalType": "uint256[]",
          "name": "ids",
          "type": "uint256[]"
        }
      ],
      "name": "balanceOfBatch",
      "outputs": [
        {
          "internalType": "uint256[]",
          "name": "",
          "type": "uint256[]"
        }
      ],
      "stateMutability": "view",
      "type": "function"
    },
    {
      "inputs": [
        {
          "internalType": "uint32",
          "name": "questId_",
          "type": "uint32"
        }
      ],
      "name": "burn",
      "outputs": [],
      "stateMutability": "nonpayable",
      "type": "function"
    },
    {
      "inputs": [
        {
          "internalType": "uint256[]",
          "name": "questIds_",
          "type": "uint256[]"
        },
        {
          "internalType": "address[]",
          "name": "userList_",
          "type": "address[]"
        }
      ],
      "name": "checkBatchCompleted",
      "outputs": [
        {
          "internalType": "bool[]",
          "name": "completedList",
          "type": "bool[]"
        }
      ],
      "stateMutability": "view",
      "type": "function"
    },
    {
      "inputs": [
        {
          "internalType": "uint32",
          "name": "questId_",
          "type": "uint32"
        }
      ],
      "name": "claim",
      "outputs": [],
      "stateMutability": "nonpayable",
      "type": "function"
    },
    {
      "inputs": [],
      "name": "communityPortal",
      "outputs": [
        {
          "internalType": "contract ICommunityPortal",
          "name": "",
          "type": "address"
        }
      ],
      "stateMutability": "view",
      "type": "function"
    },
    {
      "inputs": [
        {
          "internalType": "string",
          "name": "title_",
          "type": "string"
        },
        {
          "internalType": "string",
          "name": "questURI_",
          "type": "string"
        },
        {
          "internalType": "uint32",
          "name": "communityId_",
          "type": "uint32"
        },
        {
          "internalType": "uint32",
          "name": "obtainableExp_",
          "type": "uint32"
        },
        {
          "internalType": "uint32",
          "name": "obtainablePrizeId_",
          "type": "uint32"
        },
        {
          "internalType": "bool",
          "name": "prizeObtainable_",
          "type": "bool"
        },
        {
          "internalType": "bytes4",
          "name": "interfaceId_",
          "type": "bytes4"
        },
        {
          "internalType": "address",
          "name": "target_",
          "type": "address"
        }
      ],
      "name": "createQuest",
      "outputs": [],
      "stateMutability": "nonpayable",
      "type": "function"
    },
    {
      "inputs": [
        {
          "internalType": "uint256",
          "name": "id",
          "type": "uint256"
        }
      ],
      "name": "exists",
      "outputs": [
        {
          "internalType": "bool",
          "name": "",
          "type": "bool"
        }
      ],
      "stateMutability": "view",
      "type": "function"
    },
    {
      "inputs": [
        {
          "internalType": "uint256",
          "name": "questId_",
          "type": "uint256"
        }
      ],
      "name": "getQuest",
      "outputs": [
        {
          "components": [
            {
              "internalType": "string",
              "name": "title",
              "type": "string"
            },
            {
              "internalType": "string",
              "name": "questURI",
              "type": "string"
            },
            {
              "internalType": "address",
              "name": "questCheckerAddress",
              "type": "address"
            },
            {
              "internalType": "uint32",
              "name": "communityId",
              "type": "uint32"
            },
            {
              "internalType": "uint32",
              "name": "obtainableExp",
              "type": "uint32"
            },
            {
              "internalType": "uint32",
              "name": "obtainablePrizeId",
              "type": "uint32"
            },
            {
              "internalType": "bool",
              "name": "prizeObtainable",
              "type": "bool"
            },
            {
              "internalType": "bool",
              "name": "closed",
              "type": "bool"
            }
          ],
          "internalType": "struct IQuestBoard.Quest",
          "name": "quest",
          "type": "tuple"
        }
      ],
      "stateMutability": "view",
      "type": "function"
    },
    {
      "inputs": [
        {
          "internalType": "uint256",
          "name": "page_",
          "type": "uint256"
        },
        {
          "internalType": "uint256",
          "name": "pageSize_",
          "type": "uint256"
        }
      ],
      "name": "getQuestList",
      "outputs": [
        {
          "components": [
            {
              "internalType": "string",
              "name": "title",
              "type": "string"
            },
            {
              "internalType": "string",
              "name": "questURI",
              "type": "string"
            },
            {
              "internalType": "address",
              "name": "questCheckerAddress",
              "type": "address"
            },
            {
              "internalType": "uint32",
              "name": "communityId",
              "type": "uint32"
            },
            {
              "internalType": "uint32",
              "name": "obtainableExp",
              "type": "uint32"
            },
            {
              "internalType": "uint32",
              "name": "obtainablePrizeId",
              "type": "uint32"
            },
            {
              "internalType": "bool",
              "name": "prizeObtainable",
              "type": "bool"
            },
            {
              "internalType": "bool",
              "name": "closed",
              "type": "bool"
            }
          ],
          "internalType": "struct IQuestBoard.Quest[]",
          "name": "list",
          "type": "tuple[]"
        }
      ],
      "stateMutability": "view",
      "type": "function"
    },
    {
      "inputs": [
        {
          "internalType": "address",
          "name": "communityPortal_",
          "type": "address"
        },
        {
          "internalType": "address",
          "name": "questCheckerCreater_",
          "type": "address"
        },
        {
          "internalType": "address",
          "name": "prizePoap_",
          "type": "address"
        }
      ],
      "name": "initialize",
      "outputs": [],
      "stateMutability": "nonpayable",
      "type": "function"
    },
    {
      "inputs": [
        {
          "internalType": "address",
          "name": "account",
          "type": "address"
        },
        {
          "internalType": "address",
          "name": "operator",
          "type": "address"
        }
      ],
      "name": "isApprovedForAll",
      "outputs": [
        {
          "internalType": "bool",
          "name": "",
          "type": "bool"
        }
      ],
      "stateMutability": "view",
      "type": "function"
    },
    {
      "inputs": [
        {
          "internalType": "address",
          "name": "",
          "type": "address"
        },
        {
          "internalType": "uint256",
          "name": "",
          "type": "uint256"
        }
      ],
      "name": "obtained",
      "outputs": [
        {
          "internalType": "bool",
          "name": "",
          "type": "bool"
        }
      ],
      "stateMutability": "view",
      "type": "function"
    },
    {
      "inputs": [],
      "name": "owner",
      "outputs": [
        {
          "internalType": "address",
          "name": "",
          "type": "address"
        }
      ],
      "stateMutability": "view",
      "type": "function"
    },
    {
      "inputs": [],
      "name": "prizePoap",
      "outputs": [
        {
          "internalType": "contract IPrizePoap",
          "name": "",
          "type": "address"
        }
      ],
      "stateMutability": "view",
      "type": "function"
    },
    {
      "inputs": [],
      "name": "proxiableUUID",
      "outputs": [
        {
          "internalType": "bytes32",
          "name": "",
          "type": "bytes32"
        }
      ],
      "stateMutability": "view",
      "type": "function"
    },
    {
      "inputs": [],
      "name": "questCheckerCreater",
      "outputs": [
        {
          "internalType": "contract IQuestCheckerCreater",
          "name": "",
          "type": "address"
        }
      ],
      "stateMutability": "view",
      "type": "function"
    },
    {
      "inputs": [],
      "name": "questSupply",
      "outputs": [
        {
          "internalType": "uint256",
          "name": "totalSupply",
          "type": "uint256"
        }
      ],
      "stateMutability": "view",
      "type": "function"
    },
    {
      "inputs": [],
      "name": "renounceOwnership",
      "outputs": [],
      "stateMutability": "nonpayable",
      "type": "function"
    },
    {
      "inputs": [
        {
          "internalType": "address",
          "name": "from",
          "type": "address"
        },
        {
          "internalType": "address",
          "name": "to",
          "type": "address"
        },
        {
          "internalType": "uint256[]",
          "name": "ids",
          "type": "uint256[]"
        },
        {
          "internalType": "uint256[]",
          "name": "amounts",
          "type": "uint256[]"
        },
        {
          "internalType": "bytes",
          "name": "data",
          "type": "bytes"
        }
      ],
      "name": "safeBatchTransferFrom",
      "outputs": [],
      "stateMutability": "nonpayable",
      "type": "function"
    },
    {
      "inputs": [
        {
          "internalType": "address",
          "name": "from",
          "type": "address"
        },
        {
          "internalType": "address",
          "name": "to",
          "type": "address"
        },
        {
          "internalType": "uint256",
          "name": "id",
          "type": "uint256"
        },
        {
          "internalType": "uint256",
          "name": "amount",
          "type": "uint256"
        },
        {
          "internalType": "bytes",
          "name": "data",
          "type": "bytes"
        }
      ],
      "name": "safeTransferFrom",
      "outputs": [],
      "stateMutability": "nonpayable",
      "type": "function"
    },
    {
      "inputs": [
        {
          "internalType": "address",
          "name": "operator",
          "type": "address"
        },
        {
          "internalType": "bool",
          "name": "approved",
          "type": "bool"
        }
      ],
      "name": "setApprovalForAll",
      "outputs": [],
      "stateMutability": "nonpayable",
      "type": "function"
    },
    {
      "inputs": [
        {
          "internalType": "address",
          "name": "newState_",
          "type": "address"
        }
      ],
      "name": "setCommunityPortal",
      "outputs": [],
      "stateMutability": "nonpayable",
      "type": "function"
    },
    {
      "inputs": [
        {
          "internalType": "address",
          "name": "newState_",
          "type": "address"
        }
      ],
      "name": "setPrizePoap",
      "outputs": [],
      "stateMutability": "nonpayable",
      "type": "function"
    },
    {
      "inputs": [
        {
          "internalType": "uint256",
          "name": "questId_",
          "type": "uint256"
        },
        {
          "components": [
            {
              "internalType": "string",
              "name": "title",
              "type": "string"
            },
            {
              "internalType": "string",
              "name": "questURI",
              "type": "string"
            },
            {
              "internalType": "address",
              "name": "questCheckerAddress",
              "type": "address"
            },
            {
              "internalType": "uint32",
              "name": "communityId",
              "type": "uint32"
            },
            {
              "internalType": "uint32",
              "name": "obtainableExp",
              "type": "uint32"
            },
            {
              "internalType": "uint32",
              "name": "obtainablePrizeId",
              "type": "uint32"
            },
            {
              "internalType": "bool",
              "name": "prizeObtainable",
              "type": "bool"
            },
            {
              "internalType": "bool",
              "name": "closed",
              "type": "bool"
            }
          ],
          "internalType": "struct IQuestBoard.Quest",
          "name": "newState_",
          "type": "tuple"
        }
      ],
      "name": "setQuest",
      "outputs": [],
      "stateMutability": "nonpayable",
      "type": "function"
    },
    {
      "inputs": [
        {
          "internalType": "address",
          "name": "newState_",
          "type": "address"
        }
      ],
      "name": "setQuestCheckerCreater",
      "outputs": [],
      "stateMutability": "nonpayable",
      "type": "function"
    },
    {
      "inputs": [
        {
          "internalType": "bytes4",
          "name": "interfaceId",
          "type": "bytes4"
        }
      ],
      "name": "supportsInterface",
      "outputs": [
        {
          "internalType": "bool",
          "name": "",
          "type": "bool"
        }
      ],
      "stateMutability": "view",
      "type": "function"
    },
    {
      "inputs": [
        {
          "internalType": "uint256",
          "name": "id",
          "type": "uint256"
        }
      ],
      "name": "totalSupply",
      "outputs": [
        {
          "internalType": "uint256",
          "name": "",
          "type": "uint256"
        }
      ],
      "stateMutability": "view",
      "type": "function"
    },
    {
      "inputs": [
        {
          "internalType": "address",
          "name": "newOwner",
          "type": "address"
        }
      ],
      "name": "transferOwnership",
      "outputs": [],
      "stateMutability": "nonpayable",
      "type": "function"
    },
    {
      "inputs": [
        {
          "internalType": "address",
          "name": "newImplementation",
          "type": "address"
        }
      ],
      "name": "upgradeTo",
      "outputs": [],
      "stateMutability": "nonpayable",
      "type": "function"
    },
    {
      "inputs": [
        {
          "internalType": "address",
          "name": "newImplementation",
          "type": "address"
        },
        {
          "internalType": "bytes",
          "name": "data",
          "type": "bytes"
        }
      ],
      "name": "upgradeToAndCall",
      "outputs": [],
      "stateMutability": "payable",
      "type": "function"
    },
    {
      "inputs": [
        {
          "internalType": "uint256",
          "name": "questId_",
          "type": "uint256"
        }
      ],
      "name": "uri",
      "outputs": [
        {
          "internalType": "string",
          "name": "tokenURI",
          "type": "string"
        }
      ],
      "stateMutability": "view",
      "type": "function"
    }
  ],
  "bytecode": "0x60a0604052306080523480156200001557600080fd5b506200002062000026565b620000e8565b600054610100900460ff1615620000935760405162461bcd60e51b815260206004820152602760248201527f496e697469616c697a61626c653a20636f6e747261637420697320696e697469604482015266616c697a696e6760c81b606482015260840160405180910390fd5b60005460ff9081161015620000e6576000805460ff191660ff9081179091556040519081527f7f26b83ff96e1f2b6a682f133852f6798a09c465da95921460cefb38474024989060200160405180910390a15b565b60805161411c6200012060003960008181610e7901528181610eb90152818161144901528181611489015261151c015261411c6000f3fe6080604052600436106101e25760003560e01c8063656f411e11610102578063b7184a1e11610095578063c0c53b8b11610064578063c0c53b8b146105f1578063e985e9c514610611578063f242432a1461065a578063f2fde38b1461067a57600080fd5b8063b7184a1e14610562578063b72d092a14610582578063bcbd2e2f146105a3578063bd85b039146105c457600080fd5b8063845bb257116100d1578063845bb257146104e45780638da5cb5b146105045780638fb32cc614610522578063a22cb4651461054257600080fd5b8063656f411e1461045d5780636e65663014610473578063715018a6146104af5780637a5984c4146104c457600080fd5b80633eea270c1161017a5780634f1ef286116101495780634f1ef286146103d95780634f558e79146103ec57806352d1902d1461041b57806359e124ed1461043057600080fd5b80633eea270c1461032657806342dd9a8a1461035f57806349f86f341461037f5780634e1273f4146103ac57600080fd5b80631b3d8c96116101b65780631b3d8c96146102995780632c771a4f146102b95780632eb2c2d6146102e65780633659cfe61461030657600080fd5b8062fdd58e146101e757806301ffc9a71461021a578063049518911461024a5780630e89341c1461026c575b600080fd5b3480156101f357600080fd5b50610207610202366004612fc5565b61069a565b6040519081526020015b60405180910390f35b34801561022657600080fd5b5061023a610235366004613007565b610735565b6040519015158152602001610211565b34801561025657600080fd5b5061026a610265366004613038565b610785565b005b34801561027857600080fd5b5061028c610287366004613053565b610b6a565b60405161021191906130bc565b3480156102a557600080fd5b5061026a6102b43660046130cf565b610c21565b3480156102c557600080fd5b506102d96102d436600461327f565b610c4c565b60405161021191906132e2565b3480156102f257600080fd5b5061026a6103013660046133ab565b610e23565b34801561031257600080fd5b5061026a6103213660046130cf565b610e6f565b34801561033257600080fd5b5061016154610347906001600160a01b031681565b6040516001600160a01b039091168152602001610211565b34801561036b57600080fd5b5061026a61037a366004613471565b610f4e565b34801561038b57600080fd5b5061039f61039a366004613053565b61104f565b6040516102119190613620565b3480156103b857600080fd5b506103cc6103c7366004613633565b611316565b60405161021191906136c7565b61026a6103e73660046136da565b61143f565b3480156103f857600080fd5b5061023a610407366004613053565b600090815260976020526040902054151590565b34801561042757600080fd5b5061020761150f565b34801561043c57600080fd5b5061045061044b36600461371f565b6115c3565b6040516102119190613741565b34801561046957600080fd5b5061016254610207565b34801561047f57600080fd5b5061023a61048e366004612fc5565b61016360209081526000928352604080842090915290825290205460ff1681565b3480156104bb57600080fd5b5061026a61189d565b3480156104d057600080fd5b5061026a6104df366004613038565b6118b1565b3480156104f057600080fd5b5061026a6104ff3660046130cf565b6118f9565b34801561051057600080fd5b5060c9546001600160a01b0316610347565b34801561052e57600080fd5b5061026a61053d3660046137a3565b611924565b34801561054e57600080fd5b5061026a61055d366004613872565b611ca0565b34801561056e57600080fd5b5061026a61057d3660046130cf565b611cab565b34801561058e57600080fd5b5061015f54610347906001600160a01b031681565b3480156105af57600080fd5b5061016054610347906001600160a01b031681565b3480156105d057600080fd5b506102076105df366004613053565b60009081526097602052604090205490565b3480156105fd57600080fd5b5061026a61060c3660046138ab565b611cd6565b34801561061d57600080fd5b5061023a61062c3660046138f6565b6001600160a01b03918216600090815260666020908152604080832093909416825291909152205460ff1690565b34801561066657600080fd5b5061026a610675366004613924565b611e52565b34801561068657600080fd5b5061026a6106953660046130cf565b611e97565b60006001600160a01b03831661070a5760405162461bcd60e51b815260206004820152602a60248201527f455243313135353a2061646472657373207a65726f206973206e6f742061207660448201526930b634b21037bbb732b960b11b60648201526084015b60405180910390fd5b5060008181526065602090815260408083206001600160a01b03861684529091529020545b92915050565b60006001600160e01b03198216636cdb3d1360e11b148061076657506001600160e01b031982166303a24d0760e21b145b8061072f57506301ffc9a760e01b6001600160e01b031983161461072f565b610795338263ffffffff1661069a565b156107e25760405162461bcd60e51b815260206004820152601760248201527f596f75206861766520616c7265616479206d696e7465640000000000000000006044820152606401610701565b60006101628263ffffffff16815481106107fe576107fe61398c565b600091825260209091206004918202016002015460405163515af40b60e01b815233928101929092526001600160a01b03169150819063515af40b90602401602060405180830381865afa15801561085a573d6000803e3d6000fd5b505050506040513d601f19601f8201168201806040525081019061087e91906139ad565b6108d95760405162461bcd60e51b815260206004820152602660248201527f596f752068617665206e6f7420636f6d706c65746564207468697320717565736044820152653a103cb2ba1760d11b6064820152608401610701565b610908338363ffffffff166001604051806040016040528060048152602001630307830360e41b815250611f0d565b3360009081526101636020908152604080832063ffffffff8616845290915290205460ff16610b33573360009081526101636020908152604080832063ffffffff86168085529252909120805460ff1916600117905561015f5461016280546001600160a01b039290921692638fbbf9669281106109885761098861398c565b906000526020600020906004020160020160149054906101000a900463ffffffff16336101628663ffffffff16815481106109c5576109c561398c565b600091825260209091206004918202016002015460405160e086901b6001600160e01b031916815263ffffffff948516928101929092526001600160a01b03929092166024820152600160c01b9091049091166044820152606401600060405180830381600087803b158015610a3a57600080fd5b505af1158015610a4e573d6000803e3d6000fd5b505050506101628263ffffffff1681548110610a6c57610a6c61398c565b600091825260209091206003600490920201015460ff1615610b33576101615461016280546001600160a01b039092169163add24fc0919063ffffffff8616908110610aba57610aba61398c565b600091825260209091206004918202016002015460405160e084901b6001600160e01b0319168152600160e01b90910463ffffffff1691810191909152336024820152604401600060405180830381600087803b158015610b1a57600080fd5b505af1158015610b2e573d6000803e3d6000fd5b505050505b604051339063ffffffff8416907f57e4b8633fffe5b216a848741e61b8b1ceabf6e1acb0fe7abc6d626db61f0c1090600090a35050565b60606101628281548110610b8057610b8061398c565b90600052602060002090600402016001018054610b9c906139ca565b80601f0160208091040260200160405190810160405280929190818152602001828054610bc8906139ca565b8015610c155780601f10610bea57610100808354040283529160200191610c15565b820191906000526020600020905b815481529060010190602001808311610bf857829003601f168201915b50505050509050919050565b610c29612032565b61016080546001600160a01b0319166001600160a01b0392909216919091179055565b60608151835114610cab5760405162461bcd60e51b8152602060048201526024808201527f717565737449647320616e642066616e4c697374206c656e677468206d69736d6044820152630c2e8c6d60e31b6064820152608401610701565b82516001600160401b03811115610cc457610cc46130ec565b604051908082528060200260200182016040528015610ced578160200160208202803683370190505b50905060005b8351811015610e1c576000610162858381518110610d1357610d1361398c565b602002602001015181548110610d2b57610d2b61398c565b906000526020600020906004020160020160009054906101000a90046001600160a01b03169050806001600160a01b031663515af40b858481518110610d7357610d7361398c565b60200260200101516040518263ffffffff1660e01b8152600401610da691906001600160a01b0391909116815260200190565b602060405180830381865afa158015610dc3573d6000803e3d6000fd5b505050506040513d601f19601f82011682018060405250810190610de791906139ad565b838381518110610df957610df961398c565b911515602092830291909101909101525080610e1481613a1a565b915050610cf3565b5092915050565b6001600160a01b038516331480610e3f5750610e3f853361062c565b610e5b5760405162461bcd60e51b815260040161070190613a33565b610e68858585858561208c565b5050505050565b6001600160a01b037f0000000000000000000000000000000000000000000000000000000000000000163003610eb75760405162461bcd60e51b815260040161070190613a81565b7f00000000000000000000000000000000000000000000000000000000000000006001600160a01b0316610f006000805160206140a0833981519152546001600160a01b031690565b6001600160a01b031614610f265760405162461bcd60e51b815260040161070190613acd565b610f2f8161227a565b60408051600080825260208201909252610f4b91839190612282565b50565b610f56612032565b806101628381548110610f6b57610f6b61398c565b600091825260209091208251600490920201908190610f8a9082613b5f565b5060208201516001820190610f9f9082613b5f565b5060408201516002820180546060850151608086015160a08701516001600160a01b039095166001600160c01b031990931692909217600160a01b63ffffffff92831602176001600160c01b0316600160c01b928216929092026001600160e01b031691909117600160e01b919093160291909117905560c08201516003909101805460e09093015161ffff1990931691151561ff00191691909117610100921515929092029190911790555050565b611057612f5c565b610162828154811061106b5761106b61398c565b90600052602060002090600402016000018054611087906139ca565b80601f01602080910402602001604051908101604052809291908181526020018280546110b3906139ca565b80156111005780601f106110d557610100808354040283529160200191611100565b820191906000526020600020905b8154815290600101906020018083116110e357829003601f168201915b505050918352505061016280548390811061111d5761111d61398c565b90600052602060002090600402016001018054611139906139ca565b80601f0160208091040260200160405190810160405280929190818152602001828054611165906139ca565b80156111b25780601f10611187576101008083540402835291602001916111b2565b820191906000526020600020905b81548152906001019060200180831161119557829003601f168201915b5050505050816020018190525061016282815481106111d3576111d361398c565b60009182526020909120600260049092020101546001600160a01b0316604082015261016280548390811061120a5761120a61398c565b6000918252602090912060049091020160020154600160a01b900463ffffffff1660608201526101628054839081106112455761124561398c565b6000918252602090912060049091020160020154600160c01b900463ffffffff1660808201526101628054839081106112805761128061398c565b6000918252602090912060049091020160020154600160e01b900463ffffffff1660a08201526101628054839081106112bb576112bb61398c565b600091825260209091206003600490920201015460ff16151560c08201526101628054839081106112ee576112ee61398c565b6000918252602090912060049091020160030154610100900460ff16151560e0820152919050565b6060815183511461137b5760405162461bcd60e51b815260206004820152602960248201527f455243313135353a206163636f756e747320616e6420696473206c656e677468604482015268040dad2e6dac2e8c6d60bb1b6064820152608401610701565b600083516001600160401b03811115611396576113966130ec565b6040519080825280602002602001820160405280156113bf578160200160208202803683370190505b50905060005b84518110156114375761140a8582815181106113e3576113e361398c565b60200260200101518583815181106113fd576113fd61398c565b602002602001015161069a565b82828151811061141c5761141c61398c565b602090810291909101015261143081613a1a565b90506113c5565b509392505050565b6001600160a01b037f00000000000000000000000000000000000000000000000000000000000000001630036114875760405162461bcd60e51b815260040161070190613a81565b7f00000000000000000000000000000000000000000000000000000000000000006001600160a01b03166114d06000805160206140a0833981519152546001600160a01b031690565b6001600160a01b0316146114f65760405162461bcd60e51b815260040161070190613acd565b6114ff8261227a565b61150b82826001612282565b5050565b6000306001600160a01b037f000000000000000000000000000000000000000000000000000000000000000016146115af5760405162461bcd60e51b815260206004820152603860248201527f555550535570677261646561626c653a206d757374206e6f742062652063616c60448201527f6c6564207468726f7567682064656c656761746563616c6c00000000000000006064820152608401610701565b506000805160206140a08339815191525b90565b6060600082116116155760405162461bcd60e51b815260206004820152601a60248201527f706167652073697a65206d75737420626520706f7369746976650000000000006044820152606401610701565b61016254828181611627876001613c1e565b6116319190613c31565b111561163a5750805b806001600160401b03811115611652576116526130ec565b60405190808252806020026020018201604052801561168b57816020015b611678612f5c565b8152602001906001900390816116705790505b50925060005b8181101561189457610162816116a78789613c31565b6116b19190613c1e565b815481106116c1576116c161398c565b9060005260206000209060040201604051806101000160405290816000820180546116eb906139ca565b80601f0160208091040260200160405190810160405280929190818152602001828054611717906139ca565b80156117645780601f1061173957610100808354040283529160200191611764565b820191906000526020600020905b81548152906001019060200180831161174757829003601f168201915b5050505050815260200160018201805461177d906139ca565b80601f01602080910402602001604051908101604052809291908181526020018280546117a9906139ca565b80156117f65780601f106117cb576101008083540402835291602001916117f6565b820191906000526020600020905b8154815290600101906020018083116117d957829003601f168201915b505050918352505060028201546001600160a01b038116602083015263ffffffff600160a01b820481166040840152600160c01b820481166060840152600160e01b90910416608082015260039091015460ff808216151560a084015261010090910416151560c09091015284518590839081106118765761187661398c565b6020026020010181905250808061188c90613a1a565b915050611691565b50505092915050565b6118a5612032565b6118af60006123f2565b565b6118c3338263ffffffff166001612444565b604051339063ffffffff8316907ff2c5d0dd7efdbd39dee9dc9f42699c09e267561ecf320bfe6a6135129336325290600090a350565b611901612032565b61015f80546001600160a01b0319166001600160a01b0392909216919091179055565b61192c612032565b60008563ffffffff16116119825760405162461bcd60e51b815260206004820152601860248201527f4e6f7420656e6f756768206f627461696e61626c6545787000000000000000006044820152606401610701565b61015f54604051636541ba3f60e11b815263ffffffff881660048201526000916001600160a01b03169063ca83747e90602401600060405180830381865afa1580156119d2573d6000803e3d6000fd5b505050506040513d6000823e601f3d908101601f191682016040526119fa9190810190613c53565b9050806040015115611a4e5760405162461bcd60e51b815260206004820152601b60248201527f5468697320636f6d6d756e697479206973206e6f74206f70656e6400000000006044820152606401610701565b611a56612f5c565b89815260208101899052610160546040516303af264560e31b81526001600160e01b0319861660048201526001600160a01b0385811660248301526000921690631d793228906044016020604051808303816000875af1158015611abe573d6000803e3d6000fd5b505050506040513d601f19601f82011682018060405250810190611ae29190613d29565b6001600160a01b038116604084015263ffffffff808b1660608501528981166080850152881660a084015286151560c084015261016280546001810182556000919091528351919250839160049091027f29af0939a5988989bfee913a9ad10b9335cb63ebc9fd2b69e5f877d0455ac91901908190611b619082613b5f565b5060208201516001820190611b769082613b5f565b506040820151600282018054606080860151608087015160a08801516001600160a01b039687166001600160c01b031990951694909417600160a01b63ffffffff93841602176001600160c01b0316600160c01b918316919091026001600160e01b031617600160e01b938216939093029290921790925560c08501516003909401805460e09096015161ffff1990961694151561ff00191694909417610100951515959095029490941790925590840151610162549187169216907f7a70dde73e1ac29a245567050834adc2034585a87fc3f45936702c2c1f94434290611c6090600190613d46565b8551602087015160408089015160808a015160a08b015160c08c01519351611c8b9796959490613d59565b60405180910390a35050505050505050505050565b61150b3383836125d8565b611cb3612032565b61016180546001600160a01b0319166001600160a01b0392909216919091179055565b600054610100900460ff1615808015611cf65750600054600160ff909116105b80611d105750303b158015611d10575060005460ff166001145b611d735760405162461bcd60e51b815260206004820152602e60248201527f496e697469616c697a61626c653a20636f6e747261637420697320616c72656160448201526d191e481a5b9a5d1a585b1a5e995960921b6064820152608401610701565b6000805460ff191660011790558015611d96576000805461ff0019166101001790555b611dae604051806020016040528060008152506126b8565b611db66126e8565b611dbe61270f565b611dc66126e8565b61015f80546001600160a01b038087166001600160a01b03199283161790925561016080548684169083161790556101618054928516929091169190911790558015611e4c576000805461ff0019169055604051600181527f7f26b83ff96e1f2b6a682f133852f6798a09c465da95921460cefb38474024989060200160405180910390a15b50505050565b6001600160a01b038516331480611e6e5750611e6e853361062c565b611e8a5760405162461bcd60e51b815260040161070190613a33565b610e68858585858561273e565b611e9f612032565b6001600160a01b038116611f045760405162461bcd60e51b815260206004820152602660248201527f4f776e61626c653a206e6577206f776e657220697320746865207a65726f206160448201526564647265737360d01b6064820152608401610701565b610f4b816123f2565b6001600160a01b038416611f6d5760405162461bcd60e51b815260206004820152602160248201527f455243313135353a206d696e7420746f20746865207a65726f206164647265736044820152607360f81b6064820152608401610701565b336000611f798561287a565b90506000611f868561287a565b9050611f97836000898585896128c5565b60008681526065602090815260408083206001600160a01b038b16845290915281208054879290611fc9908490613c1e565b909155505060408051878152602081018790526001600160a01b03808a1692600092918716917fc3d58168c5ae7397731d063d5bbf3d657854427343f4c083240f7aacaa2d0f62910160405180910390a46120298360008989898961293c565b50505050505050565b60c9546001600160a01b031633146118af5760405162461bcd60e51b815260206004820181905260248201527f4f776e61626c653a2063616c6c6572206973206e6f7420746865206f776e65726044820152606401610701565b81518351146120ee5760405162461bcd60e51b815260206004820152602860248201527f455243313135353a2069647320616e6420616d6f756e7473206c656e677468206044820152670dad2e6dac2e8c6d60c31b6064820152608401610701565b6001600160a01b0384166121145760405162461bcd60e51b815260040161070190613dbf565b336121238187878787876128c5565b60005b845181101561220c5760008582815181106121435761214361398c565b6020026020010151905060008583815181106121615761216161398c565b60209081029190910181015160008481526065835260408082206001600160a01b038e1683529093529190912054909150818110156121b25760405162461bcd60e51b815260040161070190613e04565b60008381526065602090815260408083206001600160a01b038e8116855292528083208585039055908b168252812080548492906121f1908490613c1e565b925050819055505050508061220590613a1a565b9050612126565b50846001600160a01b0316866001600160a01b0316826001600160a01b03167f4a39dc06d4c0dbc64b70af90fd698a233a518aa5d07e595d983b8c0526c8f7fb878760405161225c929190613e4e565b60405180910390a4612272818787878787612a97565b505050505050565b610f4b612032565b7f4910fdfa16fed3260ed0e7147f7cc6da11a60208b5b9406d12a635614ffd91435460ff16156122ba576122b583612b52565b505050565b826001600160a01b03166352d1902d6040518163ffffffff1660e01b8152600401602060405180830381865afa925050508015612314575060408051601f3d908101601f1916820190925261231191810190613e73565b60015b6123775760405162461bcd60e51b815260206004820152602e60248201527f45524331393637557067726164653a206e657720696d706c656d656e7461746960448201526d6f6e206973206e6f74205555505360901b6064820152608401610701565b6000805160206140a083398151915281146123e65760405162461bcd60e51b815260206004820152602960248201527f45524331393637557067726164653a20756e737570706f727465642070726f786044820152681a58589b195555525160ba1b6064820152608401610701565b506122b5838383612bee565b60c980546001600160a01b038381166001600160a01b0319831681179093556040519116919082907f8be0079c531659141344cd1fd0a4f28419497f9722a3daafe3b4186f6b6457e090600090a35050565b6001600160a01b0383166124a65760405162461bcd60e51b815260206004820152602360248201527f455243313135353a206275726e2066726f6d20746865207a65726f206164647260448201526265737360e81b6064820152608401610701565b3360006124b28461287a565b905060006124bf8461287a565b90506124df838760008585604051806020016040528060008152506128c5565b60008581526065602090815260408083206001600160a01b038a1684529091529020548481101561255e5760405162461bcd60e51b8152602060048201526024808201527f455243313135353a206275726e20616d6f756e7420657863656564732062616c604482015263616e636560e01b6064820152608401610701565b60008681526065602090815260408083206001600160a01b038b81168086529184528285208a8703905582518b81529384018a90529092908816917fc3d58168c5ae7397731d063d5bbf3d657854427343f4c083240f7aacaa2d0f62910160405180910390a4604080516020810190915260009052612029565b816001600160a01b0316836001600160a01b03160361264b5760405162461bcd60e51b815260206004820152602960248201527f455243313135353a2073657474696e6720617070726f76616c20737461747573604482015268103337b91039b2b63360b91b6064820152608401610701565b6001600160a01b03838116600081815260666020908152604080832094871680845294825291829020805460ff191686151590811790915591519182527f17307eab39ab6107e8899845ad3d59bd9653f200f220920489ca2b5937696c31910160405180910390a3505050565b600054610100900460ff166126df5760405162461bcd60e51b815260040161070190613e8c565b610f4b81612c13565b600054610100900460ff166118af5760405162461bcd60e51b815260040161070190613e8c565b600054610100900460ff166127365760405162461bcd60e51b815260040161070190613e8c565b6118af612c43565b6001600160a01b0384166127645760405162461bcd60e51b815260040161070190613dbf565b3360006127708561287a565b9050600061277d8561287a565b905061278d8389898585896128c5565b60008681526065602090815260408083206001600160a01b038c168452909152902054858110156127d05760405162461bcd60e51b815260040161070190613e04565b60008781526065602090815260408083206001600160a01b038d8116855292528083208985039055908a1682528120805488929061280f908490613c1e565b909155505060408051888152602081018890526001600160a01b03808b16928c821692918816917fc3d58168c5ae7397731d063d5bbf3d657854427343f4c083240f7aacaa2d0f62910160405180910390a461286f848a8a8a8a8a61293c565b505050505050505050565b604080516001808252818301909252606091600091906020808301908036833701905050905082816000815181106128b4576128b461398c565b602090810291909101015292915050565b6001600160a01b03851615806128e257506001600160a01b038416155b61292e5760405162461bcd60e51b815260206004820152601960248201527f43616e6e6f74207472616e7366657220746f206f7468657273000000000000006044820152606401610701565b612272868686868686612c73565b6001600160a01b0384163b156122725760405163f23a6e6160e01b81526001600160a01b0385169063f23a6e61906129809089908990889088908890600401613ed7565b6020604051808303816000875af19250505080156129bb575060408051601f3d908101601f191682019092526129b891810190613f1c565b60015b612a67576129c7613f39565b806308c379a003612a0057506129db613f54565b806129e65750612a02565b8060405162461bcd60e51b815260040161070191906130bc565b505b60405162461bcd60e51b815260206004820152603460248201527f455243313135353a207472616e7366657220746f206e6f6e2d455243313135356044820152732932b1b2b4bb32b91034b6b83632b6b2b73a32b960611b6064820152608401610701565b6001600160e01b0319811663f23a6e6160e01b146120295760405162461bcd60e51b815260040161070190613fdd565b6001600160a01b0384163b156122725760405163bc197c8160e01b81526001600160a01b0385169063bc197c8190612adb9089908990889088908890600401614025565b6020604051808303816000875af1925050508015612b16575060408051601f3d908101601f19168201909252612b1391810190613f1c565b60015b612b22576129c7613f39565b6001600160e01b0319811663bc197c8160e01b146120295760405162461bcd60e51b815260040161070190613fdd565b6001600160a01b0381163b612bbf5760405162461bcd60e51b815260206004820152602d60248201527f455243313936373a206e657720696d706c656d656e746174696f6e206973206e60448201526c1bdd08184818dbdb9d1c9858dd609a1b6064820152608401610701565b6000805160206140a083398151915280546001600160a01b0319166001600160a01b0392909216919091179055565b612bf783612dec565b600082511180612c045750805b156122b557611e4c8383612e2c565b600054610100900460ff16612c3a5760405162461bcd60e51b815260040161070190613e8c565b610f4b81612f20565b600054610100900460ff16612c6a5760405162461bcd60e51b815260040161070190613e8c565b6118af336123f2565b6001600160a01b038516612cfa5760005b8351811015612cf857828181518110612c9f57612c9f61398c565b602002602001015160976000868481518110612cbd57612cbd61398c565b602002602001015181526020019081526020016000206000828254612ce29190613c1e565b90915550612cf1905081613a1a565b9050612c84565b505b6001600160a01b0384166122725760005b8351811015612029576000848281518110612d2857612d2861398c565b602002602001015190506000848381518110612d4657612d4661398c565b6020026020010151905060006097600084815260200190815260200160002054905081811015612dc95760405162461bcd60e51b815260206004820152602860248201527f455243313135353a206275726e20616d6f756e74206578636565647320746f74604482015267616c537570706c7960c01b6064820152608401610701565b60009283526097602052604090922091039055612de581613a1a565b9050612d0b565b612df581612b52565b6040516001600160a01b038216907fbc7cd75a20ee27fd9adebab32041f755214dbc6bffa90cc0225b39da2e5c2d3b90600090a250565b60606001600160a01b0383163b612e945760405162461bcd60e51b815260206004820152602660248201527f416464726573733a2064656c65676174652063616c6c20746f206e6f6e2d636f6044820152651b9d1c9858dd60d21b6064820152608401610701565b600080846001600160a01b031684604051612eaf9190614083565b600060405180830381855af49150503d8060008114612eea576040519150601f19603f3d011682016040523d82523d6000602084013e612eef565b606091505b5091509150612f1782826040518060600160405280602781526020016140c060279139612f2c565b95945050505050565b606761150b8282613b5f565b60608315612f3b575081612f45565b612f458383612f4c565b9392505050565b8151156129e65781518083602001fd5b6040805161010081018252606080825260208201819052600092820183905281018290526080810182905260a0810182905260c0810182905260e081019190915290565b6001600160a01b0381168114610f4b57600080fd5b8035612fc081612fa0565b919050565b60008060408385031215612fd857600080fd5b8235612fe381612fa0565b946020939093013593505050565b6001600160e01b031981168114610f4b57600080fd5b60006020828403121561301957600080fd5b8135612f4581612ff1565b803563ffffffff81168114612fc057600080fd5b60006020828403121561304a57600080fd5b612f4582613024565b60006020828403121561306557600080fd5b5035919050565b60005b8381101561308757818101518382015260200161306f565b50506000910152565b600081518084526130a881602086016020860161306c565b601f01601f19169290920160200192915050565b602081526000612f456020830184613090565b6000602082840312156130e157600080fd5b8135612f4581612fa0565b634e487b7160e01b600052604160045260246000fd5b606081018181106001600160401b0382111715613121576131216130ec565b60405250565b601f8201601f191681016001600160401b038111828210171561314c5761314c6130ec565b6040525050565b60405161010081016001600160401b0381118282101715613176576131766130ec565b60405290565b60006001600160401b03821115613195576131956130ec565b5060051b60200190565b600082601f8301126131b057600080fd5b813560206131bd8261317c565b6040516131ca8282613127565b83815260059390931b85018201928281019150868411156131ea57600080fd5b8286015b8481101561320557803583529183019183016131ee565b509695505050505050565b600082601f83011261322157600080fd5b8135602061322e8261317c565b60405161323b8282613127565b83815260059390931b850182019282810191508684111561325b57600080fd5b8286015b8481101561320557803561327281612fa0565b835291830191830161325f565b6000806040838503121561329257600080fd5b82356001600160401b03808211156132a957600080fd5b6132b58683870161319f565b935060208501359150808211156132cb57600080fd5b506132d885828601613210565b9150509250929050565b6020808252825182820181905260009190848201906040850190845b8181101561331c5783511515835292840192918401916001016132fe565b50909695505050505050565b60006001600160401b03821115613341576133416130ec565b50601f01601f191660200190565b600082601f83011261336057600080fd5b813561336b81613328565b6040516133788282613127565b82815285602084870101111561338d57600080fd5b82602086016020830137600092810160200192909252509392505050565b600080600080600060a086880312156133c357600080fd5b85356133ce81612fa0565b945060208601356133de81612fa0565b935060408601356001600160401b03808211156133fa57600080fd5b61340689838a0161319f565b9450606088013591508082111561341c57600080fd5b61342889838a0161319f565b9350608088013591508082111561343e57600080fd5b5061344b8882890161334f565b9150509295509295909350565b8015158114610f4b57600080fd5b8035612fc081613458565b6000806040838503121561348457600080fd5b8235915060208301356001600160401b03808211156134a257600080fd5b9084019061010082870312156134b757600080fd5b6134bf613153565b8235828111156134ce57600080fd5b6134da8882860161334f565b8252506020830135828111156134ef57600080fd5b6134fb8882860161334f565b60208301525061350d60408401612fb5565b604082015261351e60608401613024565b606082015261352f60808401613024565b608082015261354060a08401613024565b60a082015261355160c08401613466565b60c082015261356260e08401613466565b60e08201528093505050509250929050565b6000610100825181855261358a82860182613090565b915050602083015184820360208601526135a48282613090565b91505060018060a01b03604084015116604085015263ffffffff606084015116606085015260808301516135e0608086018263ffffffff169052565b5060a08301516135f860a086018263ffffffff169052565b5060c083015161360c60c086018215159052565b5060e083015161143760e086018215159052565b602081526000612f456020830184613574565b6000806040838503121561364657600080fd5b82356001600160401b038082111561365d57600080fd5b61366986838701613210565b9350602085013591508082111561367f57600080fd5b506132d88582860161319f565b600081518084526020808501945080840160005b838110156136bc578151875295820195908201906001016136a0565b509495945050505050565b602081526000612f45602083018461368c565b600080604083850312156136ed57600080fd5b82356136f881612fa0565b915060208301356001600160401b0381111561371357600080fd5b6132d88582860161334f565b6000806040838503121561373257600080fd5b50508035926020909101359150565b6000602080830181845280855180835260408601915060408160051b870101925083870160005b8281101561379657603f19888603018452613784858351613574565b94509285019290850190600101613768565b5092979650505050505050565b600080600080600080600080610100898b0312156137c057600080fd5b88356001600160401b03808211156137d757600080fd5b6137e38c838d0161334f565b995060208b01359150808211156137f957600080fd5b506138068b828c0161334f565b97505061381560408a01613024565b955061382360608a01613024565b945061383160808a01613024565b935060a089013561384181613458565b925060c089013561385181612ff1565b915060e089013561386181612fa0565b809150509295985092959890939650565b6000806040838503121561388557600080fd5b823561389081612fa0565b915060208301356138a081613458565b809150509250929050565b6000806000606084860312156138c057600080fd5b83356138cb81612fa0565b925060208401356138db81612fa0565b915060408401356138eb81612fa0565b809150509250925092565b6000806040838503121561390957600080fd5b823561391481612fa0565b915060208301356138a081612fa0565b600080600080600060a0868803121561393c57600080fd5b853561394781612fa0565b9450602086013561395781612fa0565b9350604086013592506060860135915060808601356001600160401b0381111561398057600080fd5b61344b8882890161334f565b634e487b7160e01b600052603260045260246000fd5b8051612fc081613458565b6000602082840312156139bf57600080fd5b8151612f4581613458565b600181811c908216806139de57607f821691505b6020821081036139fe57634e487b7160e01b600052602260045260246000fd5b50919050565b634e487b7160e01b600052601160045260246000fd5b600060018201613a2c57613a2c613a04565b5060010190565b6020808252602e908201527f455243313135353a2063616c6c6572206973206e6f7420746f6b656e206f776e60408201526d195c881bdc88185c1c1c9bdd995960921b606082015260800190565b6020808252602c908201527f46756e6374696f6e206d7573742062652063616c6c6564207468726f7567682060408201526b19195b1959d85d1958d85b1b60a21b606082015260800190565b6020808252602c908201527f46756e6374696f6e206d7573742062652063616c6c6564207468726f7567682060408201526b6163746976652070726f787960a01b606082015260800190565b601f8211156122b557600081815260208120601f850160051c81016020861015613b405750805b601f850160051c820191505b8181101561227257828155600101613b4c565b81516001600160401b03811115613b7857613b786130ec565b613b8c81613b8684546139ca565b84613b19565b602080601f831160018114613bc15760008415613ba95750858301515b600019600386901b1c1916600185901b178555612272565b600085815260208120601f198616915b82811015613bf057888601518255948401946001909101908401613bd1565b5085821015613c0e5787850151600019600388901b60f8161c191681555b5050505050600190811b01905550565b8082018082111561072f5761072f613a04565b808202811582820484141761072f5761072f613a04565b8051612fc081612fa0565b60006020808385031215613c6657600080fd5b82516001600160401b0380821115613c7d57600080fd5b9084019060608287031215613c9157600080fd5b604051613c9d81613102565b825182811115613cac57600080fd5b83019150601f82018713613cbf57600080fd5b8151613cca81613328565b604051613cd78282613127565b8281528987848701011115613ceb57600080fd5b613cfa8388830189880161306c565b835250613d0a9050838501613c48565b84820152613d1a604084016139a2565b60408201529695505050505050565b600060208284031215613d3b57600080fd5b8151612f4581612fa0565b8181038181111561072f5761072f613a04565b600063ffffffff808a16835260e06020840152613d7960e084018a613090565b8381036040850152613d8b818a613090565b6001600160a01b03989098166060850152509485166080830152509190921660a082015290151560c0909101529392505050565b60208082526025908201527f455243313135353a207472616e7366657220746f20746865207a65726f206164604082015264647265737360d81b606082015260800190565b6020808252602a908201527f455243313135353a20696e73756666696369656e742062616c616e636520666f60408201526939103a3930b739b332b960b11b606082015260800190565b604081526000613e61604083018561368c565b8281036020840152612f17818561368c565b600060208284031215613e8557600080fd5b5051919050565b6020808252602b908201527f496e697469616c697a61626c653a20636f6e7472616374206973206e6f74206960408201526a6e697469616c697a696e6760a81b606082015260800190565b6001600160a01b03868116825285166020820152604081018490526060810183905260a060808201819052600090613f1190830184613090565b979650505050505050565b600060208284031215613f2e57600080fd5b8151612f4581612ff1565b600060033d11156115c05760046000803e5060005160e01c90565b600060443d1015613f625790565b6040516003193d81016004833e81513d6001600160401b038160248401118184111715613f9157505050505090565b8285019150815181811115613fa95750505050505090565b843d8701016020828501011115613fc35750505050505090565b613fd260208286010187613127565b509095945050505050565b60208082526028908201527f455243313135353a204552433131353552656365697665722072656a656374656040820152676420746f6b656e7360c01b606082015260800190565b6001600160a01b0386811682528516602082015260a0604082018190526000906140519083018661368c565b8281036060840152614063818661368c565b905082810360808401526140778185613090565b98975050505050505050565b6000825161409581846020870161306c565b919091019291505056fe360894a13ba1a3210667c828492db98dca3e2076cc3735a920a3ca505d382bbc416464726573733a206c6f772d6c6576656c2064656c65676174652063616c6c206661696c6564a2646970667358221220a8a44857368081ff4626da7dabdb96462239aa74c1b7975fff55b5265ecf83ff64736f6c63430008120033",
  "linkReferences": {},
  "deployedLinkReferences": {}
}