{
  "_format": "hh-sol-artifact-1",
  "contractName": "QuestBoard",
  "sourceName": "contracts/QuestBoard.sol",
  "abi": [
    {
      "inputs": [
        {
          "internalType": "address",
          "name": "_communityPortal",
          "type": "address"
        },
        {
          "internalType": "address",
          "name": "_questCheckerCreater",
          "type": "address"
        },
        {
          "internalType": "address",
          "name": "_prizePoap",
          "type": "address"
        }
      ],
      "stateMutability": "nonpayable",
      "type": "constructor"
    },
    {
      "anonymous": false,
      "inputs": [
        {
          "indexed": true,
          "internalType": "address",
          "name": "account",
          "type": "address"
        },
        {
          "indexed": true,
          "internalType": "address",
          "name": "operator",
          "type": "address"
        },
        {
          "indexed": false,
          "internalType": "bool",
          "name": "approved",
          "type": "bool"
        }
      ],
      "name": "ApprovalForAll",
      "type": "event"
    },
    {
      "anonymous": false,
      "inputs": [
        {
          "indexed": true,
          "internalType": "uint32",
          "name": "questId",
          "type": "uint32"
        },
        {
          "indexed": true,
          "internalType": "address",
          "name": "fan",
          "type": "address"
        }
      ],
      "name": "Burn",
      "type": "event"
    },
    {
      "anonymous": false,
      "inputs": [
        {
          "indexed": true,
          "internalType": "uint32",
          "name": "questId",
          "type": "uint32"
        },
        {
          "indexed": true,
          "internalType": "address",
          "name": "fan",
          "type": "address"
        }
      ],
      "name": "Claim",
      "type": "event"
    },
    {
      "anonymous": false,
      "inputs": [
        {
          "indexed": false,
          "internalType": "uint32",
          "name": "questId",
          "type": "uint32"
        },
        {
          "indexed": false,
          "internalType": "string",
          "name": "title",
          "type": "string"
        },
        {
          "indexed": false,
          "internalType": "string",
          "name": "questURI",
          "type": "string"
        },
        {
          "indexed": false,
          "internalType": "address",
          "name": "questCheckerAddress",
          "type": "address"
        },
        {
          "indexed": true,
          "internalType": "uint32",
          "name": "communityId",
          "type": "uint32"
        },
        {
          "indexed": false,
          "internalType": "uint32",
          "name": "obtainableExp",
          "type": "uint32"
        },
        {
          "indexed": false,
          "internalType": "uint32",
          "name": "obtainablePrizeId",
          "type": "uint32"
        },
        {
          "indexed": false,
          "internalType": "bool",
          "name": "prizeObtainable",
          "type": "bool"
        },
        {
          "indexed": true,
          "internalType": "address",
          "name": "target",
          "type": "address"
        }
      ],
      "name": "Create",
      "type": "event"
    },
    {
      "anonymous": false,
      "inputs": [
        {
          "indexed": true,
          "internalType": "address",
          "name": "previousOwner",
          "type": "address"
        },
        {
          "indexed": true,
          "internalType": "address",
          "name": "newOwner",
          "type": "address"
        }
      ],
      "name": "OwnershipTransferred",
      "type": "event"
    },
    {
      "anonymous": false,
      "inputs": [
        {
          "indexed": true,
          "internalType": "address",
          "name": "operator",
          "type": "address"
        },
        {
          "indexed": true,
          "internalType": "address",
          "name": "from",
          "type": "address"
        },
        {
          "indexed": true,
          "internalType": "address",
          "name": "to",
          "type": "address"
        },
        {
          "indexed": false,
          "internalType": "uint256[]",
          "name": "ids",
          "type": "uint256[]"
        },
        {
          "indexed": false,
          "internalType": "uint256[]",
          "name": "values",
          "type": "uint256[]"
        }
      ],
      "name": "TransferBatch",
      "type": "event"
    },
    {
      "anonymous": false,
      "inputs": [
        {
          "indexed": true,
          "internalType": "address",
          "name": "operator",
          "type": "address"
        },
        {
          "indexed": true,
          "internalType": "address",
          "name": "from",
          "type": "address"
        },
        {
          "indexed": true,
          "internalType": "address",
          "name": "to",
          "type": "address"
        },
        {
          "indexed": false,
          "internalType": "uint256",
          "name": "id",
          "type": "uint256"
        },
        {
          "indexed": false,
          "internalType": "uint256",
          "name": "value",
          "type": "uint256"
        }
      ],
      "name": "TransferSingle",
      "type": "event"
    },
    {
      "anonymous": false,
      "inputs": [
        {
          "indexed": false,
          "internalType": "string",
          "name": "value",
          "type": "string"
        },
        {
          "indexed": true,
          "internalType": "uint256",
          "name": "id",
          "type": "uint256"
        }
      ],
      "name": "URI",
      "type": "event"
    },
    {
      "inputs": [
        {
          "internalType": "address",
          "name": "account",
          "type": "address"
        },
        {
          "internalType": "uint256",
          "name": "id",
          "type": "uint256"
        }
      ],
      "name": "balanceOf",
      "outputs": [
        {
          "internalType": "uint256",
          "name": "",
          "type": "uint256"
        }
      ],
      "stateMutability": "view",
      "type": "function"
    },
    {
      "inputs": [
        {
          "internalType": "address[]",
          "name": "accounts",
          "type": "address[]"
        },
        {
          "internalType": "uint256[]",
          "name": "ids",
          "type": "uint256[]"
        }
      ],
      "name": "balanceOfBatch",
      "outputs": [
        {
          "internalType": "uint256[]",
          "name": "",
          "type": "uint256[]"
        }
      ],
      "stateMutability": "view",
      "type": "function"
    },
    {
      "inputs": [
        {
          "internalType": "uint32",
          "name": "questId",
          "type": "uint32"
        }
      ],
      "name": "burn",
      "outputs": [],
      "stateMutability": "nonpayable",
      "type": "function"
    },
    {
      "inputs": [
        {
          "internalType": "uint256[]",
          "name": "questIds",
          "type": "uint256[]"
        },
        {
          "internalType": "address[]",
          "name": "fanList",
          "type": "address[]"
        }
      ],
      "name": "checkBatchCompleted",
      "outputs": [
        {
          "internalType": "bool[]",
          "name": "",
          "type": "bool[]"
        }
      ],
      "stateMutability": "view",
      "type": "function"
    },
    {
      "inputs": [
        {
          "internalType": "uint32",
          "name": "questId",
          "type": "uint32"
        }
      ],
      "name": "claim",
      "outputs": [],
      "stateMutability": "nonpayable",
      "type": "function"
    },
    {
      "inputs": [],
      "name": "communityPortal",
      "outputs": [
        {
          "internalType": "contract ICommunityPortal",
          "name": "",
          "type": "address"
        }
      ],
      "stateMutability": "view",
      "type": "function"
    },
    {
      "inputs": [
        {
          "internalType": "string",
          "name": "_title",
          "type": "string"
        },
        {
          "internalType": "string",
          "name": "_questURI",
          "type": "string"
        },
        {
          "internalType": "uint32",
          "name": "_communityId",
          "type": "uint32"
        },
        {
          "internalType": "uint32",
          "name": "_obtainableExp",
          "type": "uint32"
        },
        {
          "internalType": "uint32",
          "name": "_obtainablePrizeId",
          "type": "uint32"
        },
        {
          "internalType": "bool",
          "name": "_prizeObtainable",
          "type": "bool"
        },
        {
          "internalType": "bytes4",
          "name": "_interfaceId",
          "type": "bytes4"
        },
        {
          "internalType": "address",
          "name": "_target",
          "type": "address"
        }
      ],
      "name": "createQuest",
      "outputs": [],
      "stateMutability": "nonpayable",
      "type": "function"
    },
    {
      "inputs": [
        {
          "internalType": "uint256",
          "name": "id",
          "type": "uint256"
        }
      ],
      "name": "exists",
      "outputs": [
        {
          "internalType": "bool",
          "name": "",
          "type": "bool"
        }
      ],
      "stateMutability": "view",
      "type": "function"
    },
    {
      "inputs": [
        {
          "internalType": "uint256",
          "name": "page",
          "type": "uint256"
        },
        {
          "internalType": "uint256",
          "name": "pageSize",
          "type": "uint256"
        }
      ],
      "name": "getQuest",
      "outputs": [
        {
          "components": [
            {
              "internalType": "string",
              "name": "title",
              "type": "string"
            },
            {
              "internalType": "string",
              "name": "questURI",
              "type": "string"
            },
            {
              "internalType": "address",
              "name": "questCheckerAddress",
              "type": "address"
            },
            {
              "internalType": "uint32",
              "name": "communityId",
              "type": "uint32"
            },
            {
              "internalType": "uint32",
              "name": "obtainableExp",
              "type": "uint32"
            },
            {
              "internalType": "uint32",
              "name": "obtainablePrizeId",
              "type": "uint32"
            },
            {
              "internalType": "bool",
              "name": "prizeObtainable",
              "type": "bool"
            },
            {
              "internalType": "bool",
              "name": "closed",
              "type": "bool"
            }
          ],
          "internalType": "struct IQuestBoard.Quest[]",
          "name": "",
          "type": "tuple[]"
        },
        {
          "internalType": "uint256",
          "name": "",
          "type": "uint256"
        }
      ],
      "stateMutability": "view",
      "type": "function"
    },
    {
      "inputs": [
        {
          "internalType": "address",
          "name": "account",
          "type": "address"
        },
        {
          "internalType": "address",
          "name": "operator",
          "type": "address"
        }
      ],
      "name": "isApprovedForAll",
      "outputs": [
        {
          "internalType": "bool",
          "name": "",
          "type": "bool"
        }
      ],
      "stateMutability": "view",
      "type": "function"
    },
    {
      "inputs": [
        {
          "internalType": "address",
          "name": "",
          "type": "address"
        },
        {
          "internalType": "uint256",
          "name": "",
          "type": "uint256"
        }
      ],
      "name": "obtained",
      "outputs": [
        {
          "internalType": "bool",
          "name": "",
          "type": "bool"
        }
      ],
      "stateMutability": "view",
      "type": "function"
    },
    {
      "inputs": [],
      "name": "owner",
      "outputs": [
        {
          "internalType": "address",
          "name": "",
          "type": "address"
        }
      ],
      "stateMutability": "view",
      "type": "function"
    },
    {
      "inputs": [],
      "name": "prizePoap",
      "outputs": [
        {
          "internalType": "contract IPrizePoap",
          "name": "",
          "type": "address"
        }
      ],
      "stateMutability": "view",
      "type": "function"
    },
    {
      "inputs": [
        {
          "internalType": "uint256",
          "name": "",
          "type": "uint256"
        }
      ],
      "name": "questBoard",
      "outputs": [
        {
          "internalType": "string",
          "name": "title",
          "type": "string"
        },
        {
          "internalType": "string",
          "name": "questURI",
          "type": "string"
        },
        {
          "internalType": "address",
          "name": "questCheckerAddress",
          "type": "address"
        },
        {
          "internalType": "uint32",
          "name": "communityId",
          "type": "uint32"
        },
        {
          "internalType": "uint32",
          "name": "obtainableExp",
          "type": "uint32"
        },
        {
          "internalType": "uint32",
          "name": "obtainablePrizeId",
          "type": "uint32"
        },
        {
          "internalType": "bool",
          "name": "prizeObtainable",
          "type": "bool"
        },
        {
          "internalType": "bool",
          "name": "closed",
          "type": "bool"
        }
      ],
      "stateMutability": "view",
      "type": "function"
    },
    {
      "inputs": [],
      "name": "questCheckerCreater",
      "outputs": [
        {
          "internalType": "contract IQuestCheckerCreater",
          "name": "",
          "type": "address"
        }
      ],
      "stateMutability": "view",
      "type": "function"
    },
    {
      "inputs": [],
      "name": "questSupply",
      "outputs": [
        {
          "internalType": "uint256",
          "name": "",
          "type": "uint256"
        }
      ],
      "stateMutability": "view",
      "type": "function"
    },
    {
      "inputs": [],
      "name": "renounceOwnership",
      "outputs": [],
      "stateMutability": "nonpayable",
      "type": "function"
    },
    {
      "inputs": [
        {
          "internalType": "address",
          "name": "from",
          "type": "address"
        },
        {
          "internalType": "address",
          "name": "to",
          "type": "address"
        },
        {
          "internalType": "uint256[]",
          "name": "ids",
          "type": "uint256[]"
        },
        {
          "internalType": "uint256[]",
          "name": "amounts",
          "type": "uint256[]"
        },
        {
          "internalType": "bytes",
          "name": "data",
          "type": "bytes"
        }
      ],
      "name": "safeBatchTransferFrom",
      "outputs": [],
      "stateMutability": "nonpayable",
      "type": "function"
    },
    {
      "inputs": [
        {
          "internalType": "address",
          "name": "from",
          "type": "address"
        },
        {
          "internalType": "address",
          "name": "to",
          "type": "address"
        },
        {
          "internalType": "uint256",
          "name": "id",
          "type": "uint256"
        },
        {
          "internalType": "uint256",
          "name": "amount",
          "type": "uint256"
        },
        {
          "internalType": "bytes",
          "name": "data",
          "type": "bytes"
        }
      ],
      "name": "safeTransferFrom",
      "outputs": [],
      "stateMutability": "nonpayable",
      "type": "function"
    },
    {
      "inputs": [
        {
          "internalType": "address",
          "name": "operator",
          "type": "address"
        },
        {
          "internalType": "bool",
          "name": "approved",
          "type": "bool"
        }
      ],
      "name": "setApprovalForAll",
      "outputs": [],
      "stateMutability": "nonpayable",
      "type": "function"
    },
    {
      "inputs": [
        {
          "internalType": "address",
          "name": "communityPortalAddress",
          "type": "address"
        }
      ],
      "name": "setCommunityPortal",
      "outputs": [],
      "stateMutability": "nonpayable",
      "type": "function"
    },
    {
      "inputs": [
        {
          "internalType": "address",
          "name": "prizePoapAddress",
          "type": "address"
        }
      ],
      "name": "setPrizePoap",
      "outputs": [],
      "stateMutability": "nonpayable",
      "type": "function"
    },
    {
      "inputs": [
        {
          "internalType": "address",
          "name": "questCheckerCreaterAddress",
          "type": "address"
        }
      ],
      "name": "setQuestCheckerCreater",
      "outputs": [],
      "stateMutability": "nonpayable",
      "type": "function"
    },
    {
      "inputs": [
        {
          "internalType": "uint256",
          "name": "tokenId",
          "type": "uint256"
        },
        {
          "internalType": "string",
          "name": "newURI",
          "type": "string"
        }
      ],
      "name": "setQuestURI",
      "outputs": [],
      "stateMutability": "nonpayable",
      "type": "function"
    },
    {
      "inputs": [
        {
          "internalType": "bytes4",
          "name": "interfaceId",
          "type": "bytes4"
        }
      ],
      "name": "supportsInterface",
      "outputs": [
        {
          "internalType": "bool",
          "name": "",
          "type": "bool"
        }
      ],
      "stateMutability": "view",
      "type": "function"
    },
    {
      "inputs": [
        {
          "internalType": "uint256",
          "name": "id",
          "type": "uint256"
        }
      ],
      "name": "totalSupply",
      "outputs": [
        {
          "internalType": "uint256",
          "name": "",
          "type": "uint256"
        }
      ],
      "stateMutability": "view",
      "type": "function"
    },
    {
      "inputs": [
        {
          "internalType": "address",
          "name": "newOwner",
          "type": "address"
        }
      ],
      "name": "transferOwnership",
      "outputs": [],
      "stateMutability": "nonpayable",
      "type": "function"
    },
    {
      "inputs": [
        {
          "internalType": "uint256",
          "name": "tokenId",
          "type": "uint256"
        }
      ],
      "name": "uri",
      "outputs": [
        {
          "internalType": "string",
          "name": "",
          "type": "string"
        }
      ],
      "stateMutability": "view",
      "type": "function"
    }
  ],
  "bytecode": "0x60806040523480156200001157600080fd5b5060405162005f4c38038062005f4c833981810160405281019062000037919062000290565b60405180602001604052806000815250620000676200005b6200014560201b60201c565b6200014d60201b60201c565b62000078816200021160201b60201c565b5082600560006101000a81548173ffffffffffffffffffffffffffffffffffffffff021916908373ffffffffffffffffffffffffffffffffffffffff16021790555081600660006101000a81548173ffffffffffffffffffffffffffffffffffffffff021916908373ffffffffffffffffffffffffffffffffffffffff16021790555080600760006101000a81548173ffffffffffffffffffffffffffffffffffffffff021916908373ffffffffffffffffffffffffffffffffffffffff1602179055505050506200064d565b600033905090565b60008060009054906101000a900473ffffffffffffffffffffffffffffffffffffffff169050816000806101000a81548173ffffffffffffffffffffffffffffffffffffffff021916908373ffffffffffffffffffffffffffffffffffffffff1602179055508173ffffffffffffffffffffffffffffffffffffffff168173ffffffffffffffffffffffffffffffffffffffff167f8be0079c531659141344cd1fd0a4f28419497f9722a3daafe3b4186f6b6457e060405160405180910390a35050565b806003908162000222919062000566565b5050565b600080fd5b600073ffffffffffffffffffffffffffffffffffffffff82169050919050565b600062000258826200022b565b9050919050565b6200026a816200024b565b81146200027657600080fd5b50565b6000815190506200028a816200025f565b92915050565b600080600060608486031215620002ac57620002ab62000226565b5b6000620002bc8682870162000279565b9350506020620002cf8682870162000279565b9250506040620002e28682870162000279565b9150509250925092565b600081519050919050565b7f4e487b7100000000000000000000000000000000000000000000000000000000600052604160045260246000fd5b7f4e487b7100000000000000000000000000000000000000000000000000000000600052602260045260246000fd5b600060028204905060018216806200036e57607f821691505b60208210810362000384576200038362000326565b5b50919050565b60008190508160005260206000209050919050565b60006020601f8301049050919050565b600082821b905092915050565b600060088302620003ee7fffffffffffffffffffffffffffffffffffffffffffffffffffffffffffffffff82620003af565b620003fa8683620003af565b95508019841693508086168417925050509392505050565b6000819050919050565b6000819050919050565b600062000447620004416200043b8462000412565b6200041c565b62000412565b9050919050565b6000819050919050565b620004638362000426565b6200047b62000472826200044e565b848454620003bc565b825550505050565b600090565b6200049262000483565b6200049f81848462000458565b505050565b5b81811015620004c757620004bb60008262000488565b600181019050620004a5565b5050565b601f8211156200051657620004e0816200038a565b620004eb846200039f565b81016020851015620004fb578190505b620005136200050a856200039f565b830182620004a4565b50505b505050565b600082821c905092915050565b60006200053b600019846008026200051b565b1980831691505092915050565b600062000556838362000528565b9150826002028217905092915050565b6200057182620002ec565b67ffffffffffffffff8111156200058d576200058c620002f7565b5b62000599825462000355565b620005a6828285620004cb565b600060209050601f831160018114620005de5760008415620005c9578287015190505b620005d5858262000548565b86555062000645565b601f198416620005ee866200038a565b60005b828110156200061857848901518255600182019150602085019450602081019050620005f1565b8683101562000638578489015162000634601f89168262000528565b8355505b6001600288020188555050505b505050505050565b6158ef806200065d6000396000f3fe608060405234801561001057600080fd5b50600436106101c35760003560e01c80637a5984c4116100f9578063b7184a1e11610097578063bd85b03911610071578063bd85b0391461051c578063e985e9c51461054c578063f242432a1461057c578063f2fde38b14610598576101c3565b8063b7184a1e146104c4578063b72d092a146104e0578063bcbd2e2f146104fe576101c3565b80638fb32cc6116100d35780638fb32cc6146104245780639e83a92114610440578063a22cb46514610471578063a2415f5d1461048d576101c3565b80637a5984c4146103ce578063845bb257146103ea5780638da5cb5b14610406576101c3565b80632eb2c2d6116101665780634f558e79116101405780634f558e7914610346578063656f411e146103765780636e65663014610394578063715018a6146103c4576101c3565b80632eb2c2d6146102dc5780633eea270c146102f85780634e1273f414610316576101c3565b80630e89341c116101a25780630e89341c146102445780631b3d8c96146102745780631bf88567146102905780632c771a4f146102ac576101c3565b8062fdd58e146101c857806301ffc9a7146101f85780630495189114610228575b600080fd5b6101e260048036038101906101dd91906133a2565b6105b4565b6040516101ef91906133f1565b60405180910390f35b610212600480360381019061020d9190613464565b61067d565b60405161021f91906134ac565b60405180910390f35b610242600480360381019061023d9190613503565b61075f565b005b61025e60048036038101906102599190613530565b610c38565b60405161026b91906135ed565b60405180910390f35b61028e6004803603810190610289919061360f565b610cef565b005b6102aa60048036038101906102a59190613771565b610d3b565b005b6102c660048036038101906102c19190613958565b610d7a565b6040516102d39190613a8e565b60405180910390f35b6102f660048036038101906102f19190613b51565b610f56565b005b610300610ff7565b60405161030d9190613c7f565b60405180910390f35b610330600480360381019061032b9190613c9a565b61101d565b60405161033d9190613dd0565b60405180910390f35b610360600480360381019061035b9190613530565b611136565b60405161036d91906134ac565b60405180910390f35b61037e61114a565b60405161038b91906133f1565b60405180910390f35b6103ae60048036038101906103a991906133a2565b611157565b6040516103bb91906134ac565b60405180910390f35b6103cc611186565b005b6103e860048036038101906103e39190613503565b61119a565b005b61040460048036038101906103ff919061360f565b6111f9565b005b61040e611245565b60405161041b9190613e01565b60405180910390f35b61043e60048036038101906104399190613e48565b61126e565b005b61045a60048036038101906104559190613f36565b6116eb565b604051610468929190614157565b60405180910390f35b61048b60048036038101906104869190614187565b611a72565b005b6104a760048036038101906104a29190613530565b611a88565b6040516104bb9897969594939291906141d6565b60405180910390f35b6104de60048036038101906104d9919061360f565b611c5a565b005b6104e8611ca6565b6040516104f59190614283565b60405180910390f35b610506611ccc565b60405161051391906142bf565b60405180910390f35b61053660048036038101906105319190613530565b611cf2565b60405161054391906133f1565b60405180910390f35b610566600480360381019061056191906142da565b611d0f565b60405161057391906134ac565b60405180910390f35b6105966004803603810190610591919061431a565b611da3565b005b6105b260048036038101906105ad919061360f565b611e44565b005b60008073ffffffffffffffffffffffffffffffffffffffff168373ffffffffffffffffffffffffffffffffffffffff1603610624576040517f08c379a000000000000000000000000000000000000000000000000000000000815260040161061b90614423565b60405180910390fd5b6001600083815260200190815260200160002060008473ffffffffffffffffffffffffffffffffffffffff1673ffffffffffffffffffffffffffffffffffffffff16815260200190815260200160002054905092915050565b60007fd9b67a26000000000000000000000000000000000000000000000000000000007bffffffffffffffffffffffffffffffffffffffffffffffffffffffff1916827bffffffffffffffffffffffffffffffffffffffffffffffffffffffff1916148061074857507f0e89341c000000000000000000000000000000000000000000000000000000007bffffffffffffffffffffffffffffffffffffffffffffffffffffffff1916827bffffffffffffffffffffffffffffffffffffffffffffffffffffffff1916145b80610758575061075782611ec7565b5b9050919050565b6000610771338363ffffffff166105b4565b146107b1576040517f08c379a00000000000000000000000000000000000000000000000000000000081526004016107a89061448f565b60405180910390fd5b600060088263ffffffff16815481106107cd576107cc6144af565b5b906000526020600020906004020160020160009054906101000a900473ffffffffffffffffffffffffffffffffffffffff1690508073ffffffffffffffffffffffffffffffffffffffff1663515af40b336040518263ffffffff1660e01b815260040161083a9190613e01565b602060405180830381865afa158015610857573d6000803e3d6000fd5b505050506040513d601f19601f8201168201806040525081019061087b91906144f3565b6108ba576040517f08c379a00000000000000000000000000000000000000000000000000000000081526004016108b190614592565b60405180910390fd5b610902338363ffffffff1660016040518060400160405280600481526020017f3078303000000000000000000000000000000000000000000000000000000000815250611f31565b600960003373ffffffffffffffffffffffffffffffffffffffff1673ffffffffffffffffffffffffffffffffffffffff16815260200190815260200160002060008363ffffffff16815260200190815260200160002060009054906101000a900460ff16610bea576001600960003373ffffffffffffffffffffffffffffffffffffffff1673ffffffffffffffffffffffffffffffffffffffff16815260200190815260200160002060008463ffffffff16815260200190815260200160002060006101000a81548160ff021916908315150217905550600560009054906101000a900473ffffffffffffffffffffffffffffffffffffffff1673ffffffffffffffffffffffffffffffffffffffff16638fbbf96660088463ffffffff1681548110610a3157610a306144af565b5b906000526020600020906004020160020160149054906101000a900463ffffffff163360088663ffffffff1681548110610a6e57610a6d6144af565b5b906000526020600020906004020160020160189054906101000a900463ffffffff166040518463ffffffff1660e01b8152600401610aae939291906145b2565b600060405180830381600087803b158015610ac857600080fd5b505af1158015610adc573d6000803e3d6000fd5b5050505060088263ffffffff1681548110610afa57610af96144af565b5b906000526020600020906004020160030160009054906101000a900460ff1615610be957600760009054906101000a900473ffffffffffffffffffffffffffffffffffffffff1673ffffffffffffffffffffffffffffffffffffffff1663add24fc060088463ffffffff1681548110610b7657610b756144af565b5b9060005260206000209060040201600201601c9054906101000a900463ffffffff16336040518363ffffffff1660e01b8152600401610bb692919061461a565b600060405180830381600087803b158015610bd057600080fd5b505af1158015610be4573d6000803e3d6000fd5b505050505b5b3373ffffffffffffffffffffffffffffffffffffffff168263ffffffff167f57e4b8633fffe5b216a848741e61b8b1ceabf6e1acb0fe7abc6d626db61f0c1060405160405180910390a35050565b606060088281548110610c4e57610c4d6144af565b5b90600052602060002090600402016001018054610c6a90614672565b80601f0160208091040260200160405190810160405280929190818152602001828054610c9690614672565b8015610ce35780601f10610cb857610100808354040283529160200191610ce3565b820191906000526020600020905b815481529060010190602001808311610cc657829003601f168201915b50505050509050919050565b610cf76120e2565b80600660006101000a81548173ffffffffffffffffffffffffffffffffffffffff021916908373ffffffffffffffffffffffffffffffffffffffff16021790555050565b610d436120e2565b8060088381548110610d5857610d576144af565b5b90600052602060002090600402016001019081610d759190614845565b505050565b60608151835114610dc0576040517f08c379a0000000000000000000000000000000000000000000000000000000008152600401610db790614989565b60405180910390fd5b6000835167ffffffffffffffff811115610ddd57610ddc613646565b5b604051908082528060200260200182016040528015610e0b5781602001602082028036833780820191505090505b50905060005b8451811015610f4b5760006008868381518110610e3157610e306144af565b5b602002602001015181548110610e4a57610e496144af565b5b906000526020600020906004020160020160009054906101000a900473ffffffffffffffffffffffffffffffffffffffff1690508073ffffffffffffffffffffffffffffffffffffffff1663515af40b868481518110610ead57610eac6144af565b5b60200260200101516040518263ffffffff1660e01b8152600401610ed19190613e01565b602060405180830381865afa158015610eee573d6000803e3d6000fd5b505050506040513d601f19601f82011682018060405250810190610f1291906144f3565b838381518110610f2557610f246144af565b5b602002602001019015159081151581525050508080610f43906149d8565b915050610e11565b508091505092915050565b610f5e612160565b73ffffffffffffffffffffffffffffffffffffffff168573ffffffffffffffffffffffffffffffffffffffff161480610fa45750610fa385610f9e612160565b611d0f565b5b610fe3576040517f08c379a0000000000000000000000000000000000000000000000000000000008152600401610fda90614a92565b60405180910390fd5b610ff08585858585612168565b5050505050565b600760009054906101000a900473ffffffffffffffffffffffffffffffffffffffff1681565b60608151835114611063576040517f08c379a000000000000000000000000000000000000000000000000000000000815260040161105a90614b24565b60405180910390fd5b6000835167ffffffffffffffff8111156110805761107f613646565b5b6040519080825280602002602001820160405280156110ae5781602001602082028036833780820191505090505b50905060005b845181101561112b576110fb8582815181106110d3576110d26144af565b5b60200260200101518583815181106110ee576110ed6144af565b5b60200260200101516105b4565b82828151811061110e5761110d6144af565b5b60200260200101818152505080611124906149d8565b90506110b4565b508091505092915050565b60008061114283611cf2565b119050919050565b6000600880549050905090565b60096020528160005260406000206020528060005260406000206000915091509054906101000a900460ff1681565b61118e6120e2565b611198600061248c565b565b6111ac338263ffffffff166001612550565b3373ffffffffffffffffffffffffffffffffffffffff168163ffffffff167ff2c5d0dd7efdbd39dee9dc9f42699c09e267561ecf320bfe6a6135129336325260405160405180910390a350565b6112016120e2565b80600560006101000a81548173ffffffffffffffffffffffffffffffffffffffff021916908373ffffffffffffffffffffffffffffffffffffffff16021790555050565b60008060009054906101000a900473ffffffffffffffffffffffffffffffffffffffff16905090565b6112766120e2565b60008563ffffffff16116112bf576040517f08c379a00000000000000000000000000000000000000000000000000000000081526004016112b690614b90565b60405180910390fd5b6000600560009054906101000a900473ffffffffffffffffffffffffffffffffffffffff1673ffffffffffffffffffffffffffffffffffffffff1663ca83747e886040518263ffffffff1660e01b815260040161131c9190614bb0565b600060405180830381865afa158015611339573d6000803e3d6000fd5b505050506040513d6000823e3d601f19601f820116820180604052508101906113629190614c50565b90915090508091505080156113ac576040517f08c379a00000000000000000000000000000000000000000000000000000000081526004016113a390614d0b565b60405180910390fd5b6113b4613289565b8981600001819052508881602001819052506000600660009054906101000a900473ffffffffffffffffffffffffffffffffffffffff1673ffffffffffffffffffffffffffffffffffffffff16631d79322886866040518363ffffffff1660e01b8152600401611425929190614d3a565b6020604051808303816000875af1158015611444573d6000803e3d6000fd5b505050506040513d601f19601f820116820180604052508101906114689190614d63565b905080826040019073ffffffffffffffffffffffffffffffffffffffff16908173ffffffffffffffffffffffffffffffffffffffff168152505088826060019063ffffffff16908163ffffffff168152505087826080019063ffffffff16908163ffffffff1681525050868260a0019063ffffffff16908163ffffffff1681525050858260c00190151590811515815250506008829080600181540180825580915050600190039060005260206000209060040201600090919091909150600082015181600001908161153b9190614845565b5060208201518160010190816115519190614845565b5060408201518160020160006101000a81548173ffffffffffffffffffffffffffffffffffffffff021916908373ffffffffffffffffffffffffffffffffffffffff16021790555060608201518160020160146101000a81548163ffffffff021916908363ffffffff16021790555060808201518160020160186101000a81548163ffffffff021916908363ffffffff16021790555060a082015181600201601c6101000a81548163ffffffff021916908363ffffffff16021790555060c08201518160030160006101000a81548160ff02191690831515021790555060e08201518160030160016101000a81548160ff02191690831515021790555050508373ffffffffffffffffffffffffffffffffffffffff16826060015163ffffffff167f7a70dde73e1ac29a245567050834adc2034585a87fc3f45936702c2c1f94434260016008805490506116a59190614d90565b85600001518660200151876040015188608001518960a001518a60c001516040516116d69796959493929190614dc4565b60405180910390a35050505050505050505050565b60606000808311611731576040517f08c379a000000000000000000000000000000000000000000000000000000000815260040161172890614e8d565b60405180910390fd5b60008390506008805490508460018761174a9190614ead565b6117549190614ee1565b11156117635760088054905090505b60008167ffffffffffffffff81111561177f5761177e613646565b5b6040519080825280602002602001820160405280156117b857816020015b6117a5613289565b81526020019060019003908161179d5790505b50905060005b82811015611a5d5760088187896117d59190614ee1565b6117df9190614ead565b815481106117f0576117ef6144af565b5b90600052602060002090600402016040518061010001604052908160008201805461181a90614672565b80601f016020809104026020016040519081016040528092919081815260200182805461184690614672565b80156118935780601f1061186857610100808354040283529160200191611893565b820191906000526020600020905b81548152906001019060200180831161187657829003601f168201915b505050505081526020016001820180546118ac90614672565b80601f01602080910402602001604051908101604052809291908181526020018280546118d890614672565b80156119255780601f106118fa57610100808354040283529160200191611925565b820191906000526020600020905b81548152906001019060200180831161190857829003601f168201915b505050505081526020016002820160009054906101000a900473ffffffffffffffffffffffffffffffffffffffff1673ffffffffffffffffffffffffffffffffffffffff1673ffffffffffffffffffffffffffffffffffffffff1681526020016002820160149054906101000a900463ffffffff1663ffffffff1663ffffffff1681526020016002820160189054906101000a900463ffffffff1663ffffffff1663ffffffff16815260200160028201601c9054906101000a900463ffffffff1663ffffffff1663ffffffff1681526020016003820160009054906101000a900460ff161515151581526020016003820160019054906101000a900460ff161515151581525050828281518110611a3f57611a3e6144af565b5b60200260200101819052508080611a55906149d8565b9150506117be565b50806008805490509350935050509250929050565b611a84611a7d612160565b8383612798565b5050565b60088181548110611a9857600080fd5b9060005260206000209060040201600091509050806000018054611abb90614672565b80601f0160208091040260200160405190810160405280929190818152602001828054611ae790614672565b8015611b345780601f10611b0957610100808354040283529160200191611b34565b820191906000526020600020905b815481529060010190602001808311611b1757829003601f168201915b505050505090806001018054611b4990614672565b80601f0160208091040260200160405190810160405280929190818152602001828054611b7590614672565b8015611bc25780601f10611b9757610100808354040283529160200191611bc2565b820191906000526020600020905b815481529060010190602001808311611ba557829003601f168201915b5050505050908060020160009054906101000a900473ffffffffffffffffffffffffffffffffffffffff16908060020160149054906101000a900463ffffffff16908060020160189054906101000a900463ffffffff169080600201601c9054906101000a900463ffffffff16908060030160009054906101000a900460ff16908060030160019054906101000a900460ff16905088565b611c626120e2565b80600760006101000a81548173ffffffffffffffffffffffffffffffffffffffff021916908373ffffffffffffffffffffffffffffffffffffffff16021790555050565b600560009054906101000a900473ffffffffffffffffffffffffffffffffffffffff1681565b600660009054906101000a900473ffffffffffffffffffffffffffffffffffffffff1681565b600060046000838152602001908152602001600020549050919050565b6000600260008473ffffffffffffffffffffffffffffffffffffffff1673ffffffffffffffffffffffffffffffffffffffff16815260200190815260200160002060008373ffffffffffffffffffffffffffffffffffffffff1673ffffffffffffffffffffffffffffffffffffffff16815260200190815260200160002060009054906101000a900460ff16905092915050565b611dab612160565b73ffffffffffffffffffffffffffffffffffffffff168573ffffffffffffffffffffffffffffffffffffffff161480611df15750611df085611deb612160565b611d0f565b5b611e30576040517f08c379a0000000000000000000000000000000000000000000000000000000008152600401611e2790614a92565b60405180910390fd5b611e3d8585858585612904565b5050505050565b611e4c6120e2565b600073ffffffffffffffffffffffffffffffffffffffff168173ffffffffffffffffffffffffffffffffffffffff1603611ebb576040517f08c379a0000000000000000000000000000000000000000000000000000000008152600401611eb290614f95565b60405180910390fd5b611ec48161248c565b50565b60007f01ffc9a7000000000000000000000000000000000000000000000000000000007bffffffffffffffffffffffffffffffffffffffffffffffffffffffff1916827bffffffffffffffffffffffffffffffffffffffffffffffffffffffff1916149050919050565b600073ffffffffffffffffffffffffffffffffffffffff168473ffffffffffffffffffffffffffffffffffffffff1603611fa0576040517f08c379a0000000000000000000000000000000000000000000000000000000008152600401611f9790615027565b60405180910390fd5b6000611faa612160565b90506000611fb785612ba2565b90506000611fc485612ba2565b9050611fd583600089858589612c1c565b846001600088815260200190815260200160002060008973ffffffffffffffffffffffffffffffffffffffff1673ffffffffffffffffffffffffffffffffffffffff16815260200190815260200160002060008282546120359190614ead565b925050819055508673ffffffffffffffffffffffffffffffffffffffff16600073ffffffffffffffffffffffffffffffffffffffff168473ffffffffffffffffffffffffffffffffffffffff167fc3d58168c5ae7397731d063d5bbf3d657854427343f4c083240f7aacaa2d0f6289896040516120b3929190615047565b60405180910390a46120ca83600089858589612cd8565b6120d983600089898989612ce0565b50505050505050565b6120ea612160565b73ffffffffffffffffffffffffffffffffffffffff16612108611245565b73ffffffffffffffffffffffffffffffffffffffff161461215e576040517f08c379a0000000000000000000000000000000000000000000000000000000008152600401612155906150bc565b60405180910390fd5b565b600033905090565b81518351146121ac576040517f08c379a00000000000000000000000000000000000000000000000000000000081526004016121a39061514e565b60405180910390fd5b600073ffffffffffffffffffffffffffffffffffffffff168473ffffffffffffffffffffffffffffffffffffffff160361221b576040517f08c379a0000000000000000000000000000000000000000000000000000000008152600401612212906151e0565b60405180910390fd5b6000612225612160565b9050612235818787878787612c1c565b60005b84518110156123e9576000858281518110612256576122556144af565b5b602002602001015190506000858381518110612275576122746144af565b5b6020026020010151905060006001600084815260200190815260200160002060008b73ffffffffffffffffffffffffffffffffffffffff1673ffffffffffffffffffffffffffffffffffffffff16815260200190815260200160002054905081811015612317576040517f08c379a000000000000000000000000000000000000000000000000000000000815260040161230e90615272565b60405180910390fd5b8181036001600085815260200190815260200160002060008c73ffffffffffffffffffffffffffffffffffffffff1673ffffffffffffffffffffffffffffffffffffffff16815260200190815260200160002081905550816001600085815260200190815260200160002060008b73ffffffffffffffffffffffffffffffffffffffff1673ffffffffffffffffffffffffffffffffffffffff16815260200190815260200160002060008282546123ce9190614ead565b92505081905550505050806123e2906149d8565b9050612238565b508473ffffffffffffffffffffffffffffffffffffffff168673ffffffffffffffffffffffffffffffffffffffff168273ffffffffffffffffffffffffffffffffffffffff167f4a39dc06d4c0dbc64b70af90fd698a233a518aa5d07e595d983b8c0526c8f7fb8787604051612460929190615292565b60405180910390a4612476818787878787612cd8565b612484818787878787612eb7565b505050505050565b60008060009054906101000a900473ffffffffffffffffffffffffffffffffffffffff169050816000806101000a81548173ffffffffffffffffffffffffffffffffffffffff021916908373ffffffffffffffffffffffffffffffffffffffff1602179055508173ffffffffffffffffffffffffffffffffffffffff168173ffffffffffffffffffffffffffffffffffffffff167f8be0079c531659141344cd1fd0a4f28419497f9722a3daafe3b4186f6b6457e060405160405180910390a35050565b600073ffffffffffffffffffffffffffffffffffffffff168373ffffffffffffffffffffffffffffffffffffffff16036125bf576040517f08c379a00000000000000000000000000000000000000000000000000000000081526004016125b69061533b565b60405180910390fd5b60006125c9612160565b905060006125d684612ba2565b905060006125e384612ba2565b905061260383876000858560405180602001604052806000815250612c1c565b60006001600087815260200190815260200160002060008873ffffffffffffffffffffffffffffffffffffffff1673ffffffffffffffffffffffffffffffffffffffff1681526020019081526020016000205490508481101561269b576040517f08c379a0000000000000000000000000000000000000000000000000000000008152600401612692906153cd565b60405180910390fd5b8481036001600088815260200190815260200160002060008973ffffffffffffffffffffffffffffffffffffffff1673ffffffffffffffffffffffffffffffffffffffff16815260200190815260200160002081905550600073ffffffffffffffffffffffffffffffffffffffff168773ffffffffffffffffffffffffffffffffffffffff168573ffffffffffffffffffffffffffffffffffffffff167fc3d58168c5ae7397731d063d5bbf3d657854427343f4c083240f7aacaa2d0f628989604051612769929190615047565b60405180910390a461278f84886000868660405180602001604052806000815250612cd8565b50505050505050565b8173ffffffffffffffffffffffffffffffffffffffff168373ffffffffffffffffffffffffffffffffffffffff1603612806576040517f08c379a00000000000000000000000000000000000000000000000000000000081526004016127fd9061545f565b60405180910390fd5b80600260008573ffffffffffffffffffffffffffffffffffffffff1673ffffffffffffffffffffffffffffffffffffffff16815260200190815260200160002060008473ffffffffffffffffffffffffffffffffffffffff1673ffffffffffffffffffffffffffffffffffffffff16815260200190815260200160002060006101000a81548160ff0219169083151502179055508173ffffffffffffffffffffffffffffffffffffffff168373ffffffffffffffffffffffffffffffffffffffff167f17307eab39ab6107e8899845ad3d59bd9653f200f220920489ca2b5937696c31836040516128f791906134ac565b60405180910390a3505050565b600073ffffffffffffffffffffffffffffffffffffffff168473ffffffffffffffffffffffffffffffffffffffff1603612973576040517f08c379a000000000000000000000000000000000000000000000000000000000815260040161296a906151e0565b60405180910390fd5b600061297d612160565b9050600061298a85612ba2565b9050600061299785612ba2565b90506129a7838989858589612c1c565b60006001600088815260200190815260200160002060008a73ffffffffffffffffffffffffffffffffffffffff1673ffffffffffffffffffffffffffffffffffffffff16815260200190815260200160002054905085811015612a3f576040517f08c379a0000000000000000000000000000000000000000000000000000000008152600401612a3690615272565b60405180910390fd5b8581036001600089815260200190815260200160002060008b73ffffffffffffffffffffffffffffffffffffffff1673ffffffffffffffffffffffffffffffffffffffff16815260200190815260200160002081905550856001600089815260200190815260200160002060008a73ffffffffffffffffffffffffffffffffffffffff1673ffffffffffffffffffffffffffffffffffffffff1681526020019081526020016000206000828254612af69190614ead565b925050819055508773ffffffffffffffffffffffffffffffffffffffff168973ffffffffffffffffffffffffffffffffffffffff168573ffffffffffffffffffffffffffffffffffffffff167fc3d58168c5ae7397731d063d5bbf3d657854427343f4c083240f7aacaa2d0f628a8a604051612b73929190615047565b60405180910390a4612b89848a8a86868a612cd8565b612b97848a8a8a8a8a612ce0565b505050505050505050565b60606000600167ffffffffffffffff811115612bc157612bc0613646565b5b604051908082528060200260200182016040528015612bef5781602001602082028036833780820191505090505b5090508281600081518110612c0757612c066144af565b5b60200260200101818152505080915050919050565b600073ffffffffffffffffffffffffffffffffffffffff168573ffffffffffffffffffffffffffffffffffffffff161480612c835750600073ffffffffffffffffffffffffffffffffffffffff168473ffffffffffffffffffffffffffffffffffffffff16145b612cc2576040517f08c379a0000000000000000000000000000000000000000000000000000000008152600401612cb9906154cb565b60405180910390fd5b612cd086868686868661308e565b505050505050565b505050505050565b612cff8473ffffffffffffffffffffffffffffffffffffffff1661325e565b15612eaf578373ffffffffffffffffffffffffffffffffffffffff1663f23a6e6187878686866040518663ffffffff1660e01b8152600401612d45959493929190615540565b6020604051808303816000875af1925050508015612d8157506040513d601f19601f82011682018060405250810190612d7e91906155af565b60015b612e2657612d8d6155e9565b806308c379a003612de95750612da161560b565b80612dac5750612deb565b806040517f08c379a0000000000000000000000000000000000000000000000000000000008152600401612de091906135ed565b60405180910390fd5b505b6040517f08c379a0000000000000000000000000000000000000000000000000000000008152600401612e1d9061570d565b60405180910390fd5b63f23a6e6160e01b7bffffffffffffffffffffffffffffffffffffffffffffffffffffffff1916817bffffffffffffffffffffffffffffffffffffffffffffffffffffffff191614612ead576040517f08c379a0000000000000000000000000000000000000000000000000000000008152600401612ea49061579f565b60405180910390fd5b505b505050505050565b612ed68473ffffffffffffffffffffffffffffffffffffffff1661325e565b15613086578373ffffffffffffffffffffffffffffffffffffffff1663bc197c8187878686866040518663ffffffff1660e01b8152600401612f1c9594939291906157bf565b6020604051808303816000875af1925050508015612f5857506040513d601f19601f82011682018060405250810190612f5591906155af565b60015b612ffd57612f646155e9565b806308c379a003612fc05750612f7861560b565b80612f835750612fc2565b806040517f08c379a0000000000000000000000000000000000000000000000000000000008152600401612fb791906135ed565b60405180910390fd5b505b6040517f08c379a0000000000000000000000000000000000000000000000000000000008152600401612ff49061570d565b60405180910390fd5b63bc197c8160e01b7bffffffffffffffffffffffffffffffffffffffffffffffffffffffff1916817bffffffffffffffffffffffffffffffffffffffffffffffffffffffff191614613084576040517f08c379a000000000000000000000000000000000000000000000000000000000815260040161307b9061579f565b60405180910390fd5b505b505050505050565b61309c868686868686613281565b600073ffffffffffffffffffffffffffffffffffffffff168573ffffffffffffffffffffffffffffffffffffffff160361314d5760005b835181101561314b578281815181106130ef576130ee6144af565b5b60200260200101516004600086848151811061310e5761310d6144af565b5b6020026020010151815260200190815260200160002060008282546131339190614ead565b9250508190555080613144906149d8565b90506130d3565b505b600073ffffffffffffffffffffffffffffffffffffffff168473ffffffffffffffffffffffffffffffffffffffff16036132565760005b83518110156132545760008482815181106131a2576131a16144af565b5b6020026020010151905060008483815181106131c1576131c06144af565b5b6020026020010151905060006004600084815260200190815260200160002054905081811015613226576040517f08c379a000000000000000000000000000000000000000000000000000000000815260040161321d90615899565b60405180910390fd5b81810360046000858152602001908152602001600020819055505050508061324d906149d8565b9050613184565b505b505050505050565b6000808273ffffffffffffffffffffffffffffffffffffffff163b119050919050565b505050505050565b6040518061010001604052806060815260200160608152602001600073ffffffffffffffffffffffffffffffffffffffff168152602001600063ffffffff168152602001600063ffffffff168152602001600063ffffffff1681526020016000151581526020016000151581525090565b6000604051905090565b600080fd5b600080fd5b600073ffffffffffffffffffffffffffffffffffffffff82169050919050565b60006133398261330e565b9050919050565b6133498161332e565b811461335457600080fd5b50565b60008135905061336681613340565b92915050565b6000819050919050565b61337f8161336c565b811461338a57600080fd5b50565b60008135905061339c81613376565b92915050565b600080604083850312156133b9576133b8613304565b5b60006133c785828601613357565b92505060206133d88582860161338d565b9150509250929050565b6133eb8161336c565b82525050565b600060208201905061340660008301846133e2565b92915050565b60007fffffffff0000000000000000000000000000000000000000000000000000000082169050919050565b6134418161340c565b811461344c57600080fd5b50565b60008135905061345e81613438565b92915050565b60006020828403121561347a57613479613304565b5b60006134888482850161344f565b91505092915050565b60008115159050919050565b6134a681613491565b82525050565b60006020820190506134c1600083018461349d565b92915050565b600063ffffffff82169050919050565b6134e0816134c7565b81146134eb57600080fd5b50565b6000813590506134fd816134d7565b92915050565b60006020828403121561351957613518613304565b5b6000613527848285016134ee565b91505092915050565b60006020828403121561354657613545613304565b5b60006135548482850161338d565b91505092915050565b600081519050919050565b600082825260208201905092915050565b60005b8381101561359757808201518184015260208101905061357c565b60008484015250505050565b6000601f19601f8301169050919050565b60006135bf8261355d565b6135c98185613568565b93506135d9818560208601613579565b6135e2816135a3565b840191505092915050565b6000602082019050818103600083015261360781846135b4565b905092915050565b60006020828403121561362557613624613304565b5b600061363384828501613357565b91505092915050565b600080fd5b600080fd5b7f4e487b7100000000000000000000000000000000000000000000000000000000600052604160045260246000fd5b61367e826135a3565b810181811067ffffffffffffffff8211171561369d5761369c613646565b5b80604052505050565b60006136b06132fa565b90506136bc8282613675565b919050565b600067ffffffffffffffff8211156136dc576136db613646565b5b6136e5826135a3565b9050602081019050919050565b82818337600083830152505050565b600061371461370f846136c1565b6136a6565b9050828152602081018484840111156137305761372f613641565b5b61373b8482856136f2565b509392505050565b600082601f8301126137585761375761363c565b5b8135613768848260208601613701565b91505092915050565b6000806040838503121561378857613787613304565b5b60006137968582860161338d565b925050602083013567ffffffffffffffff8111156137b7576137b6613309565b5b6137c385828601613743565b9150509250929050565b600067ffffffffffffffff8211156137e8576137e7613646565b5b602082029050602081019050919050565b600080fd5b600061381161380c846137cd565b6136a6565b90508083825260208201905060208402830185811115613834576138336137f9565b5b835b8181101561385d5780613849888261338d565b845260208401935050602081019050613836565b5050509392505050565b600082601f83011261387c5761387b61363c565b5b813561388c8482602086016137fe565b91505092915050565b600067ffffffffffffffff8211156138b0576138af613646565b5b602082029050602081019050919050565b60006138d46138cf84613895565b6136a6565b905080838252602082019050602084028301858111156138f7576138f66137f9565b5b835b81811015613920578061390c8882613357565b8452602084019350506020810190506138f9565b5050509392505050565b600082601f83011261393f5761393e61363c565b5b813561394f8482602086016138c1565b91505092915050565b6000806040838503121561396f5761396e613304565b5b600083013567ffffffffffffffff81111561398d5761398c613309565b5b61399985828601613867565b925050602083013567ffffffffffffffff8111156139ba576139b9613309565b5b6139c68582860161392a565b9150509250929050565b600081519050919050565b600082825260208201905092915050565b6000819050602082019050919050565b613a0581613491565b82525050565b6000613a1783836139fc565b60208301905092915050565b6000602082019050919050565b6000613a3b826139d0565b613a4581856139db565b9350613a50836139ec565b8060005b83811015613a81578151613a688882613a0b565b9750613a7383613a23565b925050600181019050613a54565b5085935050505092915050565b60006020820190508181036000830152613aa88184613a30565b905092915050565b600067ffffffffffffffff821115613acb57613aca613646565b5b613ad4826135a3565b9050602081019050919050565b6000613af4613aef84613ab0565b6136a6565b905082815260208101848484011115613b1057613b0f613641565b5b613b1b8482856136f2565b509392505050565b600082601f830112613b3857613b3761363c565b5b8135613b48848260208601613ae1565b91505092915050565b600080600080600060a08688031215613b6d57613b6c613304565b5b6000613b7b88828901613357565b9550506020613b8c88828901613357565b945050604086013567ffffffffffffffff811115613bad57613bac613309565b5b613bb988828901613867565b935050606086013567ffffffffffffffff811115613bda57613bd9613309565b5b613be688828901613867565b925050608086013567ffffffffffffffff811115613c0757613c06613309565b5b613c1388828901613b23565b9150509295509295909350565b6000819050919050565b6000613c45613c40613c3b8461330e565b613c20565b61330e565b9050919050565b6000613c5782613c2a565b9050919050565b6000613c6982613c4c565b9050919050565b613c7981613c5e565b82525050565b6000602082019050613c946000830184613c70565b92915050565b60008060408385031215613cb157613cb0613304565b5b600083013567ffffffffffffffff811115613ccf57613cce613309565b5b613cdb8582860161392a565b925050602083013567ffffffffffffffff811115613cfc57613cfb613309565b5b613d0885828601613867565b9150509250929050565b600081519050919050565b600082825260208201905092915050565b6000819050602082019050919050565b613d478161336c565b82525050565b6000613d598383613d3e565b60208301905092915050565b6000602082019050919050565b6000613d7d82613d12565b613d878185613d1d565b9350613d9283613d2e565b8060005b83811015613dc3578151613daa8882613d4d565b9750613db583613d65565b925050600181019050613d96565b5085935050505092915050565b60006020820190508181036000830152613dea8184613d72565b905092915050565b613dfb8161332e565b82525050565b6000602082019050613e166000830184613df2565b92915050565b613e2581613491565b8114613e3057600080fd5b50565b600081359050613e4281613e1c565b92915050565b600080600080600080600080610100898b031215613e6957613e68613304565b5b600089013567ffffffffffffffff811115613e8757613e86613309565b5b613e938b828c01613743565b985050602089013567ffffffffffffffff811115613eb457613eb3613309565b5b613ec08b828c01613743565b9750506040613ed18b828c016134ee565b9650506060613ee28b828c016134ee565b9550506080613ef38b828c016134ee565b94505060a0613f048b828c01613e33565b93505060c0613f158b828c0161344f565b92505060e0613f268b828c01613357565b9150509295985092959890939650565b60008060408385031215613f4d57613f4c613304565b5b6000613f5b8582860161338d565b9250506020613f6c8582860161338d565b9150509250929050565b600081519050919050565b600082825260208201905092915050565b6000819050602082019050919050565b600082825260208201905092915050565b6000613fbe8261355d565b613fc88185613fa2565b9350613fd8818560208601613579565b613fe1816135a3565b840191505092915050565b613ff58161332e565b82525050565b614004816134c7565b82525050565b60006101008301600083015184820360008601526140288282613fb3565b915050602083015184820360208601526140428282613fb3565b91505060408301516140576040860182613fec565b50606083015161406a6060860182613ffb565b50608083015161407d6080860182613ffb565b5060a083015161409060a0860182613ffb565b5060c08301516140a360c08601826139fc565b5060e08301516140b660e08601826139fc565b508091505092915050565b60006140cd838361400a565b905092915050565b6000602082019050919050565b60006140ed82613f76565b6140f78185613f81565b93508360208202850161410985613f92565b8060005b85811015614145578484038952815161412685826140c1565b9450614131836140d5565b925060208a0199505060018101905061410d565b50829750879550505050505092915050565b6000604082019050818103600083015261417181856140e2565b905061418060208301846133e2565b9392505050565b6000806040838503121561419e5761419d613304565b5b60006141ac85828601613357565b92505060206141bd85828601613e33565b9150509250929050565b6141d0816134c7565b82525050565b60006101008201905081810360008301526141f1818b6135b4565b90508181036020830152614205818a6135b4565b90506142146040830189613df2565b61422160608301886141c7565b61422e60808301876141c7565b61423b60a08301866141c7565b61424860c083018561349d565b61425560e083018461349d565b9998505050505050505050565b600061426d82613c4c565b9050919050565b61427d81614262565b82525050565b60006020820190506142986000830184614274565b92915050565b60006142a982613c4c565b9050919050565b6142b98161429e565b82525050565b60006020820190506142d460008301846142b0565b92915050565b600080604083850312156142f1576142f0613304565b5b60006142ff85828601613357565b925050602061431085828601613357565b9150509250929050565b600080600080600060a0868803121561433657614335613304565b5b600061434488828901613357565b955050602061435588828901613357565b94505060406143668882890161338d565b93505060606143778882890161338d565b925050608086013567ffffffffffffffff81111561439857614397613309565b5b6143a488828901613b23565b9150509295509295909350565b7f455243313135353a2061646472657373207a65726f206973206e6f742061207660008201527f616c6964206f776e657200000000000000000000000000000000000000000000602082015250565b600061440d602a83613568565b9150614418826143b1565b604082019050919050565b6000602082019050818103600083015261443c81614400565b9050919050565b7f596f75206861766520616c7265616479206d696e746564000000000000000000600082015250565b6000614479601783613568565b915061448482614443565b602082019050919050565b600060208201905081810360008301526144a88161446c565b9050919050565b7f4e487b7100000000000000000000000000000000000000000000000000000000600052603260045260246000fd5b6000815190506144ed81613e1c565b92915050565b60006020828403121561450957614508613304565b5b6000614517848285016144de565b91505092915050565b7f596f752068617665206e6f7420636f6d706c657465642074686973207175657360008201527f74207965742e0000000000000000000000000000000000000000000000000000602082015250565b600061457c602683613568565b915061458782614520565b604082019050919050565b600060208201905081810360008301526145ab8161456f565b9050919050565b60006060820190506145c760008301866141c7565b6145d46020830185613df2565b6145e160408301846141c7565b949350505050565b60006146046145ff6145fa846134c7565b613c20565b61336c565b9050919050565b614614816145e9565b82525050565b600060408201905061462f600083018561460b565b61463c6020830184613df2565b9392505050565b7f4e487b7100000000000000000000000000000000000000000000000000000000600052602260045260246000fd5b6000600282049050600182168061468a57607f821691505b60208210810361469d5761469c614643565b5b50919050565b60008190508160005260206000209050919050565b60006020601f8301049050919050565b600082821b905092915050565b6000600883026147057fffffffffffffffffffffffffffffffffffffffffffffffffffffffffffffffff826146c8565b61470f86836146c8565b95508019841693508086168417925050509392505050565b600061474261473d6147388461336c565b613c20565b61336c565b9050919050565b6000819050919050565b61475c83614727565b61477061476882614749565b8484546146d5565b825550505050565b600090565b614785614778565b614790818484614753565b505050565b5b818110156147b4576147a960008261477d565b600181019050614796565b5050565b601f8211156147f9576147ca816146a3565b6147d3846146b8565b810160208510156147e2578190505b6147f66147ee856146b8565b830182614795565b50505b505050565b600082821c905092915050565b600061481c600019846008026147fe565b1980831691505092915050565b6000614835838361480b565b9150826002028217905092915050565b61484e8261355d565b67ffffffffffffffff81111561486757614866613646565b5b6148718254614672565b61487c8282856147b8565b600060209050601f8311600181146148af576000841561489d578287015190505b6148a78582614829565b86555061490f565b601f1984166148bd866146a3565b60005b828110156148e5578489015182556001820191506020850194506020810190506148c0565b8683101561490257848901516148fe601f89168261480b565b8355505b6001600288020188555050505b505050505050565b7f717565737449647320616e642066616e4c697374206c656e677468206d69736d60008201527f6174636800000000000000000000000000000000000000000000000000000000602082015250565b6000614973602483613568565b915061497e82614917565b604082019050919050565b600060208201905081810360008301526149a281614966565b9050919050565b7f4e487b7100000000000000000000000000000000000000000000000000000000600052601160045260246000fd5b60006149e38261336c565b91507fffffffffffffffffffffffffffffffffffffffffffffffffffffffffffffffff8203614a1557614a146149a9565b5b600182019050919050565b7f455243313135353a2063616c6c6572206973206e6f7420746f6b656e206f776e60008201527f6572206f7220617070726f766564000000000000000000000000000000000000602082015250565b6000614a7c602e83613568565b9150614a8782614a20565b604082019050919050565b60006020820190508181036000830152614aab81614a6f565b9050919050565b7f455243313135353a206163636f756e747320616e6420696473206c656e67746860008201527f206d69736d617463680000000000000000000000000000000000000000000000602082015250565b6000614b0e602983613568565b9150614b1982614ab2565b604082019050919050565b60006020820190508181036000830152614b3d81614b01565b9050919050565b7f4e6f7420656e6f756768206f627461696e61626c654578700000000000000000600082015250565b6000614b7a601883613568565b9150614b8582614b44565b602082019050919050565b60006020820190508181036000830152614ba981614b6d565b9050919050565b6000602082019050614bc560008301846141c7565b92915050565b6000614bde614bd9846136c1565b6136a6565b905082815260208101848484011115614bfa57614bf9613641565b5b614c05848285613579565b509392505050565b600082601f830112614c2257614c2161363c565b5b8151614c32848260208601614bcb565b91505092915050565b600081519050614c4a81613340565b92915050565b600080600060608486031215614c6957614c68613304565b5b600084015167ffffffffffffffff811115614c8757614c86613309565b5b614c9386828701614c0d565b9350506020614ca486828701614c3b565b9250506040614cb5868287016144de565b9150509250925092565b7f5468697320636f6d6d756e697479206973206e6f74206f70656e640000000000600082015250565b6000614cf5601b83613568565b9150614d0082614cbf565b602082019050919050565b60006020820190508181036000830152614d2481614ce8565b9050919050565b614d348161340c565b82525050565b6000604082019050614d4f6000830185614d2b565b614d5c6020830184613df2565b9392505050565b600060208284031215614d7957614d78613304565b5b6000614d8784828501614c3b565b91505092915050565b6000614d9b8261336c565b9150614da68361336c565b9250828203905081811115614dbe57614dbd6149a9565b5b92915050565b600060e082019050614dd9600083018a6141c7565b8181036020830152614deb81896135b4565b90508181036040830152614dff81886135b4565b9050614e0e6060830187613df2565b614e1b60808301866141c7565b614e2860a08301856141c7565b614e3560c083018461349d565b98975050505050505050565b7f706167652073697a65206d75737420626520706f736974697665000000000000600082015250565b6000614e77601a83613568565b9150614e8282614e41565b602082019050919050565b60006020820190508181036000830152614ea681614e6a565b9050919050565b6000614eb88261336c565b9150614ec38361336c565b9250828201905080821115614edb57614eda6149a9565b5b92915050565b6000614eec8261336c565b9150614ef78361336c565b9250828202614f058161336c565b91508282048414831517614f1c57614f1b6149a9565b5b5092915050565b7f4f776e61626c653a206e6577206f776e657220697320746865207a65726f206160008201527f6464726573730000000000000000000000000000000000000000000000000000602082015250565b6000614f7f602683613568565b9150614f8a82614f23565b604082019050919050565b60006020820190508181036000830152614fae81614f72565b9050919050565b7f455243313135353a206d696e7420746f20746865207a65726f2061646472657360008201527f7300000000000000000000000000000000000000000000000000000000000000602082015250565b6000615011602183613568565b915061501c82614fb5565b604082019050919050565b6000602082019050818103600083015261504081615004565b9050919050565b600060408201905061505c60008301856133e2565b61506960208301846133e2565b9392505050565b7f4f776e61626c653a2063616c6c6572206973206e6f7420746865206f776e6572600082015250565b60006150a6602083613568565b91506150b182615070565b602082019050919050565b600060208201905081810360008301526150d581615099565b9050919050565b7f455243313135353a2069647320616e6420616d6f756e7473206c656e6774682060008201527f6d69736d61746368000000000000000000000000000000000000000000000000602082015250565b6000615138602883613568565b9150615143826150dc565b604082019050919050565b600060208201905081810360008301526151678161512b565b9050919050565b7f455243313135353a207472616e7366657220746f20746865207a65726f20616460008201527f6472657373000000000000000000000000000000000000000000000000000000602082015250565b60006151ca602583613568565b91506151d58261516e565b604082019050919050565b600060208201905081810360008301526151f9816151bd565b9050919050565b7f455243313135353a20696e73756666696369656e742062616c616e636520666f60008201527f72207472616e7366657200000000000000000000000000000000000000000000602082015250565b600061525c602a83613568565b915061526782615200565b604082019050919050565b6000602082019050818103600083015261528b8161524f565b9050919050565b600060408201905081810360008301526152ac8185613d72565b905081810360208301526152c08184613d72565b90509392505050565b7f455243313135353a206275726e2066726f6d20746865207a65726f206164647260008201527f6573730000000000000000000000000000000000000000000000000000000000602082015250565b6000615325602383613568565b9150615330826152c9565b604082019050919050565b6000602082019050818103600083015261535481615318565b9050919050565b7f455243313135353a206275726e20616d6f756e7420657863656564732062616c60008201527f616e636500000000000000000000000000000000000000000000000000000000602082015250565b60006153b7602483613568565b91506153c28261535b565b604082019050919050565b600060208201905081810360008301526153e6816153aa565b9050919050565b7f455243313135353a2073657474696e6720617070726f76616c2073746174757360008201527f20666f722073656c660000000000000000000000000000000000000000000000602082015250565b6000615449602983613568565b9150615454826153ed565b604082019050919050565b600060208201905081810360008301526154788161543c565b9050919050565b7f43616e6e6f74207472616e7366657220746f206f746865727300000000000000600082015250565b60006154b5601983613568565b91506154c08261547f565b602082019050919050565b600060208201905081810360008301526154e4816154a8565b9050919050565b600081519050919050565b600082825260208201905092915050565b6000615512826154eb565b61551c81856154f6565b935061552c818560208601613579565b615535816135a3565b840191505092915050565b600060a0820190506155556000830188613df2565b6155626020830187613df2565b61556f60408301866133e2565b61557c60608301856133e2565b818103608083015261558e8184615507565b90509695505050505050565b6000815190506155a981613438565b92915050565b6000602082840312156155c5576155c4613304565b5b60006155d38482850161559a565b91505092915050565b60008160e01c9050919050565b600060033d11156156085760046000803e6156056000516155dc565b90505b90565b600060443d106156985761561d6132fa565b60043d036004823e80513d602482011167ffffffffffffffff82111715615645575050615698565b808201805167ffffffffffffffff8111156156635750505050615698565b80602083010160043d038501811115615680575050505050615698565b61568f82602001850186613675565b82955050505050505b90565b7f455243313135353a207472616e7366657220746f206e6f6e2d4552433131353560008201527f526563656976657220696d706c656d656e746572000000000000000000000000602082015250565b60006156f7603483613568565b91506157028261569b565b604082019050919050565b60006020820190508181036000830152615726816156ea565b9050919050565b7f455243313135353a204552433131353552656365697665722072656a6563746560008201527f6420746f6b656e73000000000000000000000000000000000000000000000000602082015250565b6000615789602883613568565b91506157948261572d565b604082019050919050565b600060208201905081810360008301526157b88161577c565b9050919050565b600060a0820190506157d46000830188613df2565b6157e16020830187613df2565b81810360408301526157f38186613d72565b905081810360608301526158078185613d72565b9050818103608083015261581b8184615507565b90509695505050505050565b7f455243313135353a206275726e20616d6f756e74206578636565647320746f7460008201527f616c537570706c79000000000000000000000000000000000000000000000000602082015250565b6000615883602883613568565b915061588e82615827565b604082019050919050565b600060208201905081810360008301526158b281615876565b905091905056fea26469706673582212206083b78195ed164004a8969e4bd3d3d0d5787ec6069319d308f7833eaddad4d764736f6c63430008110033",
  "linkReferences": {},
  "deployedLinkReferences": {}
}